{"contracts/VotingTally.sol":{"VotingTally":{"abi":[{"inputs":[{"internalType":"address","name":"_verifierAddress","type":"address"},{"internalType":"uint256","name":"_electionId","type":"uint256"},{"internalType":"uint256","name":"_numCandidates","type":"uint256"}],"stateMutability":"nonpayable","type":"constructor"},{"anonymous":false,"inputs":[{"indexed":false,"internalType":"uint256","name":"root","type":"uint256"}],"name":"MerkleRootSet","type":"event"},{"anonymous":false,"inputs":[{"indexed":true,"internalType":"uint256","name":"electionId","type":"uint256"},{"indexed":true,"internalType":"uint256","name":"candidateIndex","type":"uint256"}],"name":"VoteCast","type":"event"},{"anonymous":false,"inputs":[{"indexed":false,"internalType":"uint256","name":"startTime","type":"uint256"},{"indexed":false,"internalType":"uint256","name":"endTime","type":"uint256"}],"name":"VotingPeriodSet","type":"event"},{"inputs":[],"name":"electionId","outputs":[{"internalType":"uint256","name":"","type":"uint256"}],"stateMutability":"view","type":"function"},{"inputs":[],"name":"merkleRoot","outputs":[{"internalType":"uint256","name":"","type":"uint256"}],"stateMutability":"view","type":"function"},{"inputs":[],"name":"numCandidates","outputs":[{"internalType":"uint256","name":"","type":"uint256"}],"stateMutability":"view","type":"function"},{"inputs":[],"name":"owner","outputs":[{"internalType":"address","name":"","type":"address"}],"stateMutability":"view","type":"function"},{"inputs":[{"internalType":"uint256","name":"_root","type":"uint256"}],"name":"setMerkleRoot","outputs":[],"stateMutability":"nonpayable","type":"function"},{"inputs":[{"internalType":"uint256","name":"_startTime","type":"uint256"},{"internalType":"uint256","name":"_endTime","type":"uint256"}],"name":"setVotingPeriod","outputs":[],"stateMutability":"nonpayable","type":"function"},{"inputs":[{"internalType":"uint256[2]","name":"a","type":"uint256[2]"},{"internalType":"uint256[2][2]","name":"b","type":"uint256[2][2]"},{"internalType":"uint256[2]","name":"c","type":"uint256[2]"},{"internalType":"uint256[3]","name":"publicInputs","type":"uint256[3]"}],"name":"submitTally","outputs":[],"stateMutability":"nonpayable","type":"function"},{"inputs":[{"internalType":"uint256","name":"","type":"uint256"}],"name":"usedNullifiers","outputs":[{"internalType":"bool","name":"","type":"bool"}],"stateMutability":"view","type":"function"},{"inputs":[],"name":"verifier","outputs":[{"internalType":"contract IVerifier","name":"","type":"address"}],"stateMutability":"view","type":"function"},{"inputs":[{"internalType":"uint256","name":"","type":"uint256"}],"name":"voteCounts","outputs":[{"internalType":"uint256","name":"","type":"uint256"}],"stateMutability":"view","type":"function"},{"inputs":[],"name":"votingEndTime","outputs":[{"internalType":"uint256","name":"","type":"uint256"}],"stateMutability":"view","type":"function"},{"inputs":[],"name":"votingStartTime","outputs":[{"internalType":"uint256","name":"","type":"uint256"}],"stateMutability":"view","type":"function"}],"evm":{"bytecode":{"linkReferences":{},"object":"60c06040523480156200001157600080fd5b50604051620018d8380380620018d8833981810160405281019062000037919062000168565b336000806101000a81548173ffffffffffffffffffffffffffffffffffffffff021916908373ffffffffffffffffffffffffffffffffffffffff1602179055508273ffffffffffffffffffffffffffffffffffffffff1660808173ffffffffffffffffffffffffffffffffffffffff16815250508160a0818152505080600481905550505050620001c4565b600080fd5b600073ffffffffffffffffffffffffffffffffffffffff82169050919050565b6000620000f582620000c8565b9050919050565b6200010781620000e8565b81146200011357600080fd5b50565b6000815190506200012781620000fc565b92915050565b6000819050919050565b62000142816200012d565b81146200014e57600080fd5b50565b600081519050620001628162000137565b92915050565b600080600060608486031215620001845762000183620000c3565b5b6000620001948682870162000116565b9350506020620001a78682870162000151565b9250506040620001ba8682870162000151565b9150509250925092565b60805160a0516116e0620001f86000396000818161024101526105d801526000818161027101526104a001526116e06000f3fe608060405234801561001057600080fd5b50600436106100b45760003560e01c80633c3a220d116100715780633c3a220d1461016b5780635216509a1461019b5780635d5e8875146101b95780638da5cb5b146101d5578063a15a36c7146101f3578063aad240611461020f576100b4565b8063051364d4146100b95780631ea736e0146100d75780632019a608146100f55780632b7ac3f3146101135780632c7d783b146101315780632eb4a7ab1461014d575b600080fd5b6100c161023f565b6040516100ce91906108da565b60405180910390f35b6100df610263565b6040516100ec91906108da565b60405180910390f35b6100fd610269565b60405161010a91906108da565b60405180910390f35b61011b61026f565b6040516101289190610974565b60405180910390f35b61014b60048036038101906101469190610c73565b610293565b005b61015561062c565b60405161016291906108da565b60405180910390f35b61018560048036038101906101809190610cdc565b610632565b60405161019291906108da565b60405180910390f35b6101a361064a565b6040516101b091906108da565b60405180910390f35b6101d360048036038101906101ce9190610cdc565b610650565b005b6101dd610762565b6040516101ea9190610d2a565b60405180910390f35b61020d60048036038101906102089190610d45565b610786565b005b61022960048036038101906102249190610cdc565b6108a1565b6040516102369190610da0565b60405180910390f35b7f000000000000000000000000000000000000000000000000000000000000000081565b60035481565b60025481565b7f000000000000000000000000000000000000000000000000000000000000000081565b6002544210156102d8576040517f08c379a00000000000000000000000000000000000000000000000000000000081526004016102cf90610e3e565b60405180910390fd5b600354421061031c576040517f08c379a000000000000000000000000000000000000000000000000000000000815260040161031390610eaa565b60405180910390fd5b600060015403610361576040517f08c379a000000000000000000000000000000000000000000000000000000000815260040161035890610f3c565b60405180910390fd5b6001548160006003811061037857610377610f5c565b5b6020020151146103bd576040517f08c379a00000000000000000000000000000000000000000000000000000000081526004016103b490610fd7565b60405180910390fd5b6000816002600381106103d3576103d2610f5c565b5b602002015190506006600082815260200190815260200160002060009054906101000a900460ff161561043b576040517f08c379a000000000000000000000000000000000000000000000000000000000815260040161043290611069565b60405180910390fd5b60008260016003811061045157610450610f5c565b5b60200201519050600454811061049c576040517f08c379a0000000000000000000000000000000000000000000000000000000008152600401610493906110fb565b60405180910390fd5b60007f000000000000000000000000000000000000000000000000000000000000000073ffffffffffffffffffffffffffffffffffffffff166311479fea888888886040518563ffffffff1660e01b81526004016104fd9493929190611348565b602060405180830381865afa15801561051a573d6000803e3d6000fd5b505050506040513d601f19601f8201168201806040525081019061053e91906113bb565b905080610580576040517f08c379a000000000000000000000000000000000000000000000000000000000815260040161057790611434565b60405180910390fd5b60016006600085815260200190815260200160002060006101000a81548160ff0219169083151502179055506005600083815260200190815260200160002060008154809291906105d090611483565b9190505550817f00000000000000000000000000000000000000000000000000000000000000007fc31875ef3ed5138b71a0c1da7e494bc4d2ba4f567084ea481ec9c45f3a93948b60405160405180910390a350505050505050565b60015481565b60056020528060005260406000206000915090505481565b60045481565b60008054906101000a900473ffffffffffffffffffffffffffffffffffffffff1673ffffffffffffffffffffffffffffffffffffffff163373ffffffffffffffffffffffffffffffffffffffff16146106de576040517f08c379a00000000000000000000000000000000000000000000000000000000081526004016106d59061153d565b60405180910390fd5b60008103610721576040517f08c379a0000000000000000000000000000000000000000000000000000000008152600401610718906115cf565b60405180910390fd5b806001819055507f6e5a142e5c3c536ce6cdc71895fc55c97df6ad3432cd3759a9f784ca35ff447e8160405161075791906108da565b60405180910390a150565b60008054906101000a900473ffffffffffffffffffffffffffffffffffffffff1681565b60008054906101000a900473ffffffffffffffffffffffffffffffffffffffff1673ffffffffffffffffffffffffffffffffffffffff163373ffffffffffffffffffffffffffffffffffffffff1614610814576040517f08c379a000000000000000000000000000000000000000000000000000000000815260040161080b9061153d565b60405180910390fd5b808210610856576040517f08c379a000000000000000000000000000000000000000000000000000000000815260040161084d90611661565b60405180910390fd5b81600281905550806003819055507f7e3f7f0708a84de9203036abaa450dccc85ad5ff52f78c170f3edb55cf5e88288282604051610895929190611681565b60405180910390a15050565b60066020528060005260406000206000915054906101000a900460ff1681565b6000819050919050565b6108d4816108c1565b82525050565b60006020820190506108ef60008301846108cb565b92915050565b600073ffffffffffffffffffffffffffffffffffffffff82169050919050565b6000819050919050565b600061093a610935610930846108f5565b610915565b6108f5565b9050919050565b600061094c8261091f565b9050919050565b600061095e82610941565b9050919050565b61096e81610953565b82525050565b60006020820190506109896000830184610965565b92915050565b6000604051905090565b600080fd5b600080fd5b6000601f19601f8301169050919050565b7f4e487b7100000000000000000000000000000000000000000000000000000000600052604160045260246000fd5b6109ec826109a3565b810181811067ffffffffffffffff82111715610a0b57610a0a6109b4565b5b80604052505050565b6000610a1e61098f565b9050610a2a82826109e3565b919050565b600067ffffffffffffffff821115610a4a57610a496109b4565b5b602082029050919050565b600080fd5b610a63816108c1565b8114610a6e57600080fd5b50565b600081359050610a8081610a5a565b92915050565b6000610a99610a9484610a2f565b610a14565b90508060208402830185811115610ab357610ab2610a55565b5b835b81811015610adc5780610ac88882610a71565b845260208401935050602081019050610ab5565b5050509392505050565b600082601f830112610afb57610afa61099e565b5b6002610b08848285610a86565b91505092915050565b600067ffffffffffffffff821115610b2c57610b2b6109b4565b5b602082029050919050565b6000610b4a610b4584610b11565b610a14565b90508060408402830185811115610b6457610b63610a55565b5b835b81811015610b8d5780610b798882610ae6565b845260208401935050604081019050610b66565b5050509392505050565b600082601f830112610bac57610bab61099e565b5b6002610bb9848285610b37565b91505092915050565b600067ffffffffffffffff821115610bdd57610bdc6109b4565b5b602082029050919050565b6000610bfb610bf684610bc2565b610a14565b90508060208402830185811115610c1557610c14610a55565b5b835b81811015610c3e5780610c2a8882610a71565b845260208401935050602081019050610c17565b5050509392505050565b600082601f830112610c5d57610c5c61099e565b5b6003610c6a848285610be8565b91505092915050565b6000806000806101608587031215610c8e57610c8d610999565b5b6000610c9c87828801610ae6565b9450506040610cad87828801610b97565b93505060c0610cbe87828801610ae6565b925050610100610cd087828801610c48565b91505092959194509250565b600060208284031215610cf257610cf1610999565b5b6000610d0084828501610a71565b91505092915050565b6000610d14826108f5565b9050919050565b610d2481610d09565b82525050565b6000602082019050610d3f6000830184610d1b565b92915050565b60008060408385031215610d5c57610d5b610999565b5b6000610d6a85828601610a71565b9250506020610d7b85828601610a71565b9150509250929050565b60008115159050919050565b610d9a81610d85565b82525050565b6000602082019050610db56000830184610d91565b92915050565b600082825260208201905092915050565b7f566f74696e6754616c6c793a20566f74696e6720686173206e6f74207374617260008201527f7465642079657400000000000000000000000000000000000000000000000000602082015250565b6000610e28602783610dbb565b9150610e3382610dcc565b604082019050919050565b60006020820190508181036000830152610e5781610e1b565b9050919050565b7f566f74696e6754616c6c793a20566f74696e672068617320656e646564000000600082015250565b6000610e94601d83610dbb565b9150610e9f82610e5e565b602082019050919050565b60006020820190508181036000830152610ec381610e87565b9050919050565b7f566f74696e6754616c6c793a204d65726b6c6520726f6f74206973206e6f742060008201527f7365740000000000000000000000000000000000000000000000000000000000602082015250565b6000610f26602383610dbb565b9150610f3182610eca565b604082019050919050565b60006020820190508181036000830152610f5581610f19565b9050919050565b7f4e487b7100000000000000000000000000000000000000000000000000000000600052603260045260246000fd5b7f566f74696e6754616c6c793a20496e76616c6964204d65726b6c6520726f6f74600082015250565b6000610fc1602083610dbb565b9150610fcc82610f8b565b602082019050919050565b60006020820190508181036000830152610ff081610fb4565b9050919050565b7f566f74696e6754616c6c793a205468697320766f74652068617320616c72656160008201527f6479206265656e20636173740000000000000000000000000000000000000000602082015250565b6000611053602c83610dbb565b915061105e82610ff7565b604082019050919050565b6000602082019050818103600083015261108281611046565b9050919050565b7f566f74696e6754616c6c793a20496e76616c69642063616e646964617465206960008201527f6e64657800000000000000000000000000000000000000000000000000000000602082015250565b60006110e5602483610dbb565b91506110f082611089565b604082019050919050565b60006020820190508181036000830152611114816110d8565b9050919050565b600060029050919050565b600081905092915050565b6000819050919050565b611144816108c1565b82525050565b6000611156838361113b565b60208301905092915050565b6000602082019050919050565b6111788161111b565b6111828184611126565b925061118d82611131565b8060005b838110156111be5781516111a5878261114a565b96506111b083611162565b925050600181019050611191565b505050505050565b600060029050919050565b600081905092915050565b6000819050919050565b600081905092915050565b6111fa8161111b565b61120481846111e6565b925061120f82611131565b8060005b83811015611240578151611227878261114a565b965061123283611162565b925050600181019050611213565b505050505050565b600061125483836111f1565b60408301905092915050565b6000602082019050919050565b611276816111c6565b61128081846111d1565b925061128b826111dc565b8060005b838110156112bc5781516112a38782611248565b96506112ae83611260565b92505060018101905061128f565b505050505050565b600060039050919050565b600081905092915050565b6000819050919050565b6000602082019050919050565b6112fa816112c4565b61130481846112cf565b925061130f826112da565b8060005b83811015611340578151611327878261114a565b9650611332836112e4565b925050600181019050611313565b505050505050565b60006101608201905061135e600083018761116f565b61136b604083018661126d565b61137860c083018561116f565b6113866101008301846112f1565b95945050505050565b61139881610d85565b81146113a357600080fd5b50565b6000815190506113b58161138f565b92915050565b6000602082840312156113d1576113d0610999565b5b60006113df848285016113a6565b91505092915050565b7f566f74696e6754616c6c793a20496e76616c6964205a4b2070726f6f66000000600082015250565b600061141e601d83610dbb565b9150611429826113e8565b602082019050919050565b6000602082019050818103600083015261144d81611411565b9050919050565b7f4e487b7100000000000000000000000000000000000000000000000000000000600052601160045260246000fd5b600061148e826108c1565b91507fffffffffffffffffffffffffffffffffffffffffffffffffffffffffffffffff82036114c0576114bf611454565b5b600182019050919050565b7f566f74696e6754616c6c793a2043616c6c6572206973206e6f7420746865206f60008201527f776e657200000000000000000000000000000000000000000000000000000000602082015250565b6000611527602483610dbb565b9150611532826114cb565b604082019050919050565b600060208201905081810360008301526115568161151a565b9050919050565b7f566f74696e6754616c6c793a204d65726b6c6520726f6f742063616e6e6f742060008201527f6265207a65726f00000000000000000000000000000000000000000000000000602082015250565b60006115b9602783610dbb565b91506115c48261155d565b604082019050919050565b600060208201905081810360008301526115e8816115ac565b9050919050565b7f566f74696e6754616c6c793a2053746172742074696d65206d7573742062652060008201527f6265666f726520656e642074696d650000000000000000000000000000000000602082015250565b600061164b602f83610dbb565b9150611656826115ef565b604082019050919050565b6000602082019050818103600083015261167a8161163e565b9050919050565b600060408201905061169660008301856108cb565b6116a360208301846108cb565b939250505056fea26469706673582212205ed0ae6db86de03cf838d1e195ae48418c710c7828137f90a5a0b12f1e0bcbcb64736f6c63430008140033","opcodes":"PUSH1 0xC0 PUSH1 0x40 MSTORE CALLVALUE DUP1 ISZERO PUSH3 0x11 JUMPI PUSH1 0x0 DUP1 REVERT JUMPDEST POP PUSH1 0x40 MLOAD PUSH3 0x18D8 CODESIZE SUB DUP1 PUSH3 0x18D8 DUP4 CODECOPY DUP2 DUP2 ADD PUSH1 0x40 MSTORE DUP2 ADD SWAP1 PUSH3 0x37 SWAP2 SWAP1 PUSH3 0x168 JUMP JUMPDEST CALLER PUSH1 0x0 DUP1 PUSH2 0x100 EXP DUP2 SLOAD DUP2 PUSH20 0xFFFFFFFFFFFFFFFFFFFFFFFFFFFFFFFFFFFFFFFF MUL NOT AND SWAP1 DUP4 PUSH20 0xFFFFFFFFFFFFFFFFFFFFFFFFFFFFFFFFFFFFFFFF AND MUL OR SWAP1 SSTORE POP DUP3 PUSH20 0xFFFFFFFFFFFFFFFFFFFFFFFFFFFFFFFFFFFFFFFF AND PUSH1 0x80 DUP2 PUSH20 0xFFFFFFFFFFFFFFFFFFFFFFFFFFFFFFFFFFFFFFFF AND DUP2 MSTORE POP POP DUP2 PUSH1 0xA0 DUP2 DUP2 MSTORE POP POP DUP1 PUSH1 0x4 DUP2 SWAP1 SSTORE POP POP POP POP PUSH3 0x1C4 JUMP JUMPDEST PUSH1 0x0 DUP1 REVERT JUMPDEST PUSH1 0x0 PUSH20 0xFFFFFFFFFFFFFFFFFFFFFFFFFFFFFFFFFFFFFFFF DUP3 AND SWAP1 POP SWAP2 SWAP1 POP JUMP JUMPDEST PUSH1 0x0 PUSH3 0xF5 DUP3 PUSH3 0xC8 JUMP JUMPDEST SWAP1 POP SWAP2 SWAP1 POP JUMP JUMPDEST PUSH3 0x107 DUP2 PUSH3 0xE8 JUMP JUMPDEST DUP2 EQ PUSH3 0x113 JUMPI PUSH1 0x0 DUP1 REVERT JUMPDEST POP JUMP JUMPDEST PUSH1 0x0 DUP2 MLOAD SWAP1 POP PUSH3 0x127 DUP2 PUSH3 0xFC JUMP JUMPDEST SWAP3 SWAP2 POP POP JUMP JUMPDEST PUSH1 0x0 DUP2 SWAP1 POP SWAP2 SWAP1 POP JUMP JUMPDEST PUSH3 0x142 DUP2 PUSH3 0x12D JUMP JUMPDEST DUP2 EQ PUSH3 0x14E JUMPI PUSH1 0x0 DUP1 REVERT JUMPDEST POP JUMP JUMPDEST PUSH1 0x0 DUP2 MLOAD SWAP1 POP PUSH3 0x162 DUP2 PUSH3 0x137 JUMP JUMPDEST SWAP3 SWAP2 POP POP JUMP JUMPDEST PUSH1 0x0 DUP1 PUSH1 0x0 PUSH1 0x60 DUP5 DUP7 SUB SLT ISZERO PUSH3 0x184 JUMPI PUSH3 0x183 PUSH3 0xC3 JUMP JUMPDEST JUMPDEST PUSH1 0x0 PUSH3 0x194 DUP7 DUP3 DUP8 ADD PUSH3 0x116 JUMP JUMPDEST SWAP4 POP POP PUSH1 0x20 PUSH3 0x1A7 DUP7 DUP3 DUP8 ADD PUSH3 0x151 JUMP JUMPDEST SWAP3 POP POP PUSH1 0x40 PUSH3 0x1BA DUP7 DUP3 DUP8 ADD PUSH3 0x151 JUMP JUMPDEST SWAP2 POP POP SWAP3 POP SWAP3 POP SWAP3 JUMP JUMPDEST PUSH1 0x80 MLOAD PUSH1 0xA0 MLOAD PUSH2 0x16E0 PUSH3 0x1F8 PUSH1 0x0 CODECOPY PUSH1 0x0 DUP2 DUP2 PUSH2 0x241 ADD MSTORE PUSH2 0x5D8 ADD MSTORE PUSH1 0x0 DUP2 DUP2 PUSH2 0x271 ADD MSTORE PUSH2 0x4A0 ADD MSTORE PUSH2 0x16E0 PUSH1 0x0 RETURN INVALID PUSH1 0x80 PUSH1 0x40 MSTORE CALLVALUE DUP1 ISZERO PUSH2 0x10 JUMPI PUSH1 0x0 DUP1 REVERT JUMPDEST POP PUSH1 0x4 CALLDATASIZE LT PUSH2 0xB4 JUMPI PUSH1 0x0 CALLDATALOAD PUSH1 0xE0 SHR DUP1 PUSH4 0x3C3A220D GT PUSH2 0x71 JUMPI DUP1 PUSH4 0x3C3A220D EQ PUSH2 0x16B JUMPI DUP1 PUSH4 0x5216509A EQ PUSH2 0x19B JUMPI DUP1 PUSH4 0x5D5E8875 EQ PUSH2 0x1B9 JUMPI DUP1 PUSH4 0x8DA5CB5B EQ PUSH2 0x1D5 JUMPI DUP1 PUSH4 0xA15A36C7 EQ PUSH2 0x1F3 JUMPI DUP1 PUSH4 0xAAD24061 EQ PUSH2 0x20F JUMPI PUSH2 0xB4 JUMP JUMPDEST DUP1 PUSH4 0x51364D4 EQ PUSH2 0xB9 JUMPI DUP1 PUSH4 0x1EA736E0 EQ PUSH2 0xD7 JUMPI DUP1 PUSH4 0x2019A608 EQ PUSH2 0xF5 JUMPI DUP1 PUSH4 0x2B7AC3F3 EQ PUSH2 0x113 JUMPI DUP1 PUSH4 0x2C7D783B EQ PUSH2 0x131 JUMPI DUP1 PUSH4 0x2EB4A7AB EQ PUSH2 0x14D JUMPI JUMPDEST PUSH1 0x0 DUP1 REVERT JUMPDEST PUSH2 0xC1 PUSH2 0x23F JUMP JUMPDEST PUSH1 0x40 MLOAD PUSH2 0xCE SWAP2 SWAP1 PUSH2 0x8DA JUMP JUMPDEST PUSH1 0x40 MLOAD DUP1 SWAP2 SUB SWAP1 RETURN JUMPDEST PUSH2 0xDF PUSH2 0x263 JUMP JUMPDEST PUSH1 0x40 MLOAD PUSH2 0xEC SWAP2 SWAP1 PUSH2 0x8DA JUMP JUMPDEST PUSH1 0x40 MLOAD DUP1 SWAP2 SUB SWAP1 RETURN JUMPDEST PUSH2 0xFD PUSH2 0x269 JUMP JUMPDEST PUSH1 0x40 MLOAD PUSH2 0x10A SWAP2 SWAP1 PUSH2 0x8DA JUMP JUMPDEST PUSH1 0x40 MLOAD DUP1 SWAP2 SUB SWAP1 RETURN JUMPDEST PUSH2 0x11B PUSH2 0x26F JUMP JUMPDEST PUSH1 0x40 MLOAD PUSH2 0x128 SWAP2 SWAP1 PUSH2 0x974 JUMP JUMPDEST PUSH1 0x40 MLOAD DUP1 SWAP2 SUB SWAP1 RETURN JUMPDEST PUSH2 0x14B PUSH1 0x4 DUP1 CALLDATASIZE SUB DUP2 ADD SWAP1 PUSH2 0x146 SWAP2 SWAP1 PUSH2 0xC73 JUMP JUMPDEST PUSH2 0x293 JUMP JUMPDEST STOP JUMPDEST PUSH2 0x155 PUSH2 0x62C JUMP JUMPDEST PUSH1 0x40 MLOAD PUSH2 0x162 SWAP2 SWAP1 PUSH2 0x8DA JUMP JUMPDEST PUSH1 0x40 MLOAD DUP1 SWAP2 SUB SWAP1 RETURN JUMPDEST PUSH2 0x185 PUSH1 0x4 DUP1 CALLDATASIZE SUB DUP2 ADD SWAP1 PUSH2 0x180 SWAP2 SWAP1 PUSH2 0xCDC JUMP JUMPDEST PUSH2 0x632 JUMP JUMPDEST PUSH1 0x40 MLOAD PUSH2 0x192 SWAP2 SWAP1 PUSH2 0x8DA JUMP JUMPDEST PUSH1 0x40 MLOAD DUP1 SWAP2 SUB SWAP1 RETURN JUMPDEST PUSH2 0x1A3 PUSH2 0x64A JUMP JUMPDEST PUSH1 0x40 MLOAD PUSH2 0x1B0 SWAP2 SWAP1 PUSH2 0x8DA JUMP JUMPDEST PUSH1 0x40 MLOAD DUP1 SWAP2 SUB SWAP1 RETURN JUMPDEST PUSH2 0x1D3 PUSH1 0x4 DUP1 CALLDATASIZE SUB DUP2 ADD SWAP1 PUSH2 0x1CE SWAP2 SWAP1 PUSH2 0xCDC JUMP JUMPDEST PUSH2 0x650 JUMP JUMPDEST STOP JUMPDEST PUSH2 0x1DD PUSH2 0x762 JUMP JUMPDEST PUSH1 0x40 MLOAD PUSH2 0x1EA SWAP2 SWAP1 PUSH2 0xD2A JUMP JUMPDEST PUSH1 0x40 MLOAD DUP1 SWAP2 SUB SWAP1 RETURN JUMPDEST PUSH2 0x20D PUSH1 0x4 DUP1 CALLDATASIZE SUB DUP2 ADD SWAP1 PUSH2 0x208 SWAP2 SWAP1 PUSH2 0xD45 JUMP JUMPDEST PUSH2 0x786 JUMP JUMPDEST STOP JUMPDEST PUSH2 0x229 PUSH1 0x4 DUP1 CALLDATASIZE SUB DUP2 ADD SWAP1 PUSH2 0x224 SWAP2 SWAP1 PUSH2 0xCDC JUMP JUMPDEST PUSH2 0x8A1 JUMP JUMPDEST PUSH1 0x40 MLOAD PUSH2 0x236 SWAP2 SWAP1 PUSH2 0xDA0 JUMP JUMPDEST PUSH1 0x40 MLOAD DUP1 SWAP2 SUB SWAP1 RETURN JUMPDEST PUSH32 0x0 DUP2 JUMP JUMPDEST PUSH1 0x3 SLOAD DUP2 JUMP JUMPDEST PUSH1 0x2 SLOAD DUP2 JUMP JUMPDEST PUSH32 0x0 DUP2 JUMP JUMPDEST PUSH1 0x2 SLOAD TIMESTAMP LT ISZERO PUSH2 0x2D8 JUMPI PUSH1 0x40 MLOAD PUSH32 0x8C379A000000000000000000000000000000000000000000000000000000000 DUP2 MSTORE PUSH1 0x4 ADD PUSH2 0x2CF SWAP1 PUSH2 0xE3E JUMP JUMPDEST PUSH1 0x40 MLOAD DUP1 SWAP2 SUB SWAP1 REVERT JUMPDEST PUSH1 0x3 SLOAD TIMESTAMP LT PUSH2 0x31C JUMPI PUSH1 0x40 MLOAD PUSH32 0x8C379A000000000000000000000000000000000000000000000000000000000 DUP2 MSTORE PUSH1 0x4 ADD PUSH2 0x313 SWAP1 PUSH2 0xEAA JUMP JUMPDEST PUSH1 0x40 MLOAD DUP1 SWAP2 SUB SWAP1 REVERT JUMPDEST PUSH1 0x0 PUSH1 0x1 SLOAD SUB PUSH2 0x361 JUMPI PUSH1 0x40 MLOAD PUSH32 0x8C379A000000000000000000000000000000000000000000000000000000000 DUP2 MSTORE PUSH1 0x4 ADD PUSH2 0x358 SWAP1 PUSH2 0xF3C JUMP JUMPDEST PUSH1 0x40 MLOAD DUP1 SWAP2 SUB SWAP1 REVERT JUMPDEST PUSH1 0x1 SLOAD DUP2 PUSH1 0x0 PUSH1 0x3 DUP2 LT PUSH2 0x378 JUMPI PUSH2 0x377 PUSH2 0xF5C JUMP JUMPDEST JUMPDEST PUSH1 0x20 MUL ADD MLOAD EQ PUSH2 0x3BD JUMPI PUSH1 0x40 MLOAD PUSH32 0x8C379A000000000000000000000000000000000000000000000000000000000 DUP2 MSTORE PUSH1 0x4 ADD PUSH2 0x3B4 SWAP1 PUSH2 0xFD7 JUMP JUMPDEST PUSH1 0x40 MLOAD DUP1 SWAP2 SUB SWAP1 REVERT JUMPDEST PUSH1 0x0 DUP2 PUSH1 0x2 PUSH1 0x3 DUP2 LT PUSH2 0x3D3 JUMPI PUSH2 0x3D2 PUSH2 0xF5C JUMP JUMPDEST JUMPDEST PUSH1 0x20 MUL ADD MLOAD SWAP1 POP PUSH1 0x6 PUSH1 0x0 DUP3 DUP2 MSTORE PUSH1 0x20 ADD SWAP1 DUP2 MSTORE PUSH1 0x20 ADD PUSH1 0x0 KECCAK256 PUSH1 0x0 SWAP1 SLOAD SWAP1 PUSH2 0x100 EXP SWAP1 DIV PUSH1 0xFF AND ISZERO PUSH2 0x43B JUMPI PUSH1 0x40 MLOAD PUSH32 0x8C379A000000000000000000000000000000000000000000000000000000000 DUP2 MSTORE PUSH1 0x4 ADD PUSH2 0x432 SWAP1 PUSH2 0x1069 JUMP JUMPDEST PUSH1 0x40 MLOAD DUP1 SWAP2 SUB SWAP1 REVERT JUMPDEST PUSH1 0x0 DUP3 PUSH1 0x1 PUSH1 0x3 DUP2 LT PUSH2 0x451 JUMPI PUSH2 0x450 PUSH2 0xF5C JUMP JUMPDEST JUMPDEST PUSH1 0x20 MUL ADD MLOAD SWAP1 POP PUSH1 0x4 SLOAD DUP2 LT PUSH2 0x49C JUMPI PUSH1 0x40 MLOAD PUSH32 0x8C379A000000000000000000000000000000000000000000000000000000000 DUP2 MSTORE PUSH1 0x4 ADD PUSH2 0x493 SWAP1 PUSH2 0x10FB JUMP JUMPDEST PUSH1 0x40 MLOAD DUP1 SWAP2 SUB SWAP1 REVERT JUMPDEST PUSH1 0x0 PUSH32 0x0 PUSH20 0xFFFFFFFFFFFFFFFFFFFFFFFFFFFFFFFFFFFFFFFF AND PUSH4 0x11479FEA DUP9 DUP9 DUP9 DUP9 PUSH1 0x40 MLOAD DUP6 PUSH4 0xFFFFFFFF AND PUSH1 0xE0 SHL DUP2 MSTORE PUSH1 0x4 ADD PUSH2 0x4FD SWAP5 SWAP4 SWAP3 SWAP2 SWAP1 PUSH2 0x1348 JUMP JUMPDEST PUSH1 0x20 PUSH1 0x40 MLOAD DUP1 DUP4 SUB DUP2 DUP7 GAS STATICCALL ISZERO DUP1 ISZERO PUSH2 0x51A JUMPI RETURNDATASIZE PUSH1 0x0 DUP1 RETURNDATACOPY RETURNDATASIZE PUSH1 0x0 REVERT JUMPDEST POP POP POP POP PUSH1 0x40 MLOAD RETURNDATASIZE PUSH1 0x1F NOT PUSH1 0x1F DUP3 ADD AND DUP3 ADD DUP1 PUSH1 0x40 MSTORE POP DUP2 ADD SWAP1 PUSH2 0x53E SWAP2 SWAP1 PUSH2 0x13BB JUMP JUMPDEST SWAP1 POP DUP1 PUSH2 0x580 JUMPI PUSH1 0x40 MLOAD PUSH32 0x8C379A000000000000000000000000000000000000000000000000000000000 DUP2 MSTORE PUSH1 0x4 ADD PUSH2 0x577 SWAP1 PUSH2 0x1434 JUMP JUMPDEST PUSH1 0x40 MLOAD DUP1 SWAP2 SUB SWAP1 REVERT JUMPDEST PUSH1 0x1 PUSH1 0x6 PUSH1 0x0 DUP6 DUP2 MSTORE PUSH1 0x20 ADD SWAP1 DUP2 MSTORE PUSH1 0x20 ADD PUSH1 0x0 KECCAK256 PUSH1 0x0 PUSH2 0x100 EXP DUP2 SLOAD DUP2 PUSH1 0xFF MUL NOT AND SWAP1 DUP4 ISZERO ISZERO MUL OR SWAP1 SSTORE POP PUSH1 0x5 PUSH1 0x0 DUP4 DUP2 MSTORE PUSH1 0x20 ADD SWAP1 DUP2 MSTORE PUSH1 0x20 ADD PUSH1 0x0 KECCAK256 PUSH1 0x0 DUP2 SLOAD DUP1 SWAP3 SWAP2 SWAP1 PUSH2 0x5D0 SWAP1 PUSH2 0x1483 JUMP JUMPDEST SWAP2 SWAP1 POP SSTORE POP DUP2 PUSH32 0x0 PUSH32 0xC31875EF3ED5138B71A0C1DA7E494BC4D2BA4F567084EA481EC9C45F3A93948B PUSH1 0x40 MLOAD PUSH1 0x40 MLOAD DUP1 SWAP2 SUB SWAP1 LOG3 POP POP POP POP POP POP POP JUMP JUMPDEST PUSH1 0x1 SLOAD DUP2 JUMP JUMPDEST PUSH1 0x5 PUSH1 0x20 MSTORE DUP1 PUSH1 0x0 MSTORE PUSH1 0x40 PUSH1 0x0 KECCAK256 PUSH1 0x0 SWAP2 POP SWAP1 POP SLOAD DUP2 JUMP JUMPDEST PUSH1 0x4 SLOAD DUP2 JUMP JUMPDEST PUSH1 0x0 DUP1 SLOAD SWAP1 PUSH2 0x100 EXP SWAP1 DIV PUSH20 0xFFFFFFFFFFFFFFFFFFFFFFFFFFFFFFFFFFFFFFFF AND PUSH20 0xFFFFFFFFFFFFFFFFFFFFFFFFFFFFFFFFFFFFFFFF AND CALLER PUSH20 0xFFFFFFFFFFFFFFFFFFFFFFFFFFFFFFFFFFFFFFFF AND EQ PUSH2 0x6DE JUMPI PUSH1 0x40 MLOAD PUSH32 0x8C379A000000000000000000000000000000000000000000000000000000000 DUP2 MSTORE PUSH1 0x4 ADD PUSH2 0x6D5 SWAP1 PUSH2 0x153D JUMP JUMPDEST PUSH1 0x40 MLOAD DUP1 SWAP2 SUB SWAP1 REVERT JUMPDEST PUSH1 0x0 DUP2 SUB PUSH2 0x721 JUMPI PUSH1 0x40 MLOAD PUSH32 0x8C379A000000000000000000000000000000000000000000000000000000000 DUP2 MSTORE PUSH1 0x4 ADD PUSH2 0x718 SWAP1 PUSH2 0x15CF JUMP JUMPDEST PUSH1 0x40 MLOAD DUP1 SWAP2 SUB SWAP1 REVERT JUMPDEST DUP1 PUSH1 0x1 DUP2 SWAP1 SSTORE POP PUSH32 0x6E5A142E5C3C536CE6CDC71895FC55C97DF6AD3432CD3759A9F784CA35FF447E DUP2 PUSH1 0x40 MLOAD PUSH2 0x757 SWAP2 SWAP1 PUSH2 0x8DA JUMP JUMPDEST PUSH1 0x40 MLOAD DUP1 SWAP2 SUB SWAP1 LOG1 POP JUMP JUMPDEST PUSH1 0x0 DUP1 SLOAD SWAP1 PUSH2 0x100 EXP SWAP1 DIV PUSH20 0xFFFFFFFFFFFFFFFFFFFFFFFFFFFFFFFFFFFFFFFF AND DUP2 JUMP JUMPDEST PUSH1 0x0 DUP1 SLOAD SWAP1 PUSH2 0x100 EXP SWAP1 DIV PUSH20 0xFFFFFFFFFFFFFFFFFFFFFFFFFFFFFFFFFFFFFFFF AND PUSH20 0xFFFFFFFFFFFFFFFFFFFFFFFFFFFFFFFFFFFFFFFF AND CALLER PUSH20 0xFFFFFFFFFFFFFFFFFFFFFFFFFFFFFFFFFFFFFFFF AND EQ PUSH2 0x814 JUMPI PUSH1 0x40 MLOAD PUSH32 0x8C379A000000000000000000000000000000000000000000000000000000000 DUP2 MSTORE PUSH1 0x4 ADD PUSH2 0x80B SWAP1 PUSH2 0x153D JUMP JUMPDEST PUSH1 0x40 MLOAD DUP1 SWAP2 SUB SWAP1 REVERT JUMPDEST DUP1 DUP3 LT PUSH2 0x856 JUMPI PUSH1 0x40 MLOAD PUSH32 0x8C379A000000000000000000000000000000000000000000000000000000000 DUP2 MSTORE PUSH1 0x4 ADD PUSH2 0x84D SWAP1 PUSH2 0x1661 JUMP JUMPDEST PUSH1 0x40 MLOAD DUP1 SWAP2 SUB SWAP1 REVERT JUMPDEST DUP2 PUSH1 0x2 DUP2 SWAP1 SSTORE POP DUP1 PUSH1 0x3 DUP2 SWAP1 SSTORE POP PUSH32 0x7E3F7F0708A84DE9203036ABAA450DCCC85AD5FF52F78C170F3EDB55CF5E8828 DUP3 DUP3 PUSH1 0x40 MLOAD PUSH2 0x895 SWAP3 SWAP2 SWAP1 PUSH2 0x1681 JUMP JUMPDEST PUSH1 0x40 MLOAD DUP1 SWAP2 SUB SWAP1 LOG1 POP POP JUMP JUMPDEST PUSH1 0x6 PUSH1 0x20 MSTORE DUP1 PUSH1 0x0 MSTORE PUSH1 0x40 PUSH1 0x0 KECCAK256 PUSH1 0x0 SWAP2 POP SLOAD SWAP1 PUSH2 0x100 EXP SWAP1 DIV PUSH1 0xFF AND DUP2 JUMP JUMPDEST PUSH1 0x0 DUP2 SWAP1 POP SWAP2 SWAP1 POP JUMP JUMPDEST PUSH2 0x8D4 DUP2 PUSH2 0x8C1 JUMP JUMPDEST DUP3 MSTORE POP POP JUMP JUMPDEST PUSH1 0x0 PUSH1 0x20 DUP3 ADD SWAP1 POP PUSH2 0x8EF PUSH1 0x0 DUP4 ADD DUP5 PUSH2 0x8CB JUMP JUMPDEST SWAP3 SWAP2 POP POP JUMP JUMPDEST PUSH1 0x0 PUSH20 0xFFFFFFFFFFFFFFFFFFFFFFFFFFFFFFFFFFFFFFFF DUP3 AND SWAP1 POP SWAP2 SWAP1 POP JUMP JUMPDEST PUSH1 0x0 DUP2 SWAP1 POP SWAP2 SWAP1 POP JUMP JUMPDEST PUSH1 0x0 PUSH2 0x93A PUSH2 0x935 PUSH2 0x930 DUP5 PUSH2 0x8F5 JUMP JUMPDEST PUSH2 0x915 JUMP JUMPDEST PUSH2 0x8F5 JUMP JUMPDEST SWAP1 POP SWAP2 SWAP1 POP JUMP JUMPDEST PUSH1 0x0 PUSH2 0x94C DUP3 PUSH2 0x91F JUMP JUMPDEST SWAP1 POP SWAP2 SWAP1 POP JUMP JUMPDEST PUSH1 0x0 PUSH2 0x95E DUP3 PUSH2 0x941 JUMP JUMPDEST SWAP1 POP SWAP2 SWAP1 POP JUMP JUMPDEST PUSH2 0x96E DUP2 PUSH2 0x953 JUMP JUMPDEST DUP3 MSTORE POP POP JUMP JUMPDEST PUSH1 0x0 PUSH1 0x20 DUP3 ADD SWAP1 POP PUSH2 0x989 PUSH1 0x0 DUP4 ADD DUP5 PUSH2 0x965 JUMP JUMPDEST SWAP3 SWAP2 POP POP JUMP JUMPDEST PUSH1 0x0 PUSH1 0x40 MLOAD SWAP1 POP SWAP1 JUMP JUMPDEST PUSH1 0x0 DUP1 REVERT JUMPDEST PUSH1 0x0 DUP1 REVERT JUMPDEST PUSH1 0x0 PUSH1 0x1F NOT PUSH1 0x1F DUP4 ADD AND SWAP1 POP SWAP2 SWAP1 POP JUMP JUMPDEST PUSH32 0x4E487B7100000000000000000000000000000000000000000000000000000000 PUSH1 0x0 MSTORE PUSH1 0x41 PUSH1 0x4 MSTORE PUSH1 0x24 PUSH1 0x0 REVERT JUMPDEST PUSH2 0x9EC DUP3 PUSH2 0x9A3 JUMP JUMPDEST DUP2 ADD DUP2 DUP2 LT PUSH8 0xFFFFFFFFFFFFFFFF DUP3 GT OR ISZERO PUSH2 0xA0B JUMPI PUSH2 0xA0A PUSH2 0x9B4 JUMP JUMPDEST JUMPDEST DUP1 PUSH1 0x40 MSTORE POP POP POP JUMP JUMPDEST PUSH1 0x0 PUSH2 0xA1E PUSH2 0x98F JUMP JUMPDEST SWAP1 POP PUSH2 0xA2A DUP3 DUP3 PUSH2 0x9E3 JUMP JUMPDEST SWAP2 SWAP1 POP JUMP JUMPDEST PUSH1 0x0 PUSH8 0xFFFFFFFFFFFFFFFF DUP3 GT ISZERO PUSH2 0xA4A JUMPI PUSH2 0xA49 PUSH2 0x9B4 JUMP JUMPDEST JUMPDEST PUSH1 0x20 DUP3 MUL SWAP1 POP SWAP2 SWAP1 POP JUMP JUMPDEST PUSH1 0x0 DUP1 REVERT JUMPDEST PUSH2 0xA63 DUP2 PUSH2 0x8C1 JUMP JUMPDEST DUP2 EQ PUSH2 0xA6E JUMPI PUSH1 0x0 DUP1 REVERT JUMPDEST POP JUMP JUMPDEST PUSH1 0x0 DUP2 CALLDATALOAD SWAP1 POP PUSH2 0xA80 DUP2 PUSH2 0xA5A JUMP JUMPDEST SWAP3 SWAP2 POP POP JUMP JUMPDEST PUSH1 0x0 PUSH2 0xA99 PUSH2 0xA94 DUP5 PUSH2 0xA2F JUMP JUMPDEST PUSH2 0xA14 JUMP JUMPDEST SWAP1 POP DUP1 PUSH1 0x20 DUP5 MUL DUP4 ADD DUP6 DUP2 GT ISZERO PUSH2 0xAB3 JUMPI PUSH2 0xAB2 PUSH2 0xA55 JUMP JUMPDEST JUMPDEST DUP4 JUMPDEST DUP2 DUP2 LT ISZERO PUSH2 0xADC JUMPI DUP1 PUSH2 0xAC8 DUP9 DUP3 PUSH2 0xA71 JUMP JUMPDEST DUP5 MSTORE PUSH1 0x20 DUP5 ADD SWAP4 POP POP PUSH1 0x20 DUP2 ADD SWAP1 POP PUSH2 0xAB5 JUMP JUMPDEST POP POP POP SWAP4 SWAP3 POP POP POP JUMP JUMPDEST PUSH1 0x0 DUP3 PUSH1 0x1F DUP4 ADD SLT PUSH2 0xAFB JUMPI PUSH2 0xAFA PUSH2 0x99E JUMP JUMPDEST JUMPDEST PUSH1 0x2 PUSH2 0xB08 DUP5 DUP3 DUP6 PUSH2 0xA86 JUMP JUMPDEST SWAP2 POP POP SWAP3 SWAP2 POP POP JUMP JUMPDEST PUSH1 0x0 PUSH8 0xFFFFFFFFFFFFFFFF DUP3 GT ISZERO PUSH2 0xB2C JUMPI PUSH2 0xB2B PUSH2 0x9B4 JUMP JUMPDEST JUMPDEST PUSH1 0x20 DUP3 MUL SWAP1 POP SWAP2 SWAP1 POP JUMP JUMPDEST PUSH1 0x0 PUSH2 0xB4A PUSH2 0xB45 DUP5 PUSH2 0xB11 JUMP JUMPDEST PUSH2 0xA14 JUMP JUMPDEST SWAP1 POP DUP1 PUSH1 0x40 DUP5 MUL DUP4 ADD DUP6 DUP2 GT ISZERO PUSH2 0xB64 JUMPI PUSH2 0xB63 PUSH2 0xA55 JUMP JUMPDEST JUMPDEST DUP4 JUMPDEST DUP2 DUP2 LT ISZERO PUSH2 0xB8D JUMPI DUP1 PUSH2 0xB79 DUP9 DUP3 PUSH2 0xAE6 JUMP JUMPDEST DUP5 MSTORE PUSH1 0x20 DUP5 ADD SWAP4 POP POP PUSH1 0x40 DUP2 ADD SWAP1 POP PUSH2 0xB66 JUMP JUMPDEST POP POP POP SWAP4 SWAP3 POP POP POP JUMP JUMPDEST PUSH1 0x0 DUP3 PUSH1 0x1F DUP4 ADD SLT PUSH2 0xBAC JUMPI PUSH2 0xBAB PUSH2 0x99E JUMP JUMPDEST JUMPDEST PUSH1 0x2 PUSH2 0xBB9 DUP5 DUP3 DUP6 PUSH2 0xB37 JUMP JUMPDEST SWAP2 POP POP SWAP3 SWAP2 POP POP JUMP JUMPDEST PUSH1 0x0 PUSH8 0xFFFFFFFFFFFFFFFF DUP3 GT ISZERO PUSH2 0xBDD JUMPI PUSH2 0xBDC PUSH2 0x9B4 JUMP JUMPDEST JUMPDEST PUSH1 0x20 DUP3 MUL SWAP1 POP SWAP2 SWAP1 POP JUMP JUMPDEST PUSH1 0x0 PUSH2 0xBFB PUSH2 0xBF6 DUP5 PUSH2 0xBC2 JUMP JUMPDEST PUSH2 0xA14 JUMP JUMPDEST SWAP1 POP DUP1 PUSH1 0x20 DUP5 MUL DUP4 ADD DUP6 DUP2 GT ISZERO PUSH2 0xC15 JUMPI PUSH2 0xC14 PUSH2 0xA55 JUMP JUMPDEST JUMPDEST DUP4 JUMPDEST DUP2 DUP2 LT ISZERO PUSH2 0xC3E JUMPI DUP1 PUSH2 0xC2A DUP9 DUP3 PUSH2 0xA71 JUMP JUMPDEST DUP5 MSTORE PUSH1 0x20 DUP5 ADD SWAP4 POP POP PUSH1 0x20 DUP2 ADD SWAP1 POP PUSH2 0xC17 JUMP JUMPDEST POP POP POP SWAP4 SWAP3 POP POP POP JUMP JUMPDEST PUSH1 0x0 DUP3 PUSH1 0x1F DUP4 ADD SLT PUSH2 0xC5D JUMPI PUSH2 0xC5C PUSH2 0x99E JUMP JUMPDEST JUMPDEST PUSH1 0x3 PUSH2 0xC6A DUP5 DUP3 DUP6 PUSH2 0xBE8 JUMP JUMPDEST SWAP2 POP POP SWAP3 SWAP2 POP POP JUMP JUMPDEST PUSH1 0x0 DUP1 PUSH1 0x0 DUP1 PUSH2 0x160 DUP6 DUP8 SUB SLT ISZERO PUSH2 0xC8E JUMPI PUSH2 0xC8D PUSH2 0x999 JUMP JUMPDEST JUMPDEST PUSH1 0x0 PUSH2 0xC9C DUP8 DUP3 DUP9 ADD PUSH2 0xAE6 JUMP JUMPDEST SWAP5 POP POP PUSH1 0x40 PUSH2 0xCAD DUP8 DUP3 DUP9 ADD PUSH2 0xB97 JUMP JUMPDEST SWAP4 POP POP PUSH1 0xC0 PUSH2 0xCBE DUP8 DUP3 DUP9 ADD PUSH2 0xAE6 JUMP JUMPDEST SWAP3 POP POP PUSH2 0x100 PUSH2 0xCD0 DUP8 DUP3 DUP9 ADD PUSH2 0xC48 JUMP JUMPDEST SWAP2 POP POP SWAP3 SWAP6 SWAP2 SWAP5 POP SWAP3 POP JUMP JUMPDEST PUSH1 0x0 PUSH1 0x20 DUP3 DUP5 SUB SLT ISZERO PUSH2 0xCF2 JUMPI PUSH2 0xCF1 PUSH2 0x999 JUMP JUMPDEST JUMPDEST PUSH1 0x0 PUSH2 0xD00 DUP5 DUP3 DUP6 ADD PUSH2 0xA71 JUMP JUMPDEST SWAP2 POP POP SWAP3 SWAP2 POP POP JUMP JUMPDEST PUSH1 0x0 PUSH2 0xD14 DUP3 PUSH2 0x8F5 JUMP JUMPDEST SWAP1 POP SWAP2 SWAP1 POP JUMP JUMPDEST PUSH2 0xD24 DUP2 PUSH2 0xD09 JUMP JUMPDEST DUP3 MSTORE POP POP JUMP JUMPDEST PUSH1 0x0 PUSH1 0x20 DUP3 ADD SWAP1 POP PUSH2 0xD3F PUSH1 0x0 DUP4 ADD DUP5 PUSH2 0xD1B JUMP JUMPDEST SWAP3 SWAP2 POP POP JUMP JUMPDEST PUSH1 0x0 DUP1 PUSH1 0x40 DUP4 DUP6 SUB SLT ISZERO PUSH2 0xD5C JUMPI PUSH2 0xD5B PUSH2 0x999 JUMP JUMPDEST JUMPDEST PUSH1 0x0 PUSH2 0xD6A DUP6 DUP3 DUP7 ADD PUSH2 0xA71 JUMP JUMPDEST SWAP3 POP POP PUSH1 0x20 PUSH2 0xD7B DUP6 DUP3 DUP7 ADD PUSH2 0xA71 JUMP JUMPDEST SWAP2 POP POP SWAP3 POP SWAP3 SWAP1 POP JUMP JUMPDEST PUSH1 0x0 DUP2 ISZERO ISZERO SWAP1 POP SWAP2 SWAP1 POP JUMP JUMPDEST PUSH2 0xD9A DUP2 PUSH2 0xD85 JUMP JUMPDEST DUP3 MSTORE POP POP JUMP JUMPDEST PUSH1 0x0 PUSH1 0x20 DUP3 ADD SWAP1 POP PUSH2 0xDB5 PUSH1 0x0 DUP4 ADD DUP5 PUSH2 0xD91 JUMP JUMPDEST SWAP3 SWAP2 POP POP JUMP JUMPDEST PUSH1 0x0 DUP3 DUP3 MSTORE PUSH1 0x20 DUP3 ADD SWAP1 POP SWAP3 SWAP2 POP POP JUMP JUMPDEST PUSH32 0x566F74696E6754616C6C793A20566F74696E6720686173206E6F742073746172 PUSH1 0x0 DUP3 ADD MSTORE PUSH32 0x7465642079657400000000000000000000000000000000000000000000000000 PUSH1 0x20 DUP3 ADD MSTORE POP JUMP JUMPDEST PUSH1 0x0 PUSH2 0xE28 PUSH1 0x27 DUP4 PUSH2 0xDBB JUMP JUMPDEST SWAP2 POP PUSH2 0xE33 DUP3 PUSH2 0xDCC JUMP JUMPDEST PUSH1 0x40 DUP3 ADD SWAP1 POP SWAP2 SWAP1 POP JUMP JUMPDEST PUSH1 0x0 PUSH1 0x20 DUP3 ADD SWAP1 POP DUP2 DUP2 SUB PUSH1 0x0 DUP4 ADD MSTORE PUSH2 0xE57 DUP2 PUSH2 0xE1B JUMP JUMPDEST SWAP1 POP SWAP2 SWAP1 POP JUMP JUMPDEST PUSH32 0x566F74696E6754616C6C793A20566F74696E672068617320656E646564000000 PUSH1 0x0 DUP3 ADD MSTORE POP JUMP JUMPDEST PUSH1 0x0 PUSH2 0xE94 PUSH1 0x1D DUP4 PUSH2 0xDBB JUMP JUMPDEST SWAP2 POP PUSH2 0xE9F DUP3 PUSH2 0xE5E JUMP JUMPDEST PUSH1 0x20 DUP3 ADD SWAP1 POP SWAP2 SWAP1 POP JUMP JUMPDEST PUSH1 0x0 PUSH1 0x20 DUP3 ADD SWAP1 POP DUP2 DUP2 SUB PUSH1 0x0 DUP4 ADD MSTORE PUSH2 0xEC3 DUP2 PUSH2 0xE87 JUMP JUMPDEST SWAP1 POP SWAP2 SWAP1 POP JUMP JUMPDEST PUSH32 0x566F74696E6754616C6C793A204D65726B6C6520726F6F74206973206E6F7420 PUSH1 0x0 DUP3 ADD MSTORE PUSH32 0x7365740000000000000000000000000000000000000000000000000000000000 PUSH1 0x20 DUP3 ADD MSTORE POP JUMP JUMPDEST PUSH1 0x0 PUSH2 0xF26 PUSH1 0x23 DUP4 PUSH2 0xDBB JUMP JUMPDEST SWAP2 POP PUSH2 0xF31 DUP3 PUSH2 0xECA JUMP JUMPDEST PUSH1 0x40 DUP3 ADD SWAP1 POP SWAP2 SWAP1 POP JUMP JUMPDEST PUSH1 0x0 PUSH1 0x20 DUP3 ADD SWAP1 POP DUP2 DUP2 SUB PUSH1 0x0 DUP4 ADD MSTORE PUSH2 0xF55 DUP2 PUSH2 0xF19 JUMP JUMPDEST SWAP1 POP SWAP2 SWAP1 POP JUMP JUMPDEST PUSH32 0x4E487B7100000000000000000000000000000000000000000000000000000000 PUSH1 0x0 MSTORE PUSH1 0x32 PUSH1 0x4 MSTORE PUSH1 0x24 PUSH1 0x0 REVERT JUMPDEST PUSH32 0x566F74696E6754616C6C793A20496E76616C6964204D65726B6C6520726F6F74 PUSH1 0x0 DUP3 ADD MSTORE POP JUMP JUMPDEST PUSH1 0x0 PUSH2 0xFC1 PUSH1 0x20 DUP4 PUSH2 0xDBB JUMP JUMPDEST SWAP2 POP PUSH2 0xFCC DUP3 PUSH2 0xF8B JUMP JUMPDEST PUSH1 0x20 DUP3 ADD SWAP1 POP SWAP2 SWAP1 POP JUMP JUMPDEST PUSH1 0x0 PUSH1 0x20 DUP3 ADD SWAP1 POP DUP2 DUP2 SUB PUSH1 0x0 DUP4 ADD MSTORE PUSH2 0xFF0 DUP2 PUSH2 0xFB4 JUMP JUMPDEST SWAP1 POP SWAP2 SWAP1 POP JUMP JUMPDEST PUSH32 0x566F74696E6754616C6C793A205468697320766F74652068617320616C726561 PUSH1 0x0 DUP3 ADD MSTORE PUSH32 0x6479206265656E20636173740000000000000000000000000000000000000000 PUSH1 0x20 DUP3 ADD MSTORE POP JUMP JUMPDEST PUSH1 0x0 PUSH2 0x1053 PUSH1 0x2C DUP4 PUSH2 0xDBB JUMP JUMPDEST SWAP2 POP PUSH2 0x105E DUP3 PUSH2 0xFF7 JUMP JUMPDEST PUSH1 0x40 DUP3 ADD SWAP1 POP SWAP2 SWAP1 POP JUMP JUMPDEST PUSH1 0x0 PUSH1 0x20 DUP3 ADD SWAP1 POP DUP2 DUP2 SUB PUSH1 0x0 DUP4 ADD MSTORE PUSH2 0x1082 DUP2 PUSH2 0x1046 JUMP JUMPDEST SWAP1 POP SWAP2 SWAP1 POP JUMP JUMPDEST PUSH32 0x566F74696E6754616C6C793A20496E76616C69642063616E6469646174652069 PUSH1 0x0 DUP3 ADD MSTORE PUSH32 0x6E64657800000000000000000000000000000000000000000000000000000000 PUSH1 0x20 DUP3 ADD MSTORE POP JUMP JUMPDEST PUSH1 0x0 PUSH2 0x10E5 PUSH1 0x24 DUP4 PUSH2 0xDBB JUMP JUMPDEST SWAP2 POP PUSH2 0x10F0 DUP3 PUSH2 0x1089 JUMP JUMPDEST PUSH1 0x40 DUP3 ADD SWAP1 POP SWAP2 SWAP1 POP JUMP JUMPDEST PUSH1 0x0 PUSH1 0x20 DUP3 ADD SWAP1 POP DUP2 DUP2 SUB PUSH1 0x0 DUP4 ADD MSTORE PUSH2 0x1114 DUP2 PUSH2 0x10D8 JUMP JUMPDEST SWAP1 POP SWAP2 SWAP1 POP JUMP JUMPDEST PUSH1 0x0 PUSH1 0x2 SWAP1 POP SWAP2 SWAP1 POP JUMP JUMPDEST PUSH1 0x0 DUP2 SWAP1 POP SWAP3 SWAP2 POP POP JUMP JUMPDEST PUSH1 0x0 DUP2 SWAP1 POP SWAP2 SWAP1 POP JUMP JUMPDEST PUSH2 0x1144 DUP2 PUSH2 0x8C1 JUMP JUMPDEST DUP3 MSTORE POP POP JUMP JUMPDEST PUSH1 0x0 PUSH2 0x1156 DUP4 DUP4 PUSH2 0x113B JUMP JUMPDEST PUSH1 0x20 DUP4 ADD SWAP1 POP SWAP3 SWAP2 POP POP JUMP JUMPDEST PUSH1 0x0 PUSH1 0x20 DUP3 ADD SWAP1 POP SWAP2 SWAP1 POP JUMP JUMPDEST PUSH2 0x1178 DUP2 PUSH2 0x111B JUMP JUMPDEST PUSH2 0x1182 DUP2 DUP5 PUSH2 0x1126 JUMP JUMPDEST SWAP3 POP PUSH2 0x118D DUP3 PUSH2 0x1131 JUMP JUMPDEST DUP1 PUSH1 0x0 JUMPDEST DUP4 DUP2 LT ISZERO PUSH2 0x11BE JUMPI DUP2 MLOAD PUSH2 0x11A5 DUP8 DUP3 PUSH2 0x114A JUMP JUMPDEST SWAP7 POP PUSH2 0x11B0 DUP4 PUSH2 0x1162 JUMP JUMPDEST SWAP3 POP POP PUSH1 0x1 DUP2 ADD SWAP1 POP PUSH2 0x1191 JUMP JUMPDEST POP POP POP POP POP POP JUMP JUMPDEST PUSH1 0x0 PUSH1 0x2 SWAP1 POP SWAP2 SWAP1 POP JUMP JUMPDEST PUSH1 0x0 DUP2 SWAP1 POP SWAP3 SWAP2 POP POP JUMP JUMPDEST PUSH1 0x0 DUP2 SWAP1 POP SWAP2 SWAP1 POP JUMP JUMPDEST PUSH1 0x0 DUP2 SWAP1 POP SWAP3 SWAP2 POP POP JUMP JUMPDEST PUSH2 0x11FA DUP2 PUSH2 0x111B JUMP JUMPDEST PUSH2 0x1204 DUP2 DUP5 PUSH2 0x11E6 JUMP JUMPDEST SWAP3 POP PUSH2 0x120F DUP3 PUSH2 0x1131 JUMP JUMPDEST DUP1 PUSH1 0x0 JUMPDEST DUP4 DUP2 LT ISZERO PUSH2 0x1240 JUMPI DUP2 MLOAD PUSH2 0x1227 DUP8 DUP3 PUSH2 0x114A JUMP JUMPDEST SWAP7 POP PUSH2 0x1232 DUP4 PUSH2 0x1162 JUMP JUMPDEST SWAP3 POP POP PUSH1 0x1 DUP2 ADD SWAP1 POP PUSH2 0x1213 JUMP JUMPDEST POP POP POP POP POP POP JUMP JUMPDEST PUSH1 0x0 PUSH2 0x1254 DUP4 DUP4 PUSH2 0x11F1 JUMP JUMPDEST PUSH1 0x40 DUP4 ADD SWAP1 POP SWAP3 SWAP2 POP POP JUMP JUMPDEST PUSH1 0x0 PUSH1 0x20 DUP3 ADD SWAP1 POP SWAP2 SWAP1 POP JUMP JUMPDEST PUSH2 0x1276 DUP2 PUSH2 0x11C6 JUMP JUMPDEST PUSH2 0x1280 DUP2 DUP5 PUSH2 0x11D1 JUMP JUMPDEST SWAP3 POP PUSH2 0x128B DUP3 PUSH2 0x11DC JUMP JUMPDEST DUP1 PUSH1 0x0 JUMPDEST DUP4 DUP2 LT ISZERO PUSH2 0x12BC JUMPI DUP2 MLOAD PUSH2 0x12A3 DUP8 DUP3 PUSH2 0x1248 JUMP JUMPDEST SWAP7 POP PUSH2 0x12AE DUP4 PUSH2 0x1260 JUMP JUMPDEST SWAP3 POP POP PUSH1 0x1 DUP2 ADD SWAP1 POP PUSH2 0x128F JUMP JUMPDEST POP POP POP POP POP POP JUMP JUMPDEST PUSH1 0x0 PUSH1 0x3 SWAP1 POP SWAP2 SWAP1 POP JUMP JUMPDEST PUSH1 0x0 DUP2 SWAP1 POP SWAP3 SWAP2 POP POP JUMP JUMPDEST PUSH1 0x0 DUP2 SWAP1 POP SWAP2 SWAP1 POP JUMP JUMPDEST PUSH1 0x0 PUSH1 0x20 DUP3 ADD SWAP1 POP SWAP2 SWAP1 POP JUMP JUMPDEST PUSH2 0x12FA DUP2 PUSH2 0x12C4 JUMP JUMPDEST PUSH2 0x1304 DUP2 DUP5 PUSH2 0x12CF JUMP JUMPDEST SWAP3 POP PUSH2 0x130F DUP3 PUSH2 0x12DA JUMP JUMPDEST DUP1 PUSH1 0x0 JUMPDEST DUP4 DUP2 LT ISZERO PUSH2 0x1340 JUMPI DUP2 MLOAD PUSH2 0x1327 DUP8 DUP3 PUSH2 0x114A JUMP JUMPDEST SWAP7 POP PUSH2 0x1332 DUP4 PUSH2 0x12E4 JUMP JUMPDEST SWAP3 POP POP PUSH1 0x1 DUP2 ADD SWAP1 POP PUSH2 0x1313 JUMP JUMPDEST POP POP POP POP POP POP JUMP JUMPDEST PUSH1 0x0 PUSH2 0x160 DUP3 ADD SWAP1 POP PUSH2 0x135E PUSH1 0x0 DUP4 ADD DUP8 PUSH2 0x116F JUMP JUMPDEST PUSH2 0x136B PUSH1 0x40 DUP4 ADD DUP7 PUSH2 0x126D JUMP JUMPDEST PUSH2 0x1378 PUSH1 0xC0 DUP4 ADD DUP6 PUSH2 0x116F JUMP JUMPDEST PUSH2 0x1386 PUSH2 0x100 DUP4 ADD DUP5 PUSH2 0x12F1 JUMP JUMPDEST SWAP6 SWAP5 POP POP POP POP POP JUMP JUMPDEST PUSH2 0x1398 DUP2 PUSH2 0xD85 JUMP JUMPDEST DUP2 EQ PUSH2 0x13A3 JUMPI PUSH1 0x0 DUP1 REVERT JUMPDEST POP JUMP JUMPDEST PUSH1 0x0 DUP2 MLOAD SWAP1 POP PUSH2 0x13B5 DUP2 PUSH2 0x138F JUMP JUMPDEST SWAP3 SWAP2 POP POP JUMP JUMPDEST PUSH1 0x0 PUSH1 0x20 DUP3 DUP5 SUB SLT ISZERO PUSH2 0x13D1 JUMPI PUSH2 0x13D0 PUSH2 0x999 JUMP JUMPDEST JUMPDEST PUSH1 0x0 PUSH2 0x13DF DUP5 DUP3 DUP6 ADD PUSH2 0x13A6 JUMP JUMPDEST SWAP2 POP POP SWAP3 SWAP2 POP POP JUMP JUMPDEST PUSH32 0x566F74696E6754616C6C793A20496E76616C6964205A4B2070726F6F66000000 PUSH1 0x0 DUP3 ADD MSTORE POP JUMP JUMPDEST PUSH1 0x0 PUSH2 0x141E PUSH1 0x1D DUP4 PUSH2 0xDBB JUMP JUMPDEST SWAP2 POP PUSH2 0x1429 DUP3 PUSH2 0x13E8 JUMP JUMPDEST PUSH1 0x20 DUP3 ADD SWAP1 POP SWAP2 SWAP1 POP JUMP JUMPDEST PUSH1 0x0 PUSH1 0x20 DUP3 ADD SWAP1 POP DUP2 DUP2 SUB PUSH1 0x0 DUP4 ADD MSTORE PUSH2 0x144D DUP2 PUSH2 0x1411 JUMP JUMPDEST SWAP1 POP SWAP2 SWAP1 POP JUMP JUMPDEST PUSH32 0x4E487B7100000000000000000000000000000000000000000000000000000000 PUSH1 0x0 MSTORE PUSH1 0x11 PUSH1 0x4 MSTORE PUSH1 0x24 PUSH1 0x0 REVERT JUMPDEST PUSH1 0x0 PUSH2 0x148E DUP3 PUSH2 0x8C1 JUMP JUMPDEST SWAP2 POP PUSH32 0xFFFFFFFFFFFFFFFFFFFFFFFFFFFFFFFFFFFFFFFFFFFFFFFFFFFFFFFFFFFFFFFF DUP3 SUB PUSH2 0x14C0 JUMPI PUSH2 0x14BF PUSH2 0x1454 JUMP JUMPDEST JUMPDEST PUSH1 0x1 DUP3 ADD SWAP1 POP SWAP2 SWAP1 POP JUMP JUMPDEST PUSH32 0x566F74696E6754616C6C793A2043616C6C6572206973206E6F7420746865206F PUSH1 0x0 DUP3 ADD MSTORE PUSH32 0x776E657200000000000000000000000000000000000000000000000000000000 PUSH1 0x20 DUP3 ADD MSTORE POP JUMP JUMPDEST PUSH1 0x0 PUSH2 0x1527 PUSH1 0x24 DUP4 PUSH2 0xDBB JUMP JUMPDEST SWAP2 POP PUSH2 0x1532 DUP3 PUSH2 0x14CB JUMP JUMPDEST PUSH1 0x40 DUP3 ADD SWAP1 POP SWAP2 SWAP1 POP JUMP JUMPDEST PUSH1 0x0 PUSH1 0x20 DUP3 ADD SWAP1 POP DUP2 DUP2 SUB PUSH1 0x0 DUP4 ADD MSTORE PUSH2 0x1556 DUP2 PUSH2 0x151A JUMP JUMPDEST SWAP1 POP SWAP2 SWAP1 POP JUMP JUMPDEST PUSH32 0x566F74696E6754616C6C793A204D65726B6C6520726F6F742063616E6E6F7420 PUSH1 0x0 DUP3 ADD MSTORE PUSH32 0x6265207A65726F00000000000000000000000000000000000000000000000000 PUSH1 0x20 DUP3 ADD MSTORE POP JUMP JUMPDEST PUSH1 0x0 PUSH2 0x15B9 PUSH1 0x27 DUP4 PUSH2 0xDBB JUMP JUMPDEST SWAP2 POP PUSH2 0x15C4 DUP3 PUSH2 0x155D JUMP JUMPDEST PUSH1 0x40 DUP3 ADD SWAP1 POP SWAP2 SWAP1 POP JUMP JUMPDEST PUSH1 0x0 PUSH1 0x20 DUP3 ADD SWAP1 POP DUP2 DUP2 SUB PUSH1 0x0 DUP4 ADD MSTORE PUSH2 0x15E8 DUP2 PUSH2 0x15AC JUMP JUMPDEST SWAP1 POP SWAP2 SWAP1 POP JUMP JUMPDEST PUSH32 0x566F74696E6754616C6C793A2053746172742074696D65206D75737420626520 PUSH1 0x0 DUP3 ADD MSTORE PUSH32 0x6265666F726520656E642074696D650000000000000000000000000000000000 PUSH1 0x20 DUP3 ADD MSTORE POP JUMP JUMPDEST PUSH1 0x0 PUSH2 0x164B PUSH1 0x2F DUP4 PUSH2 0xDBB JUMP JUMPDEST SWAP2 POP PUSH2 0x1656 DUP3 PUSH2 0x15EF JUMP JUMPDEST PUSH1 0x40 DUP3 ADD SWAP1 POP SWAP2 SWAP1 POP JUMP JUMPDEST PUSH1 0x0 PUSH1 0x20 DUP3 ADD SWAP1 POP DUP2 DUP2 SUB PUSH1 0x0 DUP4 ADD MSTORE PUSH2 0x167A DUP2 PUSH2 0x163E JUMP JUMPDEST SWAP1 POP SWAP2 SWAP1 POP JUMP JUMPDEST PUSH1 0x0 PUSH1 0x40 DUP3 ADD SWAP1 POP PUSH2 0x1696 PUSH1 0x0 DUP4 ADD DUP6 PUSH2 0x8CB JUMP JUMPDEST PUSH2 0x16A3 PUSH1 0x20 DUP4 ADD DUP5 PUSH2 0x8CB JUMP JUMPDEST SWAP4 SWAP3 POP POP POP JUMP INVALID LOG2 PUSH5 0x6970667358 0x22 SLT KECCAK256 0x5E 0xD0 0xAE PUSH14 0xB86DE03CF838D1E195AE48418C71 0xC PUSH25 0x28137F90A5A0B12F1E0BCBCB64736F6C634300081400330000 "},"methodIdentifiers":{"electionId()":"051364d4","merkleRoot()":"2eb4a7ab","numCandidates()":"5216509a","owner()":"8da5cb5b","setMerkleRoot(uint256)":"5d5e8875","setVotingPeriod(uint256,uint256)":"a15a36c7","submitTally(uint256[2],uint256[2][2],uint256[2],uint256[3])":"2c7d783b","usedNullifiers(uint256)":"aad24061","verifier()":"2b7ac3f3","voteCounts(uint256)":"3c3a220d","votingEndTime()":"1ea736e0","votingStartTime()":"2019a608"}}}}}