{"contracts/test/MockVerifier.sol":{"MockVerifier":{"abi":[{"inputs":[],"name":"result","outputs":[{"internalType":"bool","name":"","type":"bool"}],"stateMutability":"view","type":"function"},{"inputs":[{"internalType":"bool","name":"_result","type":"bool"}],"name":"setResult","outputs":[],"stateMutability":"nonpayable","type":"function"},{"inputs":[{"internalType":"uint256[2]","name":"","type":"uint256[2]"},{"internalType":"uint256[2][2]","name":"","type":"uint256[2][2]"},{"internalType":"uint256[2]","name":"","type":"uint256[2]"},{"internalType":"uint256[4]","name":"","type":"uint256[4]"}],"name":"verifyProof","outputs":[{"internalType":"bool","name":"","type":"bool"}],"stateMutability":"view","type":"function"}],"evm":{"bytecode":{"linkReferences":{},"object":"608060405260016000806101000a81548160ff02191690831515021790555034801561002a57600080fd5b506105148061003a6000396000f3fe608060405234801561001057600080fd5b50600436106100415760003560e01c80635fe8c13b146100465780636537214714610076578063f4b4dc2e14610094575b600080fd5b610060600480360381019061005b91906103e6565b6100b0565b60405161006d919061046a565b60405180910390f35b61007e6100cb565b60405161008b919061046a565b60405180910390f35b6100ae60048036038101906100a991906104b1565b6100dc565b005b60008060009054906101000a900460ff169050949350505050565b60008054906101000a900460ff1681565b806000806101000a81548160ff02191690831515021790555050565b6000604051905090565b600080fd5b600080fd5b6000601f19601f8301169050919050565b7f4e487b7100000000000000000000000000000000000000000000000000000000600052604160045260246000fd5b6101558261010c565b810181811067ffffffffffffffff821117156101745761017361011d565b5b80604052505050565b60006101876100f8565b9050610193828261014c565b919050565b600067ffffffffffffffff8211156101b3576101b261011d565b5b602082029050919050565b600080fd5b6000819050919050565b6101d6816101c3565b81146101e157600080fd5b50565b6000813590506101f3816101cd565b92915050565b600061020c61020784610198565b61017d565b90508060208402830185811115610226576102256101be565b5b835b8181101561024f578061023b88826101e4565b845260208401935050602081019050610228565b5050509392505050565b600082601f83011261026e5761026d610107565b5b600261027b8482856101f9565b91505092915050565b600067ffffffffffffffff82111561029f5761029e61011d565b5b602082029050919050565b60006102bd6102b884610284565b61017d565b905080604084028301858111156102d7576102d66101be565b5b835b8181101561030057806102ec8882610259565b8452602084019350506040810190506102d9565b5050509392505050565b600082601f83011261031f5761031e610107565b5b600261032c8482856102aa565b91505092915050565b600067ffffffffffffffff8211156103505761034f61011d565b5b602082029050919050565b600061036e61036984610335565b61017d565b90508060208402830185811115610388576103876101be565b5b835b818110156103b1578061039d88826101e4565b84526020840193505060208101905061038a565b5050509392505050565b600082601f8301126103d0576103cf610107565b5b60046103dd84828561035b565b91505092915050565b600080600080610180858703121561040157610400610102565b5b600061040f87828801610259565b94505060406104208782880161030a565b93505060c061043187828801610259565b925050610100610443878288016103bb565b91505092959194509250565b60008115159050919050565b6104648161044f565b82525050565b600060208201905061047f600083018461045b565b92915050565b61048e8161044f565b811461049957600080fd5b50565b6000813590506104ab81610485565b92915050565b6000602082840312156104c7576104c6610102565b5b60006104d58482850161049c565b9150509291505056fea26469706673582212205aabfaa62a062aa5efa5afa0f059c0d6ca7d5da58dcf707b4a7309c41f3e5dff64736f6c63430008140033","opcodes":"PUSH1 0x80 PUSH1 0x40 MSTORE PUSH1 0x1 PUSH1 0x0 DUP1 PUSH2 0x100 EXP DUP2 SLOAD DUP2 PUSH1 0xFF MUL NOT AND SWAP1 DUP4 ISZERO ISZERO MUL OR SWAP1 SSTORE POP CALLVALUE DUP1 ISZERO PUSH2 0x2A JUMPI PUSH1 0x0 DUP1 REVERT JUMPDEST POP PUSH2 0x514 DUP1 PUSH2 0x3A PUSH1 0x0 CODECOPY PUSH1 0x0 RETURN INVALID PUSH1 0x80 PUSH1 0x40 MSTORE CALLVALUE DUP1 ISZERO PUSH2 0x10 JUMPI PUSH1 0x0 DUP1 REVERT JUMPDEST POP PUSH1 0x4 CALLDATASIZE LT PUSH2 0x41 JUMPI PUSH1 0x0 CALLDATALOAD PUSH1 0xE0 SHR DUP1 PUSH4 0x5FE8C13B EQ PUSH2 0x46 JUMPI DUP1 PUSH4 0x65372147 EQ PUSH2 0x76 JUMPI DUP1 PUSH4 0xF4B4DC2E EQ PUSH2 0x94 JUMPI JUMPDEST PUSH1 0x0 DUP1 REVERT JUMPDEST PUSH2 0x60 PUSH1 0x4 DUP1 CALLDATASIZE SUB DUP2 ADD SWAP1 PUSH2 0x5B SWAP2 SWAP1 PUSH2 0x3E6 JUMP JUMPDEST PUSH2 0xB0 JUMP JUMPDEST PUSH1 0x40 MLOAD PUSH2 0x6D SWAP2 SWAP1 PUSH2 0x46A JUMP JUMPDEST PUSH1 0x40 MLOAD DUP1 SWAP2 SUB SWAP1 RETURN JUMPDEST PUSH2 0x7E PUSH2 0xCB JUMP JUMPDEST PUSH1 0x40 MLOAD PUSH2 0x8B SWAP2 SWAP1 PUSH2 0x46A JUMP JUMPDEST PUSH1 0x40 MLOAD DUP1 SWAP2 SUB SWAP1 RETURN JUMPDEST PUSH2 0xAE PUSH1 0x4 DUP1 CALLDATASIZE SUB DUP2 ADD SWAP1 PUSH2 0xA9 SWAP2 SWAP1 PUSH2 0x4B1 JUMP JUMPDEST PUSH2 0xDC JUMP JUMPDEST STOP JUMPDEST PUSH1 0x0 DUP1 PUSH1 0x0 SWAP1 SLOAD SWAP1 PUSH2 0x100 EXP SWAP1 DIV PUSH1 0xFF AND SWAP1 POP SWAP5 SWAP4 POP POP POP POP JUMP JUMPDEST PUSH1 0x0 DUP1 SLOAD SWAP1 PUSH2 0x100 EXP SWAP1 DIV PUSH1 0xFF AND DUP2 JUMP JUMPDEST DUP1 PUSH1 0x0 DUP1 PUSH2 0x100 EXP DUP2 SLOAD DUP2 PUSH1 0xFF MUL NOT AND SWAP1 DUP4 ISZERO ISZERO MUL OR SWAP1 SSTORE POP POP JUMP JUMPDEST PUSH1 0x0 PUSH1 0x40 MLOAD SWAP1 POP SWAP1 JUMP JUMPDEST PUSH1 0x0 DUP1 REVERT JUMPDEST PUSH1 0x0 DUP1 REVERT JUMPDEST PUSH1 0x0 PUSH1 0x1F NOT PUSH1 0x1F DUP4 ADD AND SWAP1 POP SWAP2 SWAP1 POP JUMP JUMPDEST PUSH32 0x4E487B7100000000000000000000000000000000000000000000000000000000 PUSH1 0x0 MSTORE PUSH1 0x41 PUSH1 0x4 MSTORE PUSH1 0x24 PUSH1 0x0 REVERT JUMPDEST PUSH2 0x155 DUP3 PUSH2 0x10C JUMP JUMPDEST DUP2 ADD DUP2 DUP2 LT PUSH8 0xFFFFFFFFFFFFFFFF DUP3 GT OR ISZERO PUSH2 0x174 JUMPI PUSH2 0x173 PUSH2 0x11D JUMP JUMPDEST JUMPDEST DUP1 PUSH1 0x40 MSTORE POP POP POP JUMP JUMPDEST PUSH1 0x0 PUSH2 0x187 PUSH2 0xF8 JUMP JUMPDEST SWAP1 POP PUSH2 0x193 DUP3 DUP3 PUSH2 0x14C JUMP JUMPDEST SWAP2 SWAP1 POP JUMP JUMPDEST PUSH1 0x0 PUSH8 0xFFFFFFFFFFFFFFFF DUP3 GT ISZERO PUSH2 0x1B3 JUMPI PUSH2 0x1B2 PUSH2 0x11D JUMP JUMPDEST JUMPDEST PUSH1 0x20 DUP3 MUL SWAP1 POP SWAP2 SWAP1 POP JUMP JUMPDEST PUSH1 0x0 DUP1 REVERT JUMPDEST PUSH1 0x0 DUP2 SWAP1 POP SWAP2 SWAP1 POP JUMP JUMPDEST PUSH2 0x1D6 DUP2 PUSH2 0x1C3 JUMP JUMPDEST DUP2 EQ PUSH2 0x1E1 JUMPI PUSH1 0x0 DUP1 REVERT JUMPDEST POP JUMP JUMPDEST PUSH1 0x0 DUP2 CALLDATALOAD SWAP1 POP PUSH2 0x1F3 DUP2 PUSH2 0x1CD JUMP JUMPDEST SWAP3 SWAP2 POP POP JUMP JUMPDEST PUSH1 0x0 PUSH2 0x20C PUSH2 0x207 DUP5 PUSH2 0x198 JUMP JUMPDEST PUSH2 0x17D JUMP JUMPDEST SWAP1 POP DUP1 PUSH1 0x20 DUP5 MUL DUP4 ADD DUP6 DUP2 GT ISZERO PUSH2 0x226 JUMPI PUSH2 0x225 PUSH2 0x1BE JUMP JUMPDEST JUMPDEST DUP4 JUMPDEST DUP2 DUP2 LT ISZERO PUSH2 0x24F JUMPI DUP1 PUSH2 0x23B DUP9 DUP3 PUSH2 0x1E4 JUMP JUMPDEST DUP5 MSTORE PUSH1 0x20 DUP5 ADD SWAP4 POP POP PUSH1 0x20 DUP2 ADD SWAP1 POP PUSH2 0x228 JUMP JUMPDEST POP POP POP SWAP4 SWAP3 POP POP POP JUMP JUMPDEST PUSH1 0x0 DUP3 PUSH1 0x1F DUP4 ADD SLT PUSH2 0x26E JUMPI PUSH2 0x26D PUSH2 0x107 JUMP JUMPDEST JUMPDEST PUSH1 0x2 PUSH2 0x27B DUP5 DUP3 DUP6 PUSH2 0x1F9 JUMP JUMPDEST SWAP2 POP POP SWAP3 SWAP2 POP POP JUMP JUMPDEST PUSH1 0x0 PUSH8 0xFFFFFFFFFFFFFFFF DUP3 GT ISZERO PUSH2 0x29F JUMPI PUSH2 0x29E PUSH2 0x11D JUMP JUMPDEST JUMPDEST PUSH1 0x20 DUP3 MUL SWAP1 POP SWAP2 SWAP1 POP JUMP JUMPDEST PUSH1 0x0 PUSH2 0x2BD PUSH2 0x2B8 DUP5 PUSH2 0x284 JUMP JUMPDEST PUSH2 0x17D JUMP JUMPDEST SWAP1 POP DUP1 PUSH1 0x40 DUP5 MUL DUP4 ADD DUP6 DUP2 GT ISZERO PUSH2 0x2D7 JUMPI PUSH2 0x2D6 PUSH2 0x1BE JUMP JUMPDEST JUMPDEST DUP4 JUMPDEST DUP2 DUP2 LT ISZERO PUSH2 0x300 JUMPI DUP1 PUSH2 0x2EC DUP9 DUP3 PUSH2 0x259 JUMP JUMPDEST DUP5 MSTORE PUSH1 0x20 DUP5 ADD SWAP4 POP POP PUSH1 0x40 DUP2 ADD SWAP1 POP PUSH2 0x2D9 JUMP JUMPDEST POP POP POP SWAP4 SWAP3 POP POP POP JUMP JUMPDEST PUSH1 0x0 DUP3 PUSH1 0x1F DUP4 ADD SLT PUSH2 0x31F JUMPI PUSH2 0x31E PUSH2 0x107 JUMP JUMPDEST JUMPDEST PUSH1 0x2 PUSH2 0x32C DUP5 DUP3 DUP6 PUSH2 0x2AA JUMP JUMPDEST SWAP2 POP POP SWAP3 SWAP2 POP POP JUMP JUMPDEST PUSH1 0x0 PUSH8 0xFFFFFFFFFFFFFFFF DUP3 GT ISZERO PUSH2 0x350 JUMPI PUSH2 0x34F PUSH2 0x11D JUMP JUMPDEST JUMPDEST PUSH1 0x20 DUP3 MUL SWAP1 POP SWAP2 SWAP1 POP JUMP JUMPDEST PUSH1 0x0 PUSH2 0x36E PUSH2 0x369 DUP5 PUSH2 0x335 JUMP JUMPDEST PUSH2 0x17D JUMP JUMPDEST SWAP1 POP DUP1 PUSH1 0x20 DUP5 MUL DUP4 ADD DUP6 DUP2 GT ISZERO PUSH2 0x388 JUMPI PUSH2 0x387 PUSH2 0x1BE JUMP JUMPDEST JUMPDEST DUP4 JUMPDEST DUP2 DUP2 LT ISZERO PUSH2 0x3B1 JUMPI DUP1 PUSH2 0x39D DUP9 DUP3 PUSH2 0x1E4 JUMP JUMPDEST DUP5 MSTORE PUSH1 0x20 DUP5 ADD SWAP4 POP POP PUSH1 0x20 DUP2 ADD SWAP1 POP PUSH2 0x38A JUMP JUMPDEST POP POP POP SWAP4 SWAP3 POP POP POP JUMP JUMPDEST PUSH1 0x0 DUP3 PUSH1 0x1F DUP4 ADD SLT PUSH2 0x3D0 JUMPI PUSH2 0x3CF PUSH2 0x107 JUMP JUMPDEST JUMPDEST PUSH1 0x4 PUSH2 0x3DD DUP5 DUP3 DUP6 PUSH2 0x35B JUMP JUMPDEST SWAP2 POP POP SWAP3 SWAP2 POP POP JUMP JUMPDEST PUSH1 0x0 DUP1 PUSH1 0x0 DUP1 PUSH2 0x180 DUP6 DUP8 SUB SLT ISZERO PUSH2 0x401 JUMPI PUSH2 0x400 PUSH2 0x102 JUMP JUMPDEST JUMPDEST PUSH1 0x0 PUSH2 0x40F DUP8 DUP3 DUP9 ADD PUSH2 0x259 JUMP JUMPDEST SWAP5 POP POP PUSH1 0x40 PUSH2 0x420 DUP8 DUP3 DUP9 ADD PUSH2 0x30A JUMP JUMPDEST SWAP4 POP POP PUSH1 0xC0 PUSH2 0x431 DUP8 DUP3 DUP9 ADD PUSH2 0x259 JUMP JUMPDEST SWAP3 POP POP PUSH2 0x100 PUSH2 0x443 DUP8 DUP3 DUP9 ADD PUSH2 0x3BB JUMP JUMPDEST SWAP2 POP POP SWAP3 SWAP6 SWAP2 SWAP5 POP SWAP3 POP JUMP JUMPDEST PUSH1 0x0 DUP2 ISZERO ISZERO SWAP1 POP SWAP2 SWAP1 POP JUMP JUMPDEST PUSH2 0x464 DUP2 PUSH2 0x44F JUMP JUMPDEST DUP3 MSTORE POP POP JUMP JUMPDEST PUSH1 0x0 PUSH1 0x20 DUP3 ADD SWAP1 POP PUSH2 0x47F PUSH1 0x0 DUP4 ADD DUP5 PUSH2 0x45B JUMP JUMPDEST SWAP3 SWAP2 POP POP JUMP JUMPDEST PUSH2 0x48E DUP2 PUSH2 0x44F JUMP JUMPDEST DUP2 EQ PUSH2 0x499 JUMPI PUSH1 0x0 DUP1 REVERT JUMPDEST POP JUMP JUMPDEST PUSH1 0x0 DUP2 CALLDATALOAD SWAP1 POP PUSH2 0x4AB DUP2 PUSH2 0x485 JUMP JUMPDEST SWAP3 SWAP2 POP POP JUMP JUMPDEST PUSH1 0x0 PUSH1 0x20 DUP3 DUP5 SUB SLT ISZERO PUSH2 0x4C7 JUMPI PUSH2 0x4C6 PUSH2 0x102 JUMP JUMPDEST JUMPDEST PUSH1 0x0 PUSH2 0x4D5 DUP5 DUP3 DUP6 ADD PUSH2 0x49C JUMP JUMPDEST SWAP2 POP POP SWAP3 SWAP2 POP POP JUMP INVALID LOG2 PUSH5 0x6970667358 0x22 SLT KECCAK256 GAS 0xAB STATICCALL 0xA6 0x2A MOD 0x2A 0xA5 0xEF 0xA5 0xAF LOG0 CREATE MSIZE 0xC0 0xD6 0xCA PUSH30 0x5DA58DCF707B4A7309C41F3E5DFF64736F6C634300081400330000000000 "},"methodIdentifiers":{"result()":"65372147","setResult(bool)":"f4b4dc2e","verifyProof(uint256[2],uint256[2][2],uint256[2],uint256[4])":"5fe8c13b"}}}}}