{"contracts/VotingTally.sol":{"VotingTally":{"abi":[{"inputs":[{"internalType":"address","name":"_verifierAddress","type":"address"},{"internalType":"uint256","name":"_electionId","type":"uint256"},{"internalType":"uint256","name":"_numCandidates","type":"uint256"}],"stateMutability":"nonpayable","type":"constructor"},{"anonymous":false,"inputs":[{"indexed":false,"internalType":"uint256","name":"root","type":"uint256"},{"indexed":false,"internalType":"uint256","name":"startTime","type":"uint256"},{"indexed":false,"internalType":"uint256","name":"endTime","type":"uint256"}],"name":"ElectionConfigured","type":"event"},{"anonymous":false,"inputs":[{"indexed":false,"internalType":"uint256","name":"root","type":"uint256"}],"name":"MerkleRootSet","type":"event"},{"anonymous":false,"inputs":[{"indexed":true,"internalType":"uint256","name":"electionId","type":"uint256"},{"indexed":true,"internalType":"uint256","name":"candidateIndex","type":"uint256"}],"name":"VoteCast","type":"event"},{"anonymous":false,"inputs":[{"indexed":false,"internalType":"uint256","name":"startTime","type":"uint256"},{"indexed":false,"internalType":"uint256","name":"endTime","type":"uint256"}],"name":"VotingPeriodSet","type":"event"},{"inputs":[{"internalType":"uint256","name":"_root","type":"uint256"},{"internalType":"uint256","name":"_startTime","type":"uint256"},{"internalType":"uint256","name":"_endTime","type":"uint256"}],"name":"configureElection","outputs":[],"stateMutability":"nonpayable","type":"function"},{"inputs":[],"name":"configured","outputs":[{"internalType":"bool","name":"","type":"bool"}],"stateMutability":"view","type":"function"},{"inputs":[],"name":"electionId","outputs":[{"internalType":"uint256","name":"","type":"uint256"}],"stateMutability":"view","type":"function"},{"inputs":[],"name":"merkleRoot","outputs":[{"internalType":"uint256","name":"","type":"uint256"}],"stateMutability":"view","type":"function"},{"inputs":[],"name":"numCandidates","outputs":[{"internalType":"uint256","name":"","type":"uint256"}],"stateMutability":"view","type":"function"},{"inputs":[],"name":"owner","outputs":[{"internalType":"address","name":"","type":"address"}],"stateMutability":"view","type":"function"},{"inputs":[{"internalType":"uint256","name":"_root","type":"uint256"}],"name":"setMerkleRoot","outputs":[],"stateMutability":"nonpayable","type":"function"},{"inputs":[{"internalType":"uint256","name":"_startTime","type":"uint256"},{"internalType":"uint256","name":"_endTime","type":"uint256"}],"name":"setVotingPeriod","outputs":[],"stateMutability":"nonpayable","type":"function"},{"inputs":[{"internalType":"uint256[2]","name":"a","type":"uint256[2]"},{"internalType":"uint256[2][2]","name":"b","type":"uint256[2][2]"},{"internalType":"uint256[2]","name":"c","type":"uint256[2]"},{"internalType":"uint256[4]","name":"publicInputs","type":"uint256[4]"}],"name":"submitTally","outputs":[],"stateMutability":"nonpayable","type":"function"},{"inputs":[{"internalType":"uint256","name":"","type":"uint256"}],"name":"usedNullifiers","outputs":[{"internalType":"bool","name":"","type":"bool"}],"stateMutability":"view","type":"function"},{"inputs":[],"name":"verifier","outputs":[{"internalType":"contract IVerifier","name":"","type":"address"}],"stateMutability":"view","type":"function"},{"inputs":[{"internalType":"uint256","name":"","type":"uint256"}],"name":"voteCounts","outputs":[{"internalType":"uint256","name":"","type":"uint256"}],"stateMutability":"view","type":"function"},{"inputs":[],"name":"votingEndTime","outputs":[{"internalType":"uint256","name":"","type":"uint256"}],"stateMutability":"view","type":"function"},{"inputs":[],"name":"votingStartTime","outputs":[{"internalType":"uint256","name":"","type":"uint256"}],"stateMutability":"view","type":"function"}],"evm":{"bytecode":{"linkReferences":{},"object":"60c06040523480156200001157600080fd5b5060405162001fc338038062001fc3833981810160405281019062000037919062000168565b336000806101000a81548173ffffffffffffffffffffffffffffffffffffffff021916908373ffffffffffffffffffffffffffffffffffffffff1602179055508273ffffffffffffffffffffffffffffffffffffffff1660808173ffffffffffffffffffffffffffffffffffffffff16815250508160a0818152505080600481905550505050620001c4565b600080fd5b600073ffffffffffffffffffffffffffffffffffffffff82169050919050565b6000620000f582620000c8565b9050919050565b6200010781620000e8565b81146200011357600080fd5b50565b6000815190506200012781620000fc565b92915050565b6000819050919050565b62000142816200012d565b81146200014e57600080fd5b50565b600081519050620001628162000137565b92915050565b600080600060608486031215620001845762000183620000c3565b5b6000620001948682870162000116565b9350506020620001a78682870162000151565b9250506040620001ba8682870162000151565b9150509250925092565b60805160a051611dc4620001ff600039600081816102b1015281816103ff015261069201526000818161055a01526106f40152611dc46000f3fe608060405234801561001057600080fd5b50600436106100ea5760003560e01c80635216509a1161008c5780638772a23a116100665780638772a23a146102275780638da5cb5b14610245578063a15a36c714610263578063aad240611461027f576100ea565b80635216509a146101d15780635d5e8875146101ef5780638176efb11461020b576100ea565b80632019a608116100c85780632019a608146101475780632b7ac3f3146101655780632eb4a7ab146101835780633c3a220d146101a1576100ea565b8063051364d4146100ef578063052bb8381461010d5780631ea736e014610129575b600080fd5b6100f76102af565b6040516101049190610da4565b60405180910390f35b610127600480360381019061012291906110a3565b6102d3565b005b6101316106e6565b60405161013e9190610da4565b60405180910390f35b61014f6106ec565b60405161015c9190610da4565b60405180910390f35b61016d6106f2565b60405161017a919061118b565b60405180910390f35b61018b610716565b6040516101989190610da4565b60405180910390f35b6101bb60048036038101906101b691906111a6565b61071c565b6040516101c89190610da4565b60405180910390f35b6101d9610734565b6040516101e69190610da4565b60405180910390f35b610209600480360381019061020491906111a6565b61073a565b005b610225600480360381019061022091906111d3565b6108e1565b005b61022f610b69565b60405161023c9190611241565b60405180910390f35b61024d610b7c565b60405161025a919061127d565b60405180910390f35b61027d60048036038101906102789190611298565b610ba0565b005b610299600480360381019061029491906111a6565b610d6b565b6040516102a69190611241565b60405180910390f35b7f000000000000000000000000000000000000000000000000000000000000000081565b600254421015610318576040517f08c379a000000000000000000000000000000000000000000000000000000000815260040161030f9061135b565b60405180910390fd5b600354421061035c576040517f08c379a0000000000000000000000000000000000000000000000000000000008152600401610353906113c7565b60405180910390fd5b6000600154036103a1576040517f08c379a000000000000000000000000000000000000000000000000000000000815260040161039890611459565b60405180910390fd5b600154816000600481106103b8576103b7611479565b5b6020020151146103fd576040517f08c379a00000000000000000000000000000000000000000000000000000000081526004016103f4906114f4565b60405180910390fd5b7f00000000000000000000000000000000000000000000000000000000000000008160036004811061043257610431611479565b5b602002015114610477576040517f08c379a000000000000000000000000000000000000000000000000000000000815260040161046e90611560565b60405180910390fd5b60008160026004811061048d5761048c611479565b5b602002015190506007600082815260200190815260200160002060009054906101000a900460ff16156104f5576040517f08c379a00000000000000000000000000000000000000000000000000000000081526004016104ec906115f2565b60405180910390fd5b60008260016004811061050b5761050a611479565b5b602002015190506004548110610556576040517f08c379a000000000000000000000000000000000000000000000000000000000815260040161054d90611684565b60405180910390fd5b60007f000000000000000000000000000000000000000000000000000000000000000073ffffffffffffffffffffffffffffffffffffffff16635fe8c13b888888886040518563ffffffff1660e01b81526004016105b794939291906118d1565b602060405180830381865afa1580156105d4573d6000803e3d6000fd5b505050506040513d601f19601f820116820180604052508101906105f89190611944565b90508061063a576040517f08c379a0000000000000000000000000000000000000000000000000000000008152600401610631906119bd565b60405180910390fd5b60016007600085815260200190815260200160002060006101000a81548160ff02191690831515021790555060066000838152602001908152602001600020600081548092919061068a90611a0c565b9190505550817f00000000000000000000000000000000000000000000000000000000000000007fc31875ef3ed5138b71a0c1da7e494bc4d2ba4f567084ea481ec9c45f3a93948b60405160405180910390a350505050505050565b60035481565b60025481565b7f000000000000000000000000000000000000000000000000000000000000000081565b60015481565b60066020528060005260406000206000915090505481565b60045481565b60008054906101000a900473ffffffffffffffffffffffffffffffffffffffff1673ffffffffffffffffffffffffffffffffffffffff163373ffffffffffffffffffffffffffffffffffffffff16146107c8576040517f08c379a00000000000000000000000000000000000000000000000000000000081526004016107bf90611ac6565b60405180910390fd5b600560009054906101000a900460ff1615610818576040517f08c379a000000000000000000000000000000000000000000000000000000000815260040161080f90611b58565b60405180910390fd5b60006001541461085d576040517f08c379a000000000000000000000000000000000000000000000000000000000815260040161085490611bea565b60405180910390fd5b600081036108a0576040517f08c379a000000000000000000000000000000000000000000000000000000000815260040161089790611c7c565b60405180910390fd5b806001819055507f6e5a142e5c3c536ce6cdc71895fc55c97df6ad3432cd3759a9f784ca35ff447e816040516108d69190610da4565b60405180910390a150565b60008054906101000a900473ffffffffffffffffffffffffffffffffffffffff1673ffffffffffffffffffffffffffffffffffffffff163373ffffffffffffffffffffffffffffffffffffffff161461096f576040517f08c379a000000000000000000000000000000000000000000000000000000000815260040161096690611ac6565b60405180910390fd5b600560009054906101000a900460ff16156109bf576040517f08c379a00000000000000000000000000000000000000000000000000000000081526004016109b690611b58565b60405180910390fd5b600060015414610a04576040517f08c379a00000000000000000000000000000000000000000000000000000000081526004016109fb90611bea565b60405180910390fd5b60008303610a47576040517f08c379a0000000000000000000000000000000000000000000000000000000008152600401610a3e90611c7c565b60405180910390fd5b808210610a89576040517f08c379a0000000000000000000000000000000000000000000000000000000008152600401610a8090611d0e565b60405180910390fd5b8260018190555081600281905550806003819055506001600560006101000a81548160ff0219169083151502179055507f6e5a142e5c3c536ce6cdc71895fc55c97df6ad3432cd3759a9f784ca35ff447e83604051610ae89190610da4565b60405180910390a17f7e3f7f0708a84de9203036abaa450dccc85ad5ff52f78c170f3edb55cf5e88288282604051610b21929190611d2e565b60405180910390a17f8ef79dba3c82e8c1e27029879be1abfc2387bdab779e0c0d02c17aee8d70d7ac838383604051610b5c93929190611d57565b60405180910390a1505050565b600560009054906101000a900460ff1681565b60008054906101000a900473ffffffffffffffffffffffffffffffffffffffff1681565b60008054906101000a900473ffffffffffffffffffffffffffffffffffffffff1673ffffffffffffffffffffffffffffffffffffffff163373ffffffffffffffffffffffffffffffffffffffff1614610c2e576040517f08c379a0000000000000000000000000000000000000000000000000000000008152600401610c2590611ac6565b60405180910390fd5b600560009054906101000a900460ff1615610c7e576040517f08c379a0000000000000000000000000000000000000000000000000000000008152600401610c7590611b58565b60405180910390fd5b600060015403610cc3576040517f08c379a0000000000000000000000000000000000000000000000000000000008152600401610cba90611459565b60405180910390fd5b808210610d05576040517f08c379a0000000000000000000000000000000000000000000000000000000008152600401610cfc90611d0e565b60405180910390fd5b81600281905550806003819055506001600560006101000a81548160ff0219169083151502179055507f7e3f7f0708a84de9203036abaa450dccc85ad5ff52f78c170f3edb55cf5e88288282604051610d5f929190611d2e565b60405180910390a15050565b60076020528060005260406000206000915054906101000a900460ff1681565b6000819050919050565b610d9e81610d8b565b82525050565b6000602082019050610db96000830184610d95565b92915050565b6000604051905090565b600080fd5b600080fd5b6000601f19601f8301169050919050565b7f4e487b7100000000000000000000000000000000000000000000000000000000600052604160045260246000fd5b610e1c82610dd3565b810181811067ffffffffffffffff82111715610e3b57610e3a610de4565b5b80604052505050565b6000610e4e610dbf565b9050610e5a8282610e13565b919050565b600067ffffffffffffffff821115610e7a57610e79610de4565b5b602082029050919050565b600080fd5b610e9381610d8b565b8114610e9e57600080fd5b50565b600081359050610eb081610e8a565b92915050565b6000610ec9610ec484610e5f565b610e44565b90508060208402830185811115610ee357610ee2610e85565b5b835b81811015610f0c5780610ef88882610ea1565b845260208401935050602081019050610ee5565b5050509392505050565b600082601f830112610f2b57610f2a610dce565b5b6002610f38848285610eb6565b91505092915050565b600067ffffffffffffffff821115610f5c57610f5b610de4565b5b602082029050919050565b6000610f7a610f7584610f41565b610e44565b90508060408402830185811115610f9457610f93610e85565b5b835b81811015610fbd5780610fa98882610f16565b845260208401935050604081019050610f96565b5050509392505050565b600082601f830112610fdc57610fdb610dce565b5b6002610fe9848285610f67565b91505092915050565b600067ffffffffffffffff82111561100d5761100c610de4565b5b602082029050919050565b600061102b61102684610ff2565b610e44565b9050806020840283018581111561104557611044610e85565b5b835b8181101561106e578061105a8882610ea1565b845260208401935050602081019050611047565b5050509392505050565b600082601f83011261108d5761108c610dce565b5b600461109a848285611018565b91505092915050565b60008060008061018085870312156110be576110bd610dc9565b5b60006110cc87828801610f16565b94505060406110dd87828801610fc7565b93505060c06110ee87828801610f16565b92505061010061110087828801611078565b91505092959194509250565b600073ffffffffffffffffffffffffffffffffffffffff82169050919050565b6000819050919050565b600061115161114c6111478461110c565b61112c565b61110c565b9050919050565b600061116382611136565b9050919050565b600061117582611158565b9050919050565b6111858161116a565b82525050565b60006020820190506111a0600083018461117c565b92915050565b6000602082840312156111bc576111bb610dc9565b5b60006111ca84828501610ea1565b91505092915050565b6000806000606084860312156111ec576111eb610dc9565b5b60006111fa86828701610ea1565b935050602061120b86828701610ea1565b925050604061121c86828701610ea1565b9150509250925092565b60008115159050919050565b61123b81611226565b82525050565b60006020820190506112566000830184611232565b92915050565b60006112678261110c565b9050919050565b6112778161125c565b82525050565b6000602082019050611292600083018461126e565b92915050565b600080604083850312156112af576112ae610dc9565b5b60006112bd85828601610ea1565b92505060206112ce85828601610ea1565b9150509250929050565b600082825260208201905092915050565b7f566f74696e6754616c6c793a20566f74696e6720686173206e6f74207374617260008201527f7465642079657400000000000000000000000000000000000000000000000000602082015250565b60006113456027836112d8565b9150611350826112e9565b604082019050919050565b6000602082019050818103600083015261137481611338565b9050919050565b7f566f74696e6754616c6c793a20566f74696e672068617320656e646564000000600082015250565b60006113b1601d836112d8565b91506113bc8261137b565b602082019050919050565b600060208201905081810360008301526113e0816113a4565b9050919050565b7f566f74696e6754616c6c793a204d65726b6c6520726f6f74206973206e6f742060008201527f7365740000000000000000000000000000000000000000000000000000000000602082015250565b60006114436023836112d8565b915061144e826113e7565b604082019050919050565b6000602082019050818103600083015261147281611436565b9050919050565b7f4e487b7100000000000000000000000000000000000000000000000000000000600052603260045260246000fd5b7f566f74696e6754616c6c793a20496e76616c6964204d65726b6c6520726f6f74600082015250565b60006114de6020836112d8565b91506114e9826114a8565b602082019050919050565b6000602082019050818103600083015261150d816114d1565b9050919050565b7f566f74696e6754616c6c793a20496e76616c696420656c656374696f6e206964600082015250565b600061154a6020836112d8565b915061155582611514565b602082019050919050565b600060208201905081810360008301526115798161153d565b9050919050565b7f566f74696e6754616c6c793a205468697320766f74652068617320616c72656160008201527f6479206265656e20636173740000000000000000000000000000000000000000602082015250565b60006115dc602c836112d8565b91506115e782611580565b604082019050919050565b6000602082019050818103600083015261160b816115cf565b9050919050565b7f566f74696e6754616c6c793a20496e76616c69642063616e646964617465206960008201527f6e64657800000000000000000000000000000000000000000000000000000000602082015250565b600061166e6024836112d8565b915061167982611612565b604082019050919050565b6000602082019050818103600083015261169d81611661565b9050919050565b600060029050919050565b600081905092915050565b6000819050919050565b6116cd81610d8b565b82525050565b60006116df83836116c4565b60208301905092915050565b6000602082019050919050565b611701816116a4565b61170b81846116af565b9250611716826116ba565b8060005b8381101561174757815161172e87826116d3565b9650611739836116eb565b92505060018101905061171a565b505050505050565b600060029050919050565b600081905092915050565b6000819050919050565b600081905092915050565b611783816116a4565b61178d818461176f565b9250611798826116ba565b8060005b838110156117c95781516117b087826116d3565b96506117bb836116eb565b92505060018101905061179c565b505050505050565b60006117dd838361177a565b60408301905092915050565b6000602082019050919050565b6117ff8161174f565b611809818461175a565b925061181482611765565b8060005b8381101561184557815161182c87826117d1565b9650611837836117e9565b925050600181019050611818565b505050505050565b600060049050919050565b600081905092915050565b6000819050919050565b6000602082019050919050565b6118838161184d565b61188d8184611858565b925061189882611863565b8060005b838110156118c95781516118b087826116d3565b96506118bb8361186d565b92505060018101905061189c565b505050505050565b6000610180820190506118e760008301876116f8565b6118f460408301866117f6565b61190160c08301856116f8565b61190f61010083018461187a565b95945050505050565b61192181611226565b811461192c57600080fd5b50565b60008151905061193e81611918565b92915050565b60006020828403121561195a57611959610dc9565b5b60006119688482850161192f565b91505092915050565b7f566f74696e6754616c6c793a20496e76616c6964205a4b2070726f6f66000000600082015250565b60006119a7601d836112d8565b91506119b282611971565b602082019050919050565b600060208201905081810360008301526119d68161199a565b9050919050565b7f4e487b7100000000000000000000000000000000000000000000000000000000600052601160045260246000fd5b6000611a1782610d8b565b91507fffffffffffffffffffffffffffffffffffffffffffffffffffffffffffffffff8203611a4957611a486119dd565b5b600182019050919050565b7f566f74696e6754616c6c793a2043616c6c6572206973206e6f7420746865206f60008201527f776e657200000000000000000000000000000000000000000000000000000000602082015250565b6000611ab06024836112d8565b9150611abb82611a54565b604082019050919050565b60006020820190508181036000830152611adf81611aa3565b9050919050565b7f566f74696e6754616c6c793a20456c656374696f6e20616c726561647920636f60008201527f6e66696775726564000000000000000000000000000000000000000000000000602082015250565b6000611b426028836112d8565b9150611b4d82611ae6565b604082019050919050565b60006020820190508181036000830152611b7181611b35565b9050919050565b7f566f74696e6754616c6c793a204d65726b6c6520726f6f7420616c726561647960008201527f2073657400000000000000000000000000000000000000000000000000000000602082015250565b6000611bd46024836112d8565b9150611bdf82611b78565b604082019050919050565b60006020820190508181036000830152611c0381611bc7565b9050919050565b7f566f74696e6754616c6c793a204d65726b6c6520726f6f742063616e6e6f742060008201527f6265207a65726f00000000000000000000000000000000000000000000000000602082015250565b6000611c666027836112d8565b9150611c7182611c0a565b604082019050919050565b60006020820190508181036000830152611c9581611c59565b9050919050565b7f566f74696e6754616c6c793a2053746172742074696d65206d7573742062652060008201527f6265666f726520656e642074696d650000000000000000000000000000000000602082015250565b6000611cf8602f836112d8565b9150611d0382611c9c565b604082019050919050565b60006020820190508181036000830152611d2781611ceb565b9050919050565b6000604082019050611d436000830185610d95565b611d506020830184610d95565b9392505050565b6000606082019050611d6c6000830186610d95565b611d796020830185610d95565b611d866040830184610d95565b94935050505056fea26469706673582212204bc3195ba05588557ad3741637d146ebae9f87556f24aa661a12aaaba2e8884064736f6c63430008140033","opcodes":"PUSH1 0xC0 PUSH1 0x40 MSTORE CALLVALUE DUP1 ISZERO PUSH3 0x11 JUMPI PUSH1 0x0 DUP1 REVERT JUMPDEST POP PUSH1 0x40 MLOAD PUSH3 0x1FC3 CODESIZE SUB DUP1 PUSH3 0x1FC3 DUP4 CODECOPY DUP2 DUP2 ADD PUSH1 0x40 MSTORE DUP2 ADD SWAP1 PUSH3 0x37 SWAP2 SWAP1 PUSH3 0x168 JUMP JUMPDEST CALLER PUSH1 0x0 DUP1 PUSH2 0x100 EXP DUP2 SLOAD DUP2 PUSH20 0xFFFFFFFFFFFFFFFFFFFFFFFFFFFFFFFFFFFFFFFF MUL NOT AND SWAP1 DUP4 PUSH20 0xFFFFFFFFFFFFFFFFFFFFFFFFFFFFFFFFFFFFFFFF AND MUL OR SWAP1 SSTORE POP DUP3 PUSH20 0xFFFFFFFFFFFFFFFFFFFFFFFFFFFFFFFFFFFFFFFF AND PUSH1 0x80 DUP2 PUSH20 0xFFFFFFFFFFFFFFFFFFFFFFFFFFFFFFFFFFFFFFFF AND DUP2 MSTORE POP POP DUP2 PUSH1 0xA0 DUP2 DUP2 MSTORE POP POP DUP1 PUSH1 0x4 DUP2 SWAP1 SSTORE POP POP POP POP PUSH3 0x1C4 JUMP JUMPDEST PUSH1 0x0 DUP1 REVERT JUMPDEST PUSH1 0x0 PUSH20 0xFFFFFFFFFFFFFFFFFFFFFFFFFFFFFFFFFFFFFFFF DUP3 AND SWAP1 POP SWAP2 SWAP1 POP JUMP JUMPDEST PUSH1 0x0 PUSH3 0xF5 DUP3 PUSH3 0xC8 JUMP JUMPDEST SWAP1 POP SWAP2 SWAP1 POP JUMP JUMPDEST PUSH3 0x107 DUP2 PUSH3 0xE8 JUMP JUMPDEST DUP2 EQ PUSH3 0x113 JUMPI PUSH1 0x0 DUP1 REVERT JUMPDEST POP JUMP JUMPDEST PUSH1 0x0 DUP2 MLOAD SWAP1 POP PUSH3 0x127 DUP2 PUSH3 0xFC JUMP JUMPDEST SWAP3 SWAP2 POP POP JUMP JUMPDEST PUSH1 0x0 DUP2 SWAP1 POP SWAP2 SWAP1 POP JUMP JUMPDEST PUSH3 0x142 DUP2 PUSH3 0x12D JUMP JUMPDEST DUP2 EQ PUSH3 0x14E JUMPI PUSH1 0x0 DUP1 REVERT JUMPDEST POP JUMP JUMPDEST PUSH1 0x0 DUP2 MLOAD SWAP1 POP PUSH3 0x162 DUP2 PUSH3 0x137 JUMP JUMPDEST SWAP3 SWAP2 POP POP JUMP JUMPDEST PUSH1 0x0 DUP1 PUSH1 0x0 PUSH1 0x60 DUP5 DUP7 SUB SLT ISZERO PUSH3 0x184 JUMPI PUSH3 0x183 PUSH3 0xC3 JUMP JUMPDEST JUMPDEST PUSH1 0x0 PUSH3 0x194 DUP7 DUP3 DUP8 ADD PUSH3 0x116 JUMP JUMPDEST SWAP4 POP POP PUSH1 0x20 PUSH3 0x1A7 DUP7 DUP3 DUP8 ADD PUSH3 0x151 JUMP JUMPDEST SWAP3 POP POP PUSH1 0x40 PUSH3 0x1BA DUP7 DUP3 DUP8 ADD PUSH3 0x151 JUMP JUMPDEST SWAP2 POP POP SWAP3 POP SWAP3 POP SWAP3 JUMP JUMPDEST PUSH1 0x80 MLOAD PUSH1 0xA0 MLOAD PUSH2 0x1DC4 PUSH3 0x1FF PUSH1 0x0 CODECOPY PUSH1 0x0 DUP2 DUP2 PUSH2 0x2B1 ADD MSTORE DUP2 DUP2 PUSH2 0x3FF ADD MSTORE PUSH2 0x692 ADD MSTORE PUSH1 0x0 DUP2 DUP2 PUSH2 0x55A ADD MSTORE PUSH2 0x6F4 ADD MSTORE PUSH2 0x1DC4 PUSH1 0x0 RETURN INVALID PUSH1 0x80 PUSH1 0x40 MSTORE CALLVALUE DUP1 ISZERO PUSH2 0x10 JUMPI PUSH1 0x0 DUP1 REVERT JUMPDEST POP PUSH1 0x4 CALLDATASIZE LT PUSH2 0xEA JUMPI PUSH1 0x0 CALLDATALOAD PUSH1 0xE0 SHR DUP1 PUSH4 0x5216509A GT PUSH2 0x8C JUMPI DUP1 PUSH4 0x8772A23A GT PUSH2 0x66 JUMPI DUP1 PUSH4 0x8772A23A EQ PUSH2 0x227 JUMPI DUP1 PUSH4 0x8DA5CB5B EQ PUSH2 0x245 JUMPI DUP1 PUSH4 0xA15A36C7 EQ PUSH2 0x263 JUMPI DUP1 PUSH4 0xAAD24061 EQ PUSH2 0x27F JUMPI PUSH2 0xEA JUMP JUMPDEST DUP1 PUSH4 0x5216509A EQ PUSH2 0x1D1 JUMPI DUP1 PUSH4 0x5D5E8875 EQ PUSH2 0x1EF JUMPI DUP1 PUSH4 0x8176EFB1 EQ PUSH2 0x20B JUMPI PUSH2 0xEA JUMP JUMPDEST DUP1 PUSH4 0x2019A608 GT PUSH2 0xC8 JUMPI DUP1 PUSH4 0x2019A608 EQ PUSH2 0x147 JUMPI DUP1 PUSH4 0x2B7AC3F3 EQ PUSH2 0x165 JUMPI DUP1 PUSH4 0x2EB4A7AB EQ PUSH2 0x183 JUMPI DUP1 PUSH4 0x3C3A220D EQ PUSH2 0x1A1 JUMPI PUSH2 0xEA JUMP JUMPDEST DUP1 PUSH4 0x51364D4 EQ PUSH2 0xEF JUMPI DUP1 PUSH4 0x52BB838 EQ PUSH2 0x10D JUMPI DUP1 PUSH4 0x1EA736E0 EQ PUSH2 0x129 JUMPI JUMPDEST PUSH1 0x0 DUP1 REVERT JUMPDEST PUSH2 0xF7 PUSH2 0x2AF JUMP JUMPDEST PUSH1 0x40 MLOAD PUSH2 0x104 SWAP2 SWAP1 PUSH2 0xDA4 JUMP JUMPDEST PUSH1 0x40 MLOAD DUP1 SWAP2 SUB SWAP1 RETURN JUMPDEST PUSH2 0x127 PUSH1 0x4 DUP1 CALLDATASIZE SUB DUP2 ADD SWAP1 PUSH2 0x122 SWAP2 SWAP1 PUSH2 0x10A3 JUMP JUMPDEST PUSH2 0x2D3 JUMP JUMPDEST STOP JUMPDEST PUSH2 0x131 PUSH2 0x6E6 JUMP JUMPDEST PUSH1 0x40 MLOAD PUSH2 0x13E SWAP2 SWAP1 PUSH2 0xDA4 JUMP JUMPDEST PUSH1 0x40 MLOAD DUP1 SWAP2 SUB SWAP1 RETURN JUMPDEST PUSH2 0x14F PUSH2 0x6EC JUMP JUMPDEST PUSH1 0x40 MLOAD PUSH2 0x15C SWAP2 SWAP1 PUSH2 0xDA4 JUMP JUMPDEST PUSH1 0x40 MLOAD DUP1 SWAP2 SUB SWAP1 RETURN JUMPDEST PUSH2 0x16D PUSH2 0x6F2 JUMP JUMPDEST PUSH1 0x40 MLOAD PUSH2 0x17A SWAP2 SWAP1 PUSH2 0x118B JUMP JUMPDEST PUSH1 0x40 MLOAD DUP1 SWAP2 SUB SWAP1 RETURN JUMPDEST PUSH2 0x18B PUSH2 0x716 JUMP JUMPDEST PUSH1 0x40 MLOAD PUSH2 0x198 SWAP2 SWAP1 PUSH2 0xDA4 JUMP JUMPDEST PUSH1 0x40 MLOAD DUP1 SWAP2 SUB SWAP1 RETURN JUMPDEST PUSH2 0x1BB PUSH1 0x4 DUP1 CALLDATASIZE SUB DUP2 ADD SWAP1 PUSH2 0x1B6 SWAP2 SWAP1 PUSH2 0x11A6 JUMP JUMPDEST PUSH2 0x71C JUMP JUMPDEST PUSH1 0x40 MLOAD PUSH2 0x1C8 SWAP2 SWAP1 PUSH2 0xDA4 JUMP JUMPDEST PUSH1 0x40 MLOAD DUP1 SWAP2 SUB SWAP1 RETURN JUMPDEST PUSH2 0x1D9 PUSH2 0x734 JUMP JUMPDEST PUSH1 0x40 MLOAD PUSH2 0x1E6 SWAP2 SWAP1 PUSH2 0xDA4 JUMP JUMPDEST PUSH1 0x40 MLOAD DUP1 SWAP2 SUB SWAP1 RETURN JUMPDEST PUSH2 0x209 PUSH1 0x4 DUP1 CALLDATASIZE SUB DUP2 ADD SWAP1 PUSH2 0x204 SWAP2 SWAP1 PUSH2 0x11A6 JUMP JUMPDEST PUSH2 0x73A JUMP JUMPDEST STOP JUMPDEST PUSH2 0x225 PUSH1 0x4 DUP1 CALLDATASIZE SUB DUP2 ADD SWAP1 PUSH2 0x220 SWAP2 SWAP1 PUSH2 0x11D3 JUMP JUMPDEST PUSH2 0x8E1 JUMP JUMPDEST STOP JUMPDEST PUSH2 0x22F PUSH2 0xB69 JUMP JUMPDEST PUSH1 0x40 MLOAD PUSH2 0x23C SWAP2 SWAP1 PUSH2 0x1241 JUMP JUMPDEST PUSH1 0x40 MLOAD DUP1 SWAP2 SUB SWAP1 RETURN JUMPDEST PUSH2 0x24D PUSH2 0xB7C JUMP JUMPDEST PUSH1 0x40 MLOAD PUSH2 0x25A SWAP2 SWAP1 PUSH2 0x127D JUMP JUMPDEST PUSH1 0x40 MLOAD DUP1 SWAP2 SUB SWAP1 RETURN JUMPDEST PUSH2 0x27D PUSH1 0x4 DUP1 CALLDATASIZE SUB DUP2 ADD SWAP1 PUSH2 0x278 SWAP2 SWAP1 PUSH2 0x1298 JUMP JUMPDEST PUSH2 0xBA0 JUMP JUMPDEST STOP JUMPDEST PUSH2 0x299 PUSH1 0x4 DUP1 CALLDATASIZE SUB DUP2 ADD SWAP1 PUSH2 0x294 SWAP2 SWAP1 PUSH2 0x11A6 JUMP JUMPDEST PUSH2 0xD6B JUMP JUMPDEST PUSH1 0x40 MLOAD PUSH2 0x2A6 SWAP2 SWAP1 PUSH2 0x1241 JUMP JUMPDEST PUSH1 0x40 MLOAD DUP1 SWAP2 SUB SWAP1 RETURN JUMPDEST PUSH32 0x0 DUP2 JUMP JUMPDEST PUSH1 0x2 SLOAD TIMESTAMP LT ISZERO PUSH2 0x318 JUMPI PUSH1 0x40 MLOAD PUSH32 0x8C379A000000000000000000000000000000000000000000000000000000000 DUP2 MSTORE PUSH1 0x4 ADD PUSH2 0x30F SWAP1 PUSH2 0x135B JUMP JUMPDEST PUSH1 0x40 MLOAD DUP1 SWAP2 SUB SWAP1 REVERT JUMPDEST PUSH1 0x3 SLOAD TIMESTAMP LT PUSH2 0x35C JUMPI PUSH1 0x40 MLOAD PUSH32 0x8C379A000000000000000000000000000000000000000000000000000000000 DUP2 MSTORE PUSH1 0x4 ADD PUSH2 0x353 SWAP1 PUSH2 0x13C7 JUMP JUMPDEST PUSH1 0x40 MLOAD DUP1 SWAP2 SUB SWAP1 REVERT JUMPDEST PUSH1 0x0 PUSH1 0x1 SLOAD SUB PUSH2 0x3A1 JUMPI PUSH1 0x40 MLOAD PUSH32 0x8C379A000000000000000000000000000000000000000000000000000000000 DUP2 MSTORE PUSH1 0x4 ADD PUSH2 0x398 SWAP1 PUSH2 0x1459 JUMP JUMPDEST PUSH1 0x40 MLOAD DUP1 SWAP2 SUB SWAP1 REVERT JUMPDEST PUSH1 0x1 SLOAD DUP2 PUSH1 0x0 PUSH1 0x4 DUP2 LT PUSH2 0x3B8 JUMPI PUSH2 0x3B7 PUSH2 0x1479 JUMP JUMPDEST JUMPDEST PUSH1 0x20 MUL ADD MLOAD EQ PUSH2 0x3FD JUMPI PUSH1 0x40 MLOAD PUSH32 0x8C379A000000000000000000000000000000000000000000000000000000000 DUP2 MSTORE PUSH1 0x4 ADD PUSH2 0x3F4 SWAP1 PUSH2 0x14F4 JUMP JUMPDEST PUSH1 0x40 MLOAD DUP1 SWAP2 SUB SWAP1 REVERT JUMPDEST PUSH32 0x0 DUP2 PUSH1 0x3 PUSH1 0x4 DUP2 LT PUSH2 0x432 JUMPI PUSH2 0x431 PUSH2 0x1479 JUMP JUMPDEST JUMPDEST PUSH1 0x20 MUL ADD MLOAD EQ PUSH2 0x477 JUMPI PUSH1 0x40 MLOAD PUSH32 0x8C379A000000000000000000000000000000000000000000000000000000000 DUP2 MSTORE PUSH1 0x4 ADD PUSH2 0x46E SWAP1 PUSH2 0x1560 JUMP JUMPDEST PUSH1 0x40 MLOAD DUP1 SWAP2 SUB SWAP1 REVERT JUMPDEST PUSH1 0x0 DUP2 PUSH1 0x2 PUSH1 0x4 DUP2 LT PUSH2 0x48D JUMPI PUSH2 0x48C PUSH2 0x1479 JUMP JUMPDEST JUMPDEST PUSH1 0x20 MUL ADD MLOAD SWAP1 POP PUSH1 0x7 PUSH1 0x0 DUP3 DUP2 MSTORE PUSH1 0x20 ADD SWAP1 DUP2 MSTORE PUSH1 0x20 ADD PUSH1 0x0 KECCAK256 PUSH1 0x0 SWAP1 SLOAD SWAP1 PUSH2 0x100 EXP SWAP1 DIV PUSH1 0xFF AND ISZERO PUSH2 0x4F5 JUMPI PUSH1 0x40 MLOAD PUSH32 0x8C379A000000000000000000000000000000000000000000000000000000000 DUP2 MSTORE PUSH1 0x4 ADD PUSH2 0x4EC SWAP1 PUSH2 0x15F2 JUMP JUMPDEST PUSH1 0x40 MLOAD DUP1 SWAP2 SUB SWAP1 REVERT JUMPDEST PUSH1 0x0 DUP3 PUSH1 0x1 PUSH1 0x4 DUP2 LT PUSH2 0x50B JUMPI PUSH2 0x50A PUSH2 0x1479 JUMP JUMPDEST JUMPDEST PUSH1 0x20 MUL ADD MLOAD SWAP1 POP PUSH1 0x4 SLOAD DUP2 LT PUSH2 0x556 JUMPI PUSH1 0x40 MLOAD PUSH32 0x8C379A000000000000000000000000000000000000000000000000000000000 DUP2 MSTORE PUSH1 0x4 ADD PUSH2 0x54D SWAP1 PUSH2 0x1684 JUMP JUMPDEST PUSH1 0x40 MLOAD DUP1 SWAP2 SUB SWAP1 REVERT JUMPDEST PUSH1 0x0 PUSH32 0x0 PUSH20 0xFFFFFFFFFFFFFFFFFFFFFFFFFFFFFFFFFFFFFFFF AND PUSH4 0x5FE8C13B DUP9 DUP9 DUP9 DUP9 PUSH1 0x40 MLOAD DUP6 PUSH4 0xFFFFFFFF AND PUSH1 0xE0 SHL DUP2 MSTORE PUSH1 0x4 ADD PUSH2 0x5B7 SWAP5 SWAP4 SWAP3 SWAP2 SWAP1 PUSH2 0x18D1 JUMP JUMPDEST PUSH1 0x20 PUSH1 0x40 MLOAD DUP1 DUP4 SUB DUP2 DUP7 GAS STATICCALL ISZERO DUP1 ISZERO PUSH2 0x5D4 JUMPI RETURNDATASIZE PUSH1 0x0 DUP1 RETURNDATACOPY RETURNDATASIZE PUSH1 0x0 REVERT JUMPDEST POP POP POP POP PUSH1 0x40 MLOAD RETURNDATASIZE PUSH1 0x1F NOT PUSH1 0x1F DUP3 ADD AND DUP3 ADD DUP1 PUSH1 0x40 MSTORE POP DUP2 ADD SWAP1 PUSH2 0x5F8 SWAP2 SWAP1 PUSH2 0x1944 JUMP JUMPDEST SWAP1 POP DUP1 PUSH2 0x63A JUMPI PUSH1 0x40 MLOAD PUSH32 0x8C379A000000000000000000000000000000000000000000000000000000000 DUP2 MSTORE PUSH1 0x4 ADD PUSH2 0x631 SWAP1 PUSH2 0x19BD JUMP JUMPDEST PUSH1 0x40 MLOAD DUP1 SWAP2 SUB SWAP1 REVERT JUMPDEST PUSH1 0x1 PUSH1 0x7 PUSH1 0x0 DUP6 DUP2 MSTORE PUSH1 0x20 ADD SWAP1 DUP2 MSTORE PUSH1 0x20 ADD PUSH1 0x0 KECCAK256 PUSH1 0x0 PUSH2 0x100 EXP DUP2 SLOAD DUP2 PUSH1 0xFF MUL NOT AND SWAP1 DUP4 ISZERO ISZERO MUL OR SWAP1 SSTORE POP PUSH1 0x6 PUSH1 0x0 DUP4 DUP2 MSTORE PUSH1 0x20 ADD SWAP1 DUP2 MSTORE PUSH1 0x20 ADD PUSH1 0x0 KECCAK256 PUSH1 0x0 DUP2 SLOAD DUP1 SWAP3 SWAP2 SWAP1 PUSH2 0x68A SWAP1 PUSH2 0x1A0C JUMP JUMPDEST SWAP2 SWAP1 POP SSTORE POP DUP2 PUSH32 0x0 PUSH32 0xC31875EF3ED5138B71A0C1DA7E494BC4D2BA4F567084EA481EC9C45F3A93948B PUSH1 0x40 MLOAD PUSH1 0x40 MLOAD DUP1 SWAP2 SUB SWAP1 LOG3 POP POP POP POP POP POP POP JUMP JUMPDEST PUSH1 0x3 SLOAD DUP2 JUMP JUMPDEST PUSH1 0x2 SLOAD DUP2 JUMP JUMPDEST PUSH32 0x0 DUP2 JUMP JUMPDEST PUSH1 0x1 SLOAD DUP2 JUMP JUMPDEST PUSH1 0x6 PUSH1 0x20 MSTORE DUP1 PUSH1 0x0 MSTORE PUSH1 0x40 PUSH1 0x0 KECCAK256 PUSH1 0x0 SWAP2 POP SWAP1 POP SLOAD DUP2 JUMP JUMPDEST PUSH1 0x4 SLOAD DUP2 JUMP JUMPDEST PUSH1 0x0 DUP1 SLOAD SWAP1 PUSH2 0x100 EXP SWAP1 DIV PUSH20 0xFFFFFFFFFFFFFFFFFFFFFFFFFFFFFFFFFFFFFFFF AND PUSH20 0xFFFFFFFFFFFFFFFFFFFFFFFFFFFFFFFFFFFFFFFF AND CALLER PUSH20 0xFFFFFFFFFFFFFFFFFFFFFFFFFFFFFFFFFFFFFFFF AND EQ PUSH2 0x7C8 JUMPI PUSH1 0x40 MLOAD PUSH32 0x8C379A000000000000000000000000000000000000000000000000000000000 DUP2 MSTORE PUSH1 0x4 ADD PUSH2 0x7BF SWAP1 PUSH2 0x1AC6 JUMP JUMPDEST PUSH1 0x40 MLOAD DUP1 SWAP2 SUB SWAP1 REVERT JUMPDEST PUSH1 0x5 PUSH1 0x0 SWAP1 SLOAD SWAP1 PUSH2 0x100 EXP SWAP1 DIV PUSH1 0xFF AND ISZERO PUSH2 0x818 JUMPI PUSH1 0x40 MLOAD PUSH32 0x8C379A000000000000000000000000000000000000000000000000000000000 DUP2 MSTORE PUSH1 0x4 ADD PUSH2 0x80F SWAP1 PUSH2 0x1B58 JUMP JUMPDEST PUSH1 0x40 MLOAD DUP1 SWAP2 SUB SWAP1 REVERT JUMPDEST PUSH1 0x0 PUSH1 0x1 SLOAD EQ PUSH2 0x85D JUMPI PUSH1 0x40 MLOAD PUSH32 0x8C379A000000000000000000000000000000000000000000000000000000000 DUP2 MSTORE PUSH1 0x4 ADD PUSH2 0x854 SWAP1 PUSH2 0x1BEA JUMP JUMPDEST PUSH1 0x40 MLOAD DUP1 SWAP2 SUB SWAP1 REVERT JUMPDEST PUSH1 0x0 DUP2 SUB PUSH2 0x8A0 JUMPI PUSH1 0x40 MLOAD PUSH32 0x8C379A000000000000000000000000000000000000000000000000000000000 DUP2 MSTORE PUSH1 0x4 ADD PUSH2 0x897 SWAP1 PUSH2 0x1C7C JUMP JUMPDEST PUSH1 0x40 MLOAD DUP1 SWAP2 SUB SWAP1 REVERT JUMPDEST DUP1 PUSH1 0x1 DUP2 SWAP1 SSTORE POP PUSH32 0x6E5A142E5C3C536CE6CDC71895FC55C97DF6AD3432CD3759A9F784CA35FF447E DUP2 PUSH1 0x40 MLOAD PUSH2 0x8D6 SWAP2 SWAP1 PUSH2 0xDA4 JUMP JUMPDEST PUSH1 0x40 MLOAD DUP1 SWAP2 SUB SWAP1 LOG1 POP JUMP JUMPDEST PUSH1 0x0 DUP1 SLOAD SWAP1 PUSH2 0x100 EXP SWAP1 DIV PUSH20 0xFFFFFFFFFFFFFFFFFFFFFFFFFFFFFFFFFFFFFFFF AND PUSH20 0xFFFFFFFFFFFFFFFFFFFFFFFFFFFFFFFFFFFFFFFF AND CALLER PUSH20 0xFFFFFFFFFFFFFFFFFFFFFFFFFFFFFFFFFFFFFFFF AND EQ PUSH2 0x96F JUMPI PUSH1 0x40 MLOAD PUSH32 0x8C379A000000000000000000000000000000000000000000000000000000000 DUP2 MSTORE PUSH1 0x4 ADD PUSH2 0x966 SWAP1 PUSH2 0x1AC6 JUMP JUMPDEST PUSH1 0x40 MLOAD DUP1 SWAP2 SUB SWAP1 REVERT JUMPDEST PUSH1 0x5 PUSH1 0x0 SWAP1 SLOAD SWAP1 PUSH2 0x100 EXP SWAP1 DIV PUSH1 0xFF AND ISZERO PUSH2 0x9BF JUMPI PUSH1 0x40 MLOAD PUSH32 0x8C379A000000000000000000000000000000000000000000000000000000000 DUP2 MSTORE PUSH1 0x4 ADD PUSH2 0x9B6 SWAP1 PUSH2 0x1B58 JUMP JUMPDEST PUSH1 0x40 MLOAD DUP1 SWAP2 SUB SWAP1 REVERT JUMPDEST PUSH1 0x0 PUSH1 0x1 SLOAD EQ PUSH2 0xA04 JUMPI PUSH1 0x40 MLOAD PUSH32 0x8C379A000000000000000000000000000000000000000000000000000000000 DUP2 MSTORE PUSH1 0x4 ADD PUSH2 0x9FB SWAP1 PUSH2 0x1BEA JUMP JUMPDEST PUSH1 0x40 MLOAD DUP1 SWAP2 SUB SWAP1 REVERT JUMPDEST PUSH1 0x0 DUP4 SUB PUSH2 0xA47 JUMPI PUSH1 0x40 MLOAD PUSH32 0x8C379A000000000000000000000000000000000000000000000000000000000 DUP2 MSTORE PUSH1 0x4 ADD PUSH2 0xA3E SWAP1 PUSH2 0x1C7C JUMP JUMPDEST PUSH1 0x40 MLOAD DUP1 SWAP2 SUB SWAP1 REVERT JUMPDEST DUP1 DUP3 LT PUSH2 0xA89 JUMPI PUSH1 0x40 MLOAD PUSH32 0x8C379A000000000000000000000000000000000000000000000000000000000 DUP2 MSTORE PUSH1 0x4 ADD PUSH2 0xA80 SWAP1 PUSH2 0x1D0E JUMP JUMPDEST PUSH1 0x40 MLOAD DUP1 SWAP2 SUB SWAP1 REVERT JUMPDEST DUP3 PUSH1 0x1 DUP2 SWAP1 SSTORE POP DUP2 PUSH1 0x2 DUP2 SWAP1 SSTORE POP DUP1 PUSH1 0x3 DUP2 SWAP1 SSTORE POP PUSH1 0x1 PUSH1 0x5 PUSH1 0x0 PUSH2 0x100 EXP DUP2 SLOAD DUP2 PUSH1 0xFF MUL NOT AND SWAP1 DUP4 ISZERO ISZERO MUL OR SWAP1 SSTORE POP PUSH32 0x6E5A142E5C3C536CE6CDC71895FC55C97DF6AD3432CD3759A9F784CA35FF447E DUP4 PUSH1 0x40 MLOAD PUSH2 0xAE8 SWAP2 SWAP1 PUSH2 0xDA4 JUMP JUMPDEST PUSH1 0x40 MLOAD DUP1 SWAP2 SUB SWAP1 LOG1 PUSH32 0x7E3F7F0708A84DE9203036ABAA450DCCC85AD5FF52F78C170F3EDB55CF5E8828 DUP3 DUP3 PUSH1 0x40 MLOAD PUSH2 0xB21 SWAP3 SWAP2 SWAP1 PUSH2 0x1D2E JUMP JUMPDEST PUSH1 0x40 MLOAD DUP1 SWAP2 SUB SWAP1 LOG1 PUSH32 0x8EF79DBA3C82E8C1E27029879BE1ABFC2387BDAB779E0C0D02C17AEE8D70D7AC DUP4 DUP4 DUP4 PUSH1 0x40 MLOAD PUSH2 0xB5C SWAP4 SWAP3 SWAP2 SWAP1 PUSH2 0x1D57 JUMP JUMPDEST PUSH1 0x40 MLOAD DUP1 SWAP2 SUB SWAP1 LOG1 POP POP POP JUMP JUMPDEST PUSH1 0x5 PUSH1 0x0 SWAP1 SLOAD SWAP1 PUSH2 0x100 EXP SWAP1 DIV PUSH1 0xFF AND DUP2 JUMP JUMPDEST PUSH1 0x0 DUP1 SLOAD SWAP1 PUSH2 0x100 EXP SWAP1 DIV PUSH20 0xFFFFFFFFFFFFFFFFFFFFFFFFFFFFFFFFFFFFFFFF AND DUP2 JUMP JUMPDEST PUSH1 0x0 DUP1 SLOAD SWAP1 PUSH2 0x100 EXP SWAP1 DIV PUSH20 0xFFFFFFFFFFFFFFFFFFFFFFFFFFFFFFFFFFFFFFFF AND PUSH20 0xFFFFFFFFFFFFFFFFFFFFFFFFFFFFFFFFFFFFFFFF AND CALLER PUSH20 0xFFFFFFFFFFFFFFFFFFFFFFFFFFFFFFFFFFFFFFFF AND EQ PUSH2 0xC2E JUMPI PUSH1 0x40 MLOAD PUSH32 0x8C379A000000000000000000000000000000000000000000000000000000000 DUP2 MSTORE PUSH1 0x4 ADD PUSH2 0xC25 SWAP1 PUSH2 0x1AC6 JUMP JUMPDEST PUSH1 0x40 MLOAD DUP1 SWAP2 SUB SWAP1 REVERT JUMPDEST PUSH1 0x5 PUSH1 0x0 SWAP1 SLOAD SWAP1 PUSH2 0x100 EXP SWAP1 DIV PUSH1 0xFF AND ISZERO PUSH2 0xC7E JUMPI PUSH1 0x40 MLOAD PUSH32 0x8C379A000000000000000000000000000000000000000000000000000000000 DUP2 MSTORE PUSH1 0x4 ADD PUSH2 0xC75 SWAP1 PUSH2 0x1B58 JUMP JUMPDEST PUSH1 0x40 MLOAD DUP1 SWAP2 SUB SWAP1 REVERT JUMPDEST PUSH1 0x0 PUSH1 0x1 SLOAD SUB PUSH2 0xCC3 JUMPI PUSH1 0x40 MLOAD PUSH32 0x8C379A000000000000000000000000000000000000000000000000000000000 DUP2 MSTORE PUSH1 0x4 ADD PUSH2 0xCBA SWAP1 PUSH2 0x1459 JUMP JUMPDEST PUSH1 0x40 MLOAD DUP1 SWAP2 SUB SWAP1 REVERT JUMPDEST DUP1 DUP3 LT PUSH2 0xD05 JUMPI PUSH1 0x40 MLOAD PUSH32 0x8C379A000000000000000000000000000000000000000000000000000000000 DUP2 MSTORE PUSH1 0x4 ADD PUSH2 0xCFC SWAP1 PUSH2 0x1D0E JUMP JUMPDEST PUSH1 0x40 MLOAD DUP1 SWAP2 SUB SWAP1 REVERT JUMPDEST DUP2 PUSH1 0x2 DUP2 SWAP1 SSTORE POP DUP1 PUSH1 0x3 DUP2 SWAP1 SSTORE POP PUSH1 0x1 PUSH1 0x5 PUSH1 0x0 PUSH2 0x100 EXP DUP2 SLOAD DUP2 PUSH1 0xFF MUL NOT AND SWAP1 DUP4 ISZERO ISZERO MUL OR SWAP1 SSTORE POP PUSH32 0x7E3F7F0708A84DE9203036ABAA450DCCC85AD5FF52F78C170F3EDB55CF5E8828 DUP3 DUP3 PUSH1 0x40 MLOAD PUSH2 0xD5F SWAP3 SWAP2 SWAP1 PUSH2 0x1D2E JUMP JUMPDEST PUSH1 0x40 MLOAD DUP1 SWAP2 SUB SWAP1 LOG1 POP POP JUMP JUMPDEST PUSH1 0x7 PUSH1 0x20 MSTORE DUP1 PUSH1 0x0 MSTORE PUSH1 0x40 PUSH1 0x0 KECCAK256 PUSH1 0x0 SWAP2 POP SLOAD SWAP1 PUSH2 0x100 EXP SWAP1 DIV PUSH1 0xFF AND DUP2 JUMP JUMPDEST PUSH1 0x0 DUP2 SWAP1 POP SWAP2 SWAP1 POP JUMP JUMPDEST PUSH2 0xD9E DUP2 PUSH2 0xD8B JUMP JUMPDEST DUP3 MSTORE POP POP JUMP JUMPDEST PUSH1 0x0 PUSH1 0x20 DUP3 ADD SWAP1 POP PUSH2 0xDB9 PUSH1 0x0 DUP4 ADD DUP5 PUSH2 0xD95 JUMP JUMPDEST SWAP3 SWAP2 POP POP JUMP JUMPDEST PUSH1 0x0 PUSH1 0x40 MLOAD SWAP1 POP SWAP1 JUMP JUMPDEST PUSH1 0x0 DUP1 REVERT JUMPDEST PUSH1 0x0 DUP1 REVERT JUMPDEST PUSH1 0x0 PUSH1 0x1F NOT PUSH1 0x1F DUP4 ADD AND SWAP1 POP SWAP2 SWAP1 POP JUMP JUMPDEST PUSH32 0x4E487B7100000000000000000000000000000000000000000000000000000000 PUSH1 0x0 MSTORE PUSH1 0x41 PUSH1 0x4 MSTORE PUSH1 0x24 PUSH1 0x0 REVERT JUMPDEST PUSH2 0xE1C DUP3 PUSH2 0xDD3 JUMP JUMPDEST DUP2 ADD DUP2 DUP2 LT PUSH8 0xFFFFFFFFFFFFFFFF DUP3 GT OR ISZERO PUSH2 0xE3B JUMPI PUSH2 0xE3A PUSH2 0xDE4 JUMP JUMPDEST JUMPDEST DUP1 PUSH1 0x40 MSTORE POP POP POP JUMP JUMPDEST PUSH1 0x0 PUSH2 0xE4E PUSH2 0xDBF JUMP JUMPDEST SWAP1 POP PUSH2 0xE5A DUP3 DUP3 PUSH2 0xE13 JUMP JUMPDEST SWAP2 SWAP1 POP JUMP JUMPDEST PUSH1 0x0 PUSH8 0xFFFFFFFFFFFFFFFF DUP3 GT ISZERO PUSH2 0xE7A JUMPI PUSH2 0xE79 PUSH2 0xDE4 JUMP JUMPDEST JUMPDEST PUSH1 0x20 DUP3 MUL SWAP1 POP SWAP2 SWAP1 POP JUMP JUMPDEST PUSH1 0x0 DUP1 REVERT JUMPDEST PUSH2 0xE93 DUP2 PUSH2 0xD8B JUMP JUMPDEST DUP2 EQ PUSH2 0xE9E JUMPI PUSH1 0x0 DUP1 REVERT JUMPDEST POP JUMP JUMPDEST PUSH1 0x0 DUP2 CALLDATALOAD SWAP1 POP PUSH2 0xEB0 DUP2 PUSH2 0xE8A JUMP JUMPDEST SWAP3 SWAP2 POP POP JUMP JUMPDEST PUSH1 0x0 PUSH2 0xEC9 PUSH2 0xEC4 DUP5 PUSH2 0xE5F JUMP JUMPDEST PUSH2 0xE44 JUMP JUMPDEST SWAP1 POP DUP1 PUSH1 0x20 DUP5 MUL DUP4 ADD DUP6 DUP2 GT ISZERO PUSH2 0xEE3 JUMPI PUSH2 0xEE2 PUSH2 0xE85 JUMP JUMPDEST JUMPDEST DUP4 JUMPDEST DUP2 DUP2 LT ISZERO PUSH2 0xF0C JUMPI DUP1 PUSH2 0xEF8 DUP9 DUP3 PUSH2 0xEA1 JUMP JUMPDEST DUP5 MSTORE PUSH1 0x20 DUP5 ADD SWAP4 POP POP PUSH1 0x20 DUP2 ADD SWAP1 POP PUSH2 0xEE5 JUMP JUMPDEST POP POP POP SWAP4 SWAP3 POP POP POP JUMP JUMPDEST PUSH1 0x0 DUP3 PUSH1 0x1F DUP4 ADD SLT PUSH2 0xF2B JUMPI PUSH2 0xF2A PUSH2 0xDCE JUMP JUMPDEST JUMPDEST PUSH1 0x2 PUSH2 0xF38 DUP5 DUP3 DUP6 PUSH2 0xEB6 JUMP JUMPDEST SWAP2 POP POP SWAP3 SWAP2 POP POP JUMP JUMPDEST PUSH1 0x0 PUSH8 0xFFFFFFFFFFFFFFFF DUP3 GT ISZERO PUSH2 0xF5C JUMPI PUSH2 0xF5B PUSH2 0xDE4 JUMP JUMPDEST JUMPDEST PUSH1 0x20 DUP3 MUL SWAP1 POP SWAP2 SWAP1 POP JUMP JUMPDEST PUSH1 0x0 PUSH2 0xF7A PUSH2 0xF75 DUP5 PUSH2 0xF41 JUMP JUMPDEST PUSH2 0xE44 JUMP JUMPDEST SWAP1 POP DUP1 PUSH1 0x40 DUP5 MUL DUP4 ADD DUP6 DUP2 GT ISZERO PUSH2 0xF94 JUMPI PUSH2 0xF93 PUSH2 0xE85 JUMP JUMPDEST JUMPDEST DUP4 JUMPDEST DUP2 DUP2 LT ISZERO PUSH2 0xFBD JUMPI DUP1 PUSH2 0xFA9 DUP9 DUP3 PUSH2 0xF16 JUMP JUMPDEST DUP5 MSTORE PUSH1 0x20 DUP5 ADD SWAP4 POP POP PUSH1 0x40 DUP2 ADD SWAP1 POP PUSH2 0xF96 JUMP JUMPDEST POP POP POP SWAP4 SWAP3 POP POP POP JUMP JUMPDEST PUSH1 0x0 DUP3 PUSH1 0x1F DUP4 ADD SLT PUSH2 0xFDC JUMPI PUSH2 0xFDB PUSH2 0xDCE JUMP JUMPDEST JUMPDEST PUSH1 0x2 PUSH2 0xFE9 DUP5 DUP3 DUP6 PUSH2 0xF67 JUMP JUMPDEST SWAP2 POP POP SWAP3 SWAP2 POP POP JUMP JUMPDEST PUSH1 0x0 PUSH8 0xFFFFFFFFFFFFFFFF DUP3 GT ISZERO PUSH2 0x100D JUMPI PUSH2 0x100C PUSH2 0xDE4 JUMP JUMPDEST JUMPDEST PUSH1 0x20 DUP3 MUL SWAP1 POP SWAP2 SWAP1 POP JUMP JUMPDEST PUSH1 0x0 PUSH2 0x102B PUSH2 0x1026 DUP5 PUSH2 0xFF2 JUMP JUMPDEST PUSH2 0xE44 JUMP JUMPDEST SWAP1 POP DUP1 PUSH1 0x20 DUP5 MUL DUP4 ADD DUP6 DUP2 GT ISZERO PUSH2 0x1045 JUMPI PUSH2 0x1044 PUSH2 0xE85 JUMP JUMPDEST JUMPDEST DUP4 JUMPDEST DUP2 DUP2 LT ISZERO PUSH2 0x106E JUMPI DUP1 PUSH2 0x105A DUP9 DUP3 PUSH2 0xEA1 JUMP JUMPDEST DUP5 MSTORE PUSH1 0x20 DUP5 ADD SWAP4 POP POP PUSH1 0x20 DUP2 ADD SWAP1 POP PUSH2 0x1047 JUMP JUMPDEST POP POP POP SWAP4 SWAP3 POP POP POP JUMP JUMPDEST PUSH1 0x0 DUP3 PUSH1 0x1F DUP4 ADD SLT PUSH2 0x108D JUMPI PUSH2 0x108C PUSH2 0xDCE JUMP JUMPDEST JUMPDEST PUSH1 0x4 PUSH2 0x109A DUP5 DUP3 DUP6 PUSH2 0x1018 JUMP JUMPDEST SWAP2 POP POP SWAP3 SWAP2 POP POP JUMP JUMPDEST PUSH1 0x0 DUP1 PUSH1 0x0 DUP1 PUSH2 0x180 DUP6 DUP8 SUB SLT ISZERO PUSH2 0x10BE JUMPI PUSH2 0x10BD PUSH2 0xDC9 JUMP JUMPDEST JUMPDEST PUSH1 0x0 PUSH2 0x10CC DUP8 DUP3 DUP9 ADD PUSH2 0xF16 JUMP JUMPDEST SWAP5 POP POP PUSH1 0x40 PUSH2 0x10DD DUP8 DUP3 DUP9 ADD PUSH2 0xFC7 JUMP JUMPDEST SWAP4 POP POP PUSH1 0xC0 PUSH2 0x10EE DUP8 DUP3 DUP9 ADD PUSH2 0xF16 JUMP JUMPDEST SWAP3 POP POP PUSH2 0x100 PUSH2 0x1100 DUP8 DUP3 DUP9 ADD PUSH2 0x1078 JUMP JUMPDEST SWAP2 POP POP SWAP3 SWAP6 SWAP2 SWAP5 POP SWAP3 POP JUMP JUMPDEST PUSH1 0x0 PUSH20 0xFFFFFFFFFFFFFFFFFFFFFFFFFFFFFFFFFFFFFFFF DUP3 AND SWAP1 POP SWAP2 SWAP1 POP JUMP JUMPDEST PUSH1 0x0 DUP2 SWAP1 POP SWAP2 SWAP1 POP JUMP JUMPDEST PUSH1 0x0 PUSH2 0x1151 PUSH2 0x114C PUSH2 0x1147 DUP5 PUSH2 0x110C JUMP JUMPDEST PUSH2 0x112C JUMP JUMPDEST PUSH2 0x110C JUMP JUMPDEST SWAP1 POP SWAP2 SWAP1 POP JUMP JUMPDEST PUSH1 0x0 PUSH2 0x1163 DUP3 PUSH2 0x1136 JUMP JUMPDEST SWAP1 POP SWAP2 SWAP1 POP JUMP JUMPDEST PUSH1 0x0 PUSH2 0x1175 DUP3 PUSH2 0x1158 JUMP JUMPDEST SWAP1 POP SWAP2 SWAP1 POP JUMP JUMPDEST PUSH2 0x1185 DUP2 PUSH2 0x116A JUMP JUMPDEST DUP3 MSTORE POP POP JUMP JUMPDEST PUSH1 0x0 PUSH1 0x20 DUP3 ADD SWAP1 POP PUSH2 0x11A0 PUSH1 0x0 DUP4 ADD DUP5 PUSH2 0x117C JUMP JUMPDEST SWAP3 SWAP2 POP POP JUMP JUMPDEST PUSH1 0x0 PUSH1 0x20 DUP3 DUP5 SUB SLT ISZERO PUSH2 0x11BC JUMPI PUSH2 0x11BB PUSH2 0xDC9 JUMP JUMPDEST JUMPDEST PUSH1 0x0 PUSH2 0x11CA DUP5 DUP3 DUP6 ADD PUSH2 0xEA1 JUMP JUMPDEST SWAP2 POP POP SWAP3 SWAP2 POP POP JUMP JUMPDEST PUSH1 0x0 DUP1 PUSH1 0x0 PUSH1 0x60 DUP5 DUP7 SUB SLT ISZERO PUSH2 0x11EC JUMPI PUSH2 0x11EB PUSH2 0xDC9 JUMP JUMPDEST JUMPDEST PUSH1 0x0 PUSH2 0x11FA DUP7 DUP3 DUP8 ADD PUSH2 0xEA1 JUMP JUMPDEST SWAP4 POP POP PUSH1 0x20 PUSH2 0x120B DUP7 DUP3 DUP8 ADD PUSH2 0xEA1 JUMP JUMPDEST SWAP3 POP POP PUSH1 0x40 PUSH2 0x121C DUP7 DUP3 DUP8 ADD PUSH2 0xEA1 JUMP JUMPDEST SWAP2 POP POP SWAP3 POP SWAP3 POP SWAP3 JUMP JUMPDEST PUSH1 0x0 DUP2 ISZERO ISZERO SWAP1 POP SWAP2 SWAP1 POP JUMP JUMPDEST PUSH2 0x123B DUP2 PUSH2 0x1226 JUMP JUMPDEST DUP3 MSTORE POP POP JUMP JUMPDEST PUSH1 0x0 PUSH1 0x20 DUP3 ADD SWAP1 POP PUSH2 0x1256 PUSH1 0x0 DUP4 ADD DUP5 PUSH2 0x1232 JUMP JUMPDEST SWAP3 SWAP2 POP POP JUMP JUMPDEST PUSH1 0x0 PUSH2 0x1267 DUP3 PUSH2 0x110C JUMP JUMPDEST SWAP1 POP SWAP2 SWAP1 POP JUMP JUMPDEST PUSH2 0x1277 DUP2 PUSH2 0x125C JUMP JUMPDEST DUP3 MSTORE POP POP JUMP JUMPDEST PUSH1 0x0 PUSH1 0x20 DUP3 ADD SWAP1 POP PUSH2 0x1292 PUSH1 0x0 DUP4 ADD DUP5 PUSH2 0x126E JUMP JUMPDEST SWAP3 SWAP2 POP POP JUMP JUMPDEST PUSH1 0x0 DUP1 PUSH1 0x40 DUP4 DUP6 SUB SLT ISZERO PUSH2 0x12AF JUMPI PUSH2 0x12AE PUSH2 0xDC9 JUMP JUMPDEST JUMPDEST PUSH1 0x0 PUSH2 0x12BD DUP6 DUP3 DUP7 ADD PUSH2 0xEA1 JUMP JUMPDEST SWAP3 POP POP PUSH1 0x20 PUSH2 0x12CE DUP6 DUP3 DUP7 ADD PUSH2 0xEA1 JUMP JUMPDEST SWAP2 POP POP SWAP3 POP SWAP3 SWAP1 POP JUMP JUMPDEST PUSH1 0x0 DUP3 DUP3 MSTORE PUSH1 0x20 DUP3 ADD SWAP1 POP SWAP3 SWAP2 POP POP JUMP JUMPDEST PUSH32 0x566F74696E6754616C6C793A20566F74696E6720686173206E6F742073746172 PUSH1 0x0 DUP3 ADD MSTORE PUSH32 0x7465642079657400000000000000000000000000000000000000000000000000 PUSH1 0x20 DUP3 ADD MSTORE POP JUMP JUMPDEST PUSH1 0x0 PUSH2 0x1345 PUSH1 0x27 DUP4 PUSH2 0x12D8 JUMP JUMPDEST SWAP2 POP PUSH2 0x1350 DUP3 PUSH2 0x12E9 JUMP JUMPDEST PUSH1 0x40 DUP3 ADD SWAP1 POP SWAP2 SWAP1 POP JUMP JUMPDEST PUSH1 0x0 PUSH1 0x20 DUP3 ADD SWAP1 POP DUP2 DUP2 SUB PUSH1 0x0 DUP4 ADD MSTORE PUSH2 0x1374 DUP2 PUSH2 0x1338 JUMP JUMPDEST SWAP1 POP SWAP2 SWAP1 POP JUMP JUMPDEST PUSH32 0x566F74696E6754616C6C793A20566F74696E672068617320656E646564000000 PUSH1 0x0 DUP3 ADD MSTORE POP JUMP JUMPDEST PUSH1 0x0 PUSH2 0x13B1 PUSH1 0x1D DUP4 PUSH2 0x12D8 JUMP JUMPDEST SWAP2 POP PUSH2 0x13BC DUP3 PUSH2 0x137B JUMP JUMPDEST PUSH1 0x20 DUP3 ADD SWAP1 POP SWAP2 SWAP1 POP JUMP JUMPDEST PUSH1 0x0 PUSH1 0x20 DUP3 ADD SWAP1 POP DUP2 DUP2 SUB PUSH1 0x0 DUP4 ADD MSTORE PUSH2 0x13E0 DUP2 PUSH2 0x13A4 JUMP JUMPDEST SWAP1 POP SWAP2 SWAP1 POP JUMP JUMPDEST PUSH32 0x566F74696E6754616C6C793A204D65726B6C6520726F6F74206973206E6F7420 PUSH1 0x0 DUP3 ADD MSTORE PUSH32 0x7365740000000000000000000000000000000000000000000000000000000000 PUSH1 0x20 DUP3 ADD MSTORE POP JUMP JUMPDEST PUSH1 0x0 PUSH2 0x1443 PUSH1 0x23 DUP4 PUSH2 0x12D8 JUMP JUMPDEST SWAP2 POP PUSH2 0x144E DUP3 PUSH2 0x13E7 JUMP JUMPDEST PUSH1 0x40 DUP3 ADD SWAP1 POP SWAP2 SWAP1 POP JUMP JUMPDEST PUSH1 0x0 PUSH1 0x20 DUP3 ADD SWAP1 POP DUP2 DUP2 SUB PUSH1 0x0 DUP4 ADD MSTORE PUSH2 0x1472 DUP2 PUSH2 0x1436 JUMP JUMPDEST SWAP1 POP SWAP2 SWAP1 POP JUMP JUMPDEST PUSH32 0x4E487B7100000000000000000000000000000000000000000000000000000000 PUSH1 0x0 MSTORE PUSH1 0x32 PUSH1 0x4 MSTORE PUSH1 0x24 PUSH1 0x0 REVERT JUMPDEST PUSH32 0x566F74696E6754616C6C793A20496E76616C6964204D65726B6C6520726F6F74 PUSH1 0x0 DUP3 ADD MSTORE POP JUMP JUMPDEST PUSH1 0x0 PUSH2 0x14DE PUSH1 0x20 DUP4 PUSH2 0x12D8 JUMP JUMPDEST SWAP2 POP PUSH2 0x14E9 DUP3 PUSH2 0x14A8 JUMP JUMPDEST PUSH1 0x20 DUP3 ADD SWAP1 POP SWAP2 SWAP1 POP JUMP JUMPDEST PUSH1 0x0 PUSH1 0x20 DUP3 ADD SWAP1 POP DUP2 DUP2 SUB PUSH1 0x0 DUP4 ADD MSTORE PUSH2 0x150D DUP2 PUSH2 0x14D1 JUMP JUMPDEST SWAP1 POP SWAP2 SWAP1 POP JUMP JUMPDEST PUSH32 0x566F74696E6754616C6C793A20496E76616C696420656C656374696F6E206964 PUSH1 0x0 DUP3 ADD MSTORE POP JUMP JUMPDEST PUSH1 0x0 PUSH2 0x154A PUSH1 0x20 DUP4 PUSH2 0x12D8 JUMP JUMPDEST SWAP2 POP PUSH2 0x1555 DUP3 PUSH2 0x1514 JUMP JUMPDEST PUSH1 0x20 DUP3 ADD SWAP1 POP SWAP2 SWAP1 POP JUMP JUMPDEST PUSH1 0x0 PUSH1 0x20 DUP3 ADD SWAP1 POP DUP2 DUP2 SUB PUSH1 0x0 DUP4 ADD MSTORE PUSH2 0x1579 DUP2 PUSH2 0x153D JUMP JUMPDEST SWAP1 POP SWAP2 SWAP1 POP JUMP JUMPDEST PUSH32 0x566F74696E6754616C6C793A205468697320766F74652068617320616C726561 PUSH1 0x0 DUP3 ADD MSTORE PUSH32 0x6479206265656E20636173740000000000000000000000000000000000000000 PUSH1 0x20 DUP3 ADD MSTORE POP JUMP JUMPDEST PUSH1 0x0 PUSH2 0x15DC PUSH1 0x2C DUP4 PUSH2 0x12D8 JUMP JUMPDEST SWAP2 POP PUSH2 0x15E7 DUP3 PUSH2 0x1580 JUMP JUMPDEST PUSH1 0x40 DUP3 ADD SWAP1 POP SWAP2 SWAP1 POP JUMP JUMPDEST PUSH1 0x0 PUSH1 0x20 DUP3 ADD SWAP1 POP DUP2 DUP2 SUB PUSH1 0x0 DUP4 ADD MSTORE PUSH2 0x160B DUP2 PUSH2 0x15CF JUMP JUMPDEST SWAP1 POP SWAP2 SWAP1 POP JUMP JUMPDEST PUSH32 0x566F74696E6754616C6C793A20496E76616C69642063616E6469646174652069 PUSH1 0x0 DUP3 ADD MSTORE PUSH32 0x6E64657800000000000000000000000000000000000000000000000000000000 PUSH1 0x20 DUP3 ADD MSTORE POP JUMP JUMPDEST PUSH1 0x0 PUSH2 0x166E PUSH1 0x24 DUP4 PUSH2 0x12D8 JUMP JUMPDEST SWAP2 POP PUSH2 0x1679 DUP3 PUSH2 0x1612 JUMP JUMPDEST PUSH1 0x40 DUP3 ADD SWAP1 POP SWAP2 SWAP1 POP JUMP JUMPDEST PUSH1 0x0 PUSH1 0x20 DUP3 ADD SWAP1 POP DUP2 DUP2 SUB PUSH1 0x0 DUP4 ADD MSTORE PUSH2 0x169D DUP2 PUSH2 0x1661 JUMP JUMPDEST SWAP1 POP SWAP2 SWAP1 POP JUMP JUMPDEST PUSH1 0x0 PUSH1 0x2 SWAP1 POP SWAP2 SWAP1 POP JUMP JUMPDEST PUSH1 0x0 DUP2 SWAP1 POP SWAP3 SWAP2 POP POP JUMP JUMPDEST PUSH1 0x0 DUP2 SWAP1 POP SWAP2 SWAP1 POP JUMP JUMPDEST PUSH2 0x16CD DUP2 PUSH2 0xD8B JUMP JUMPDEST DUP3 MSTORE POP POP JUMP JUMPDEST PUSH1 0x0 PUSH2 0x16DF DUP4 DUP4 PUSH2 0x16C4 JUMP JUMPDEST PUSH1 0x20 DUP4 ADD SWAP1 POP SWAP3 SWAP2 POP POP JUMP JUMPDEST PUSH1 0x0 PUSH1 0x20 DUP3 ADD SWAP1 POP SWAP2 SWAP1 POP JUMP JUMPDEST PUSH2 0x1701 DUP2 PUSH2 0x16A4 JUMP JUMPDEST PUSH2 0x170B DUP2 DUP5 PUSH2 0x16AF JUMP JUMPDEST SWAP3 POP PUSH2 0x1716 DUP3 PUSH2 0x16BA JUMP JUMPDEST DUP1 PUSH1 0x0 JUMPDEST DUP4 DUP2 LT ISZERO PUSH2 0x1747 JUMPI DUP2 MLOAD PUSH2 0x172E DUP8 DUP3 PUSH2 0x16D3 JUMP JUMPDEST SWAP7 POP PUSH2 0x1739 DUP4 PUSH2 0x16EB JUMP JUMPDEST SWAP3 POP POP PUSH1 0x1 DUP2 ADD SWAP1 POP PUSH2 0x171A JUMP JUMPDEST POP POP POP POP POP POP JUMP JUMPDEST PUSH1 0x0 PUSH1 0x2 SWAP1 POP SWAP2 SWAP1 POP JUMP JUMPDEST PUSH1 0x0 DUP2 SWAP1 POP SWAP3 SWAP2 POP POP JUMP JUMPDEST PUSH1 0x0 DUP2 SWAP1 POP SWAP2 SWAP1 POP JUMP JUMPDEST PUSH1 0x0 DUP2 SWAP1 POP SWAP3 SWAP2 POP POP JUMP JUMPDEST PUSH2 0x1783 DUP2 PUSH2 0x16A4 JUMP JUMPDEST PUSH2 0x178D DUP2 DUP5 PUSH2 0x176F JUMP JUMPDEST SWAP3 POP PUSH2 0x1798 DUP3 PUSH2 0x16BA JUMP JUMPDEST DUP1 PUSH1 0x0 JUMPDEST DUP4 DUP2 LT ISZERO PUSH2 0x17C9 JUMPI DUP2 MLOAD PUSH2 0x17B0 DUP8 DUP3 PUSH2 0x16D3 JUMP JUMPDEST SWAP7 POP PUSH2 0x17BB DUP4 PUSH2 0x16EB JUMP JUMPDEST SWAP3 POP POP PUSH1 0x1 DUP2 ADD SWAP1 POP PUSH2 0x179C JUMP JUMPDEST POP POP POP POP POP POP JUMP JUMPDEST PUSH1 0x0 PUSH2 0x17DD DUP4 DUP4 PUSH2 0x177A JUMP JUMPDEST PUSH1 0x40 DUP4 ADD SWAP1 POP SWAP3 SWAP2 POP POP JUMP JUMPDEST PUSH1 0x0 PUSH1 0x20 DUP3 ADD SWAP1 POP SWAP2 SWAP1 POP JUMP JUMPDEST PUSH2 0x17FF DUP2 PUSH2 0x174F JUMP JUMPDEST PUSH2 0x1809 DUP2 DUP5 PUSH2 0x175A JUMP JUMPDEST SWAP3 POP PUSH2 0x1814 DUP3 PUSH2 0x1765 JUMP JUMPDEST DUP1 PUSH1 0x0 JUMPDEST DUP4 DUP2 LT ISZERO PUSH2 0x1845 JUMPI DUP2 MLOAD PUSH2 0x182C DUP8 DUP3 PUSH2 0x17D1 JUMP JUMPDEST SWAP7 POP PUSH2 0x1837 DUP4 PUSH2 0x17E9 JUMP JUMPDEST SWAP3 POP POP PUSH1 0x1 DUP2 ADD SWAP1 POP PUSH2 0x1818 JUMP JUMPDEST POP POP POP POP POP POP JUMP JUMPDEST PUSH1 0x0 PUSH1 0x4 SWAP1 POP SWAP2 SWAP1 POP JUMP JUMPDEST PUSH1 0x0 DUP2 SWAP1 POP SWAP3 SWAP2 POP POP JUMP JUMPDEST PUSH1 0x0 DUP2 SWAP1 POP SWAP2 SWAP1 POP JUMP JUMPDEST PUSH1 0x0 PUSH1 0x20 DUP3 ADD SWAP1 POP SWAP2 SWAP1 POP JUMP JUMPDEST PUSH2 0x1883 DUP2 PUSH2 0x184D JUMP JUMPDEST PUSH2 0x188D DUP2 DUP5 PUSH2 0x1858 JUMP JUMPDEST SWAP3 POP PUSH2 0x1898 DUP3 PUSH2 0x1863 JUMP JUMPDEST DUP1 PUSH1 0x0 JUMPDEST DUP4 DUP2 LT ISZERO PUSH2 0x18C9 JUMPI DUP2 MLOAD PUSH2 0x18B0 DUP8 DUP3 PUSH2 0x16D3 JUMP JUMPDEST SWAP7 POP PUSH2 0x18BB DUP4 PUSH2 0x186D JUMP JUMPDEST SWAP3 POP POP PUSH1 0x1 DUP2 ADD SWAP1 POP PUSH2 0x189C JUMP JUMPDEST POP POP POP POP POP POP JUMP JUMPDEST PUSH1 0x0 PUSH2 0x180 DUP3 ADD SWAP1 POP PUSH2 0x18E7 PUSH1 0x0 DUP4 ADD DUP8 PUSH2 0x16F8 JUMP JUMPDEST PUSH2 0x18F4 PUSH1 0x40 DUP4 ADD DUP7 PUSH2 0x17F6 JUMP JUMPDEST PUSH2 0x1901 PUSH1 0xC0 DUP4 ADD DUP6 PUSH2 0x16F8 JUMP JUMPDEST PUSH2 0x190F PUSH2 0x100 DUP4 ADD DUP5 PUSH2 0x187A JUMP JUMPDEST SWAP6 SWAP5 POP POP POP POP POP JUMP JUMPDEST PUSH2 0x1921 DUP2 PUSH2 0x1226 JUMP JUMPDEST DUP2 EQ PUSH2 0x192C JUMPI PUSH1 0x0 DUP1 REVERT JUMPDEST POP JUMP JUMPDEST PUSH1 0x0 DUP2 MLOAD SWAP1 POP PUSH2 0x193E DUP2 PUSH2 0x1918 JUMP JUMPDEST SWAP3 SWAP2 POP POP JUMP JUMPDEST PUSH1 0x0 PUSH1 0x20 DUP3 DUP5 SUB SLT ISZERO PUSH2 0x195A JUMPI PUSH2 0x1959 PUSH2 0xDC9 JUMP JUMPDEST JUMPDEST PUSH1 0x0 PUSH2 0x1968 DUP5 DUP3 DUP6 ADD PUSH2 0x192F JUMP JUMPDEST SWAP2 POP POP SWAP3 SWAP2 POP POP JUMP JUMPDEST PUSH32 0x566F74696E6754616C6C793A20496E76616C6964205A4B2070726F6F66000000 PUSH1 0x0 DUP3 ADD MSTORE POP JUMP JUMPDEST PUSH1 0x0 PUSH2 0x19A7 PUSH1 0x1D DUP4 PUSH2 0x12D8 JUMP JUMPDEST SWAP2 POP PUSH2 0x19B2 DUP3 PUSH2 0x1971 JUMP JUMPDEST PUSH1 0x20 DUP3 ADD SWAP1 POP SWAP2 SWAP1 POP JUMP JUMPDEST PUSH1 0x0 PUSH1 0x20 DUP3 ADD SWAP1 POP DUP2 DUP2 SUB PUSH1 0x0 DUP4 ADD MSTORE PUSH2 0x19D6 DUP2 PUSH2 0x199A JUMP JUMPDEST SWAP1 POP SWAP2 SWAP1 POP JUMP JUMPDEST PUSH32 0x4E487B7100000000000000000000000000000000000000000000000000000000 PUSH1 0x0 MSTORE PUSH1 0x11 PUSH1 0x4 MSTORE PUSH1 0x24 PUSH1 0x0 REVERT JUMPDEST PUSH1 0x0 PUSH2 0x1A17 DUP3 PUSH2 0xD8B JUMP JUMPDEST SWAP2 POP PUSH32 0xFFFFFFFFFFFFFFFFFFFFFFFFFFFFFFFFFFFFFFFFFFFFFFFFFFFFFFFFFFFFFFFF DUP3 SUB PUSH2 0x1A49 JUMPI PUSH2 0x1A48 PUSH2 0x19DD JUMP JUMPDEST JUMPDEST PUSH1 0x1 DUP3 ADD SWAP1 POP SWAP2 SWAP1 POP JUMP JUMPDEST PUSH32 0x566F74696E6754616C6C793A2043616C6C6572206973206E6F7420746865206F PUSH1 0x0 DUP3 ADD MSTORE PUSH32 0x776E657200000000000000000000000000000000000000000000000000000000 PUSH1 0x20 DUP3 ADD MSTORE POP JUMP JUMPDEST PUSH1 0x0 PUSH2 0x1AB0 PUSH1 0x24 DUP4 PUSH2 0x12D8 JUMP JUMPDEST SWAP2 POP PUSH2 0x1ABB DUP3 PUSH2 0x1A54 JUMP JUMPDEST PUSH1 0x40 DUP3 ADD SWAP1 POP SWAP2 SWAP1 POP JUMP JUMPDEST PUSH1 0x0 PUSH1 0x20 DUP3 ADD SWAP1 POP DUP2 DUP2 SUB PUSH1 0x0 DUP4 ADD MSTORE PUSH2 0x1ADF DUP2 PUSH2 0x1AA3 JUMP JUMPDEST SWAP1 POP SWAP2 SWAP1 POP JUMP JUMPDEST PUSH32 0x566F74696E6754616C6C793A20456C656374696F6E20616C726561647920636F PUSH1 0x0 DUP3 ADD MSTORE PUSH32 0x6E66696775726564000000000000000000000000000000000000000000000000 PUSH1 0x20 DUP3 ADD MSTORE POP JUMP JUMPDEST PUSH1 0x0 PUSH2 0x1B42 PUSH1 0x28 DUP4 PUSH2 0x12D8 JUMP JUMPDEST SWAP2 POP PUSH2 0x1B4D DUP3 PUSH2 0x1AE6 JUMP JUMPDEST PUSH1 0x40 DUP3 ADD SWAP1 POP SWAP2 SWAP1 POP JUMP JUMPDEST PUSH1 0x0 PUSH1 0x20 DUP3 ADD SWAP1 POP DUP2 DUP2 SUB PUSH1 0x0 DUP4 ADD MSTORE PUSH2 0x1B71 DUP2 PUSH2 0x1B35 JUMP JUMPDEST SWAP1 POP SWAP2 SWAP1 POP JUMP JUMPDEST PUSH32 0x566F74696E6754616C6C793A204D65726B6C6520726F6F7420616C7265616479 PUSH1 0x0 DUP3 ADD MSTORE PUSH32 0x2073657400000000000000000000000000000000000000000000000000000000 PUSH1 0x20 DUP3 ADD MSTORE POP JUMP JUMPDEST PUSH1 0x0 PUSH2 0x1BD4 PUSH1 0x24 DUP4 PUSH2 0x12D8 JUMP JUMPDEST SWAP2 POP PUSH2 0x1BDF DUP3 PUSH2 0x1B78 JUMP JUMPDEST PUSH1 0x40 DUP3 ADD SWAP1 POP SWAP2 SWAP1 POP JUMP JUMPDEST PUSH1 0x0 PUSH1 0x20 DUP3 ADD SWAP1 POP DUP2 DUP2 SUB PUSH1 0x0 DUP4 ADD MSTORE PUSH2 0x1C03 DUP2 PUSH2 0x1BC7 JUMP JUMPDEST SWAP1 POP SWAP2 SWAP1 POP JUMP JUMPDEST PUSH32 0x566F74696E6754616C6C793A204D65726B6C6520726F6F742063616E6E6F7420 PUSH1 0x0 DUP3 ADD MSTORE PUSH32 0x6265207A65726F00000000000000000000000000000000000000000000000000 PUSH1 0x20 DUP3 ADD MSTORE POP JUMP JUMPDEST PUSH1 0x0 PUSH2 0x1C66 PUSH1 0x27 DUP4 PUSH2 0x12D8 JUMP JUMPDEST SWAP2 POP PUSH2 0x1C71 DUP3 PUSH2 0x1C0A JUMP JUMPDEST PUSH1 0x40 DUP3 ADD SWAP1 POP SWAP2 SWAP1 POP JUMP JUMPDEST PUSH1 0x0 PUSH1 0x20 DUP3 ADD SWAP1 POP DUP2 DUP2 SUB PUSH1 0x0 DUP4 ADD MSTORE PUSH2 0x1C95 DUP2 PUSH2 0x1C59 JUMP JUMPDEST SWAP1 POP SWAP2 SWAP1 POP JUMP JUMPDEST PUSH32 0x566F74696E6754616C6C793A2053746172742074696D65206D75737420626520 PUSH1 0x0 DUP3 ADD MSTORE PUSH32 0x6265666F726520656E642074696D650000000000000000000000000000000000 PUSH1 0x20 DUP3 ADD MSTORE POP JUMP JUMPDEST PUSH1 0x0 PUSH2 0x1CF8 PUSH1 0x2F DUP4 PUSH2 0x12D8 JUMP JUMPDEST SWAP2 POP PUSH2 0x1D03 DUP3 PUSH2 0x1C9C JUMP JUMPDEST PUSH1 0x40 DUP3 ADD SWAP1 POP SWAP2 SWAP1 POP JUMP JUMPDEST PUSH1 0x0 PUSH1 0x20 DUP3 ADD SWAP1 POP DUP2 DUP2 SUB PUSH1 0x0 DUP4 ADD MSTORE PUSH2 0x1D27 DUP2 PUSH2 0x1CEB JUMP JUMPDEST SWAP1 POP SWAP2 SWAP1 POP JUMP JUMPDEST PUSH1 0x0 PUSH1 0x40 DUP3 ADD SWAP1 POP PUSH2 0x1D43 PUSH1 0x0 DUP4 ADD DUP6 PUSH2 0xD95 JUMP JUMPDEST PUSH2 0x1D50 PUSH1 0x20 DUP4 ADD DUP5 PUSH2 0xD95 JUMP JUMPDEST SWAP4 SWAP3 POP POP POP JUMP JUMPDEST PUSH1 0x0 PUSH1 0x60 DUP3 ADD SWAP1 POP PUSH2 0x1D6C PUSH1 0x0 DUP4 ADD DUP7 PUSH2 0xD95 JUMP JUMPDEST PUSH2 0x1D79 PUSH1 0x20 DUP4 ADD DUP6 PUSH2 0xD95 JUMP JUMPDEST PUSH2 0x1D86 PUSH1 0x40 DUP4 ADD DUP5 PUSH2 0xD95 JUMP JUMPDEST SWAP5 SWAP4 POP POP POP POP JUMP INVALID LOG2 PUSH5 0x6970667358 0x22 SLT KECCAK256 0x4B 0xC3 NOT JUMPDEST LOG0 SSTORE DUP9 SSTORE PUSH27 0xD3741637D146EBAE9F87556F24AA661A12AAABA2E8884064736F6C PUSH4 0x43000814 STOP CALLER "},"methodIdentifiers":{"configureElection(uint256,uint256,uint256)":"8176efb1","configured()":"8772a23a","electionId()":"051364d4","merkleRoot()":"2eb4a7ab","numCandidates()":"5216509a","owner()":"8da5cb5b","setMerkleRoot(uint256)":"5d5e8875","setVotingPeriod(uint256,uint256)":"a15a36c7","submitTally(uint256[2],uint256[2][2],uint256[2],uint256[4])":"052bb838","usedNullifiers(uint256)":"aad24061","verifier()":"2b7ac3f3","voteCounts(uint256)":"3c3a220d","votingEndTime()":"1ea736e0","votingStartTime()":"2019a608"}}}}}