{"contracts/VotingTally.sol":{"VotingTally":{"abi":[{"inputs":[{"internalType":"address","name":"_verifierAddress","type":"address"},{"internalType":"uint256","name":"_electionId","type":"uint256"}],"stateMutability":"nonpayable","type":"constructor"},{"anonymous":false,"inputs":[{"indexed":false,"internalType":"uint256","name":"root","type":"uint256"}],"name":"MerkleRootSet","type":"event"},{"anonymous":false,"inputs":[{"indexed":true,"internalType":"uint256","name":"candidateIndex","type":"uint256"}],"name":"VoteCast","type":"event"},{"inputs":[],"name":"electionId","outputs":[{"internalType":"uint256","name":"","type":"uint256"}],"stateMutability":"view","type":"function"},{"inputs":[],"name":"merkleRoot","outputs":[{"internalType":"uint256","name":"","type":"uint256"}],"stateMutability":"view","type":"function"},{"inputs":[],"name":"owner","outputs":[{"internalType":"address","name":"","type":"address"}],"stateMutability":"view","type":"function"},{"inputs":[{"internalType":"uint256","name":"_root","type":"uint256"}],"name":"setMerkleRoot","outputs":[],"stateMutability":"nonpayable","type":"function"},{"inputs":[{"internalType":"uint256[2]","name":"a","type":"uint256[2]"},{"internalType":"uint256[2][2]","name":"b","type":"uint256[2][2]"},{"internalType":"uint256[2]","name":"c","type":"uint256[2]"},{"internalType":"uint256[3]","name":"input","type":"uint256[3]"}],"name":"submitTally","outputs":[],"stateMutability":"nonpayable","type":"function"},{"inputs":[{"internalType":"uint256","name":"","type":"uint256"}],"name":"usedNullifiers","outputs":[{"internalType":"bool","name":"","type":"bool"}],"stateMutability":"view","type":"function"},{"inputs":[],"name":"verifier","outputs":[{"internalType":"contract IVerifier","name":"","type":"address"}],"stateMutability":"view","type":"function"},{"inputs":[{"internalType":"uint256","name":"","type":"uint256"}],"name":"voteCounts","outputs":[{"internalType":"uint256","name":"","type":"uint256"}],"stateMutability":"view","type":"function"}],"evm":{"bytecode":{"linkReferences":{},"object":"60806040523480156200001157600080fd5b50604051620012203803806200122083398181016040528101906200003791906200016c565b336000806101000a81548173ffffffffffffffffffffffffffffffffffffffff021916908373ffffffffffffffffffffffffffffffffffffffff16021790555081600160006101000a81548173ffffffffffffffffffffffffffffffffffffffff021916908373ffffffffffffffffffffffffffffffffffffffff160217905550806003819055505050620001b3565b600080fd5b600073ffffffffffffffffffffffffffffffffffffffff82169050919050565b6000620000f982620000cc565b9050919050565b6200010b81620000ec565b81146200011757600080fd5b50565b6000815190506200012b8162000100565b92915050565b6000819050919050565b620001468162000131565b81146200015257600080fd5b50565b60008151905062000166816200013b565b92915050565b60008060408385031215620001865762000185620000c7565b5b600062000196858286016200011a565b9250506020620001a98582860162000155565b9150509250929050565b61105d80620001c36000396000f3fe608060405234801561001057600080fd5b50600436106100885760003560e01c80633c3a220d1161005b5780633c3a220d146101035780635d5e8875146101335780638da5cb5b1461014f578063aad240611461016d57610088565b8063051364d41461008d5780632b7ac3f3146100ab5780632c7d783b146100c95780632eb4a7ab146100e5575b600080fd5b61009561019d565b6040516100a291906105c0565b60405180910390f35b6100b36101a3565b6040516100c0919061065a565b60405180910390f35b6100e360048036038101906100de9190610959565b6101c9565b005b6100ed610476565b6040516100fa91906105c0565b60405180910390f35b61011d600480360381019061011891906109c2565b61047c565b60405161012a91906105c0565b60405180910390f35b61014d600480360381019061014891906109c2565b610494565b005b610157610563565b6040516101649190610a10565b60405180910390f35b610187600480360381019061018291906109c2565b610587565b6040516101949190610a46565b60405180910390f35b60035481565b600160009054906101000a900473ffffffffffffffffffffffffffffffffffffffff1681565b60006002540361020e576040517f08c379a000000000000000000000000000000000000000000000000000000000815260040161020590610abe565b60405180910390fd5b6002548160006003811061022557610224610ade565b5b60200201511461026a576040517f08c379a000000000000000000000000000000000000000000000000000000000815260040161026190610b59565b60405180910390fd5b6000816002600381106102805761027f610ade565b5b602002015190506005600082815260200190815260200160002060009054906101000a900460ff16156102e8576040517f08c379a00000000000000000000000000000000000000000000000000000000081526004016102df90610bc5565b60405180910390fd5b6000600160009054906101000a900473ffffffffffffffffffffffffffffffffffffffff1673ffffffffffffffffffffffffffffffffffffffff166311479fea878787876040518563ffffffff1660e01b815260040161034b9493929190610e12565b602060405180830381865afa158015610368573d6000803e3d6000fd5b505050506040513d601f19601f8201168201806040525081019061038c9190610e85565b9050806103ce576040517f08c379a00000000000000000000000000000000000000000000000000000000081526004016103c590610efe565b60405180910390fd5b60016005600084815260200190815260200160002060006101000a81548160ff0219169083151502179055506000836001600381106104105761040f610ade565b5b6020020151905060046000828152602001908152602001600020600081548092919061043b90610f4d565b9190505550807f9593d9bd30eff4872ec3bab10360ad82eaac80651801e68f47f0674c38415c3d60405160405180910390a250505050505050565b60025481565b60046020528060005260406000206000915090505481565b60008054906101000a900473ffffffffffffffffffffffffffffffffffffffff1673ffffffffffffffffffffffffffffffffffffffff163373ffffffffffffffffffffffffffffffffffffffff1614610522576040517f08c379a000000000000000000000000000000000000000000000000000000000815260040161051990611007565b60405180910390fd5b806002819055507f6e5a142e5c3c536ce6cdc71895fc55c97df6ad3432cd3759a9f784ca35ff447e8160405161055891906105c0565b60405180910390a150565b60008054906101000a900473ffffffffffffffffffffffffffffffffffffffff1681565b60056020528060005260406000206000915054906101000a900460ff1681565b6000819050919050565b6105ba816105a7565b82525050565b60006020820190506105d560008301846105b1565b92915050565b600073ffffffffffffffffffffffffffffffffffffffff82169050919050565b6000819050919050565b600061062061061b610616846105db565b6105fb565b6105db565b9050919050565b600061063282610605565b9050919050565b600061064482610627565b9050919050565b61065481610639565b82525050565b600060208201905061066f600083018461064b565b92915050565b6000604051905090565b600080fd5b600080fd5b6000601f19601f8301169050919050565b7f4e487b7100000000000000000000000000000000000000000000000000000000600052604160045260246000fd5b6106d282610689565b810181811067ffffffffffffffff821117156106f1576106f061069a565b5b80604052505050565b6000610704610675565b905061071082826106c9565b919050565b600067ffffffffffffffff8211156107305761072f61069a565b5b602082029050919050565b600080fd5b610749816105a7565b811461075457600080fd5b50565b60008135905061076681610740565b92915050565b600061077f61077a84610715565b6106fa565b905080602084028301858111156107995761079861073b565b5b835b818110156107c257806107ae8882610757565b84526020840193505060208101905061079b565b5050509392505050565b600082601f8301126107e1576107e0610684565b5b60026107ee84828561076c565b91505092915050565b600067ffffffffffffffff8211156108125761081161069a565b5b602082029050919050565b600061083061082b846107f7565b6106fa565b9050806040840283018581111561084a5761084961073b565b5b835b81811015610873578061085f88826107cc565b84526020840193505060408101905061084c565b5050509392505050565b600082601f83011261089257610891610684565b5b600261089f84828561081d565b91505092915050565b600067ffffffffffffffff8211156108c3576108c261069a565b5b602082029050919050565b60006108e16108dc846108a8565b6106fa565b905080602084028301858111156108fb576108fa61073b565b5b835b8181101561092457806109108882610757565b8452602084019350506020810190506108fd565b5050509392505050565b600082601f83011261094357610942610684565b5b60036109508482856108ce565b91505092915050565b60008060008061016085870312156109745761097361067f565b5b6000610982878288016107cc565b94505060406109938782880161087d565b93505060c06109a4878288016107cc565b9250506101006109b68782880161092e565b91505092959194509250565b6000602082840312156109d8576109d761067f565b5b60006109e684828501610757565b91505092915050565b60006109fa826105db565b9050919050565b610a0a816109ef565b82525050565b6000602082019050610a256000830184610a01565b92915050565b60008115159050919050565b610a4081610a2b565b82525050565b6000602082019050610a5b6000830184610a37565b92915050565b600082825260208201905092915050565b7f566f74696e6720686173206e6f742073746172746564207965742e0000000000600082015250565b6000610aa8601b83610a61565b9150610ab382610a72565b602082019050919050565b60006020820190508181036000830152610ad781610a9b565b9050919050565b7f4e487b7100000000000000000000000000000000000000000000000000000000600052603260045260246000fd5b7f496e76616c6964204d65726b6c6520526f6f742e000000000000000000000000600082015250565b6000610b43601483610a61565b9150610b4e82610b0d565b602082019050919050565b60006020820190508181036000830152610b7281610b36565b9050919050565b7f566f74652068617320616c7265616479206265656e20636173742e0000000000600082015250565b6000610baf601b83610a61565b9150610bba82610b79565b602082019050919050565b60006020820190508181036000830152610bde81610ba2565b9050919050565b600060029050919050565b600081905092915050565b6000819050919050565b610c0e816105a7565b82525050565b6000610c208383610c05565b60208301905092915050565b6000602082019050919050565b610c4281610be5565b610c4c8184610bf0565b9250610c5782610bfb565b8060005b83811015610c88578151610c6f8782610c14565b9650610c7a83610c2c565b925050600181019050610c5b565b505050505050565b600060029050919050565b600081905092915050565b6000819050919050565b600081905092915050565b610cc481610be5565b610cce8184610cb0565b9250610cd982610bfb565b8060005b83811015610d0a578151610cf18782610c14565b9650610cfc83610c2c565b925050600181019050610cdd565b505050505050565b6000610d1e8383610cbb565b60408301905092915050565b6000602082019050919050565b610d4081610c90565b610d4a8184610c9b565b9250610d5582610ca6565b8060005b83811015610d86578151610d6d8782610d12565b9650610d7883610d2a565b925050600181019050610d59565b505050505050565b600060039050919050565b600081905092915050565b6000819050919050565b6000602082019050919050565b610dc481610d8e565b610dce8184610d99565b9250610dd982610da4565b8060005b83811015610e0a578151610df18782610c14565b9650610dfc83610dae565b925050600181019050610ddd565b505050505050565b600061016082019050610e286000830187610c39565b610e356040830186610d37565b610e4260c0830185610c39565b610e50610100830184610dbb565b95945050505050565b610e6281610a2b565b8114610e6d57600080fd5b50565b600081519050610e7f81610e59565b92915050565b600060208284031215610e9b57610e9a61067f565b5b6000610ea984828501610e70565b91505092915050565b7f496e76616c6964205a4b2070726f6f662e000000000000000000000000000000600082015250565b6000610ee8601183610a61565b9150610ef382610eb2565b602082019050919050565b60006020820190508181036000830152610f1781610edb565b9050919050565b7f4e487b7100000000000000000000000000000000000000000000000000000000600052601160045260246000fd5b6000610f58826105a7565b91507fffffffffffffffffffffffffffffffffffffffffffffffffffffffffffffffff8203610f8a57610f89610f1e565b5b600182019050919050565b7f4f6e6c79206f776e65722063616e2063616c6c20746869732066756e6374696f60008201527f6e2e000000000000000000000000000000000000000000000000000000000000602082015250565b6000610ff1602283610a61565b9150610ffc82610f95565b604082019050919050565b6000602082019050818103600083015261102081610fe4565b905091905056fea26469706673582212205823d1d666f62f38870276aa30b54d8198ce6440e0efc7e83dd7a6d3985eac2364736f6c63430008140033","opcodes":"PUSH1 0x80 PUSH1 0x40 MSTORE CALLVALUE DUP1 ISZERO PUSH3 0x11 JUMPI PUSH1 0x0 DUP1 REVERT JUMPDEST POP PUSH1 0x40 MLOAD PUSH3 0x1220 CODESIZE SUB DUP1 PUSH3 0x1220 DUP4 CODECOPY DUP2 DUP2 ADD PUSH1 0x40 MSTORE DUP2 ADD SWAP1 PUSH3 0x37 SWAP2 SWAP1 PUSH3 0x16C JUMP JUMPDEST CALLER PUSH1 0x0 DUP1 PUSH2 0x100 EXP DUP2 SLOAD DUP2 PUSH20 0xFFFFFFFFFFFFFFFFFFFFFFFFFFFFFFFFFFFFFFFF MUL NOT AND SWAP1 DUP4 PUSH20 0xFFFFFFFFFFFFFFFFFFFFFFFFFFFFFFFFFFFFFFFF AND MUL OR SWAP1 SSTORE POP DUP2 PUSH1 0x1 PUSH1 0x0 PUSH2 0x100 EXP DUP2 SLOAD DUP2 PUSH20 0xFFFFFFFFFFFFFFFFFFFFFFFFFFFFFFFFFFFFFFFF MUL NOT AND SWAP1 DUP4 PUSH20 0xFFFFFFFFFFFFFFFFFFFFFFFFFFFFFFFFFFFFFFFF AND MUL OR SWAP1 SSTORE POP DUP1 PUSH1 0x3 DUP2 SWAP1 SSTORE POP POP POP PUSH3 0x1B3 JUMP JUMPDEST PUSH1 0x0 DUP1 REVERT JUMPDEST PUSH1 0x0 PUSH20 0xFFFFFFFFFFFFFFFFFFFFFFFFFFFFFFFFFFFFFFFF DUP3 AND SWAP1 POP SWAP2 SWAP1 POP JUMP JUMPDEST PUSH1 0x0 PUSH3 0xF9 DUP3 PUSH3 0xCC JUMP JUMPDEST SWAP1 POP SWAP2 SWAP1 POP JUMP JUMPDEST PUSH3 0x10B DUP2 PUSH3 0xEC JUMP JUMPDEST DUP2 EQ PUSH3 0x117 JUMPI PUSH1 0x0 DUP1 REVERT JUMPDEST POP JUMP JUMPDEST PUSH1 0x0 DUP2 MLOAD SWAP1 POP PUSH3 0x12B DUP2 PUSH3 0x100 JUMP JUMPDEST SWAP3 SWAP2 POP POP JUMP JUMPDEST PUSH1 0x0 DUP2 SWAP1 POP SWAP2 SWAP1 POP JUMP JUMPDEST PUSH3 0x146 DUP2 PUSH3 0x131 JUMP JUMPDEST DUP2 EQ PUSH3 0x152 JUMPI PUSH1 0x0 DUP1 REVERT JUMPDEST POP JUMP JUMPDEST PUSH1 0x0 DUP2 MLOAD SWAP1 POP PUSH3 0x166 DUP2 PUSH3 0x13B JUMP JUMPDEST SWAP3 SWAP2 POP POP JUMP JUMPDEST PUSH1 0x0 DUP1 PUSH1 0x40 DUP4 DUP6 SUB SLT ISZERO PUSH3 0x186 JUMPI PUSH3 0x185 PUSH3 0xC7 JUMP JUMPDEST JUMPDEST PUSH1 0x0 PUSH3 0x196 DUP6 DUP3 DUP7 ADD PUSH3 0x11A JUMP JUMPDEST SWAP3 POP POP PUSH1 0x20 PUSH3 0x1A9 DUP6 DUP3 DUP7 ADD PUSH3 0x155 JUMP JUMPDEST SWAP2 POP POP SWAP3 POP SWAP3 SWAP1 POP JUMP JUMPDEST PUSH2 0x105D DUP1 PUSH3 0x1C3 PUSH1 0x0 CODECOPY PUSH1 0x0 RETURN INVALID PUSH1 0x80 PUSH1 0x40 MSTORE CALLVALUE DUP1 ISZERO PUSH2 0x10 JUMPI PUSH1 0x0 DUP1 REVERT JUMPDEST POP PUSH1 0x4 CALLDATASIZE LT PUSH2 0x88 JUMPI PUSH1 0x0 CALLDATALOAD PUSH1 0xE0 SHR DUP1 PUSH4 0x3C3A220D GT PUSH2 0x5B JUMPI DUP1 PUSH4 0x3C3A220D EQ PUSH2 0x103 JUMPI DUP1 PUSH4 0x5D5E8875 EQ PUSH2 0x133 JUMPI DUP1 PUSH4 0x8DA5CB5B EQ PUSH2 0x14F JUMPI DUP1 PUSH4 0xAAD24061 EQ PUSH2 0x16D JUMPI PUSH2 0x88 JUMP JUMPDEST DUP1 PUSH4 0x51364D4 EQ PUSH2 0x8D JUMPI DUP1 PUSH4 0x2B7AC3F3 EQ PUSH2 0xAB JUMPI DUP1 PUSH4 0x2C7D783B EQ PUSH2 0xC9 JUMPI DUP1 PUSH4 0x2EB4A7AB EQ PUSH2 0xE5 JUMPI JUMPDEST PUSH1 0x0 DUP1 REVERT JUMPDEST PUSH2 0x95 PUSH2 0x19D JUMP JUMPDEST PUSH1 0x40 MLOAD PUSH2 0xA2 SWAP2 SWAP1 PUSH2 0x5C0 JUMP JUMPDEST PUSH1 0x40 MLOAD DUP1 SWAP2 SUB SWAP1 RETURN JUMPDEST PUSH2 0xB3 PUSH2 0x1A3 JUMP JUMPDEST PUSH1 0x40 MLOAD PUSH2 0xC0 SWAP2 SWAP1 PUSH2 0x65A JUMP JUMPDEST PUSH1 0x40 MLOAD DUP1 SWAP2 SUB SWAP1 RETURN JUMPDEST PUSH2 0xE3 PUSH1 0x4 DUP1 CALLDATASIZE SUB DUP2 ADD SWAP1 PUSH2 0xDE SWAP2 SWAP1 PUSH2 0x959 JUMP JUMPDEST PUSH2 0x1C9 JUMP JUMPDEST STOP JUMPDEST PUSH2 0xED PUSH2 0x476 JUMP JUMPDEST PUSH1 0x40 MLOAD PUSH2 0xFA SWAP2 SWAP1 PUSH2 0x5C0 JUMP JUMPDEST PUSH1 0x40 MLOAD DUP1 SWAP2 SUB SWAP1 RETURN JUMPDEST PUSH2 0x11D PUSH1 0x4 DUP1 CALLDATASIZE SUB DUP2 ADD SWAP1 PUSH2 0x118 SWAP2 SWAP1 PUSH2 0x9C2 JUMP JUMPDEST PUSH2 0x47C JUMP JUMPDEST PUSH1 0x40 MLOAD PUSH2 0x12A SWAP2 SWAP1 PUSH2 0x5C0 JUMP JUMPDEST PUSH1 0x40 MLOAD DUP1 SWAP2 SUB SWAP1 RETURN JUMPDEST PUSH2 0x14D PUSH1 0x4 DUP1 CALLDATASIZE SUB DUP2 ADD SWAP1 PUSH2 0x148 SWAP2 SWAP1 PUSH2 0x9C2 JUMP JUMPDEST PUSH2 0x494 JUMP JUMPDEST STOP JUMPDEST PUSH2 0x157 PUSH2 0x563 JUMP JUMPDEST PUSH1 0x40 MLOAD PUSH2 0x164 SWAP2 SWAP1 PUSH2 0xA10 JUMP JUMPDEST PUSH1 0x40 MLOAD DUP1 SWAP2 SUB SWAP1 RETURN JUMPDEST PUSH2 0x187 PUSH1 0x4 DUP1 CALLDATASIZE SUB DUP2 ADD SWAP1 PUSH2 0x182 SWAP2 SWAP1 PUSH2 0x9C2 JUMP JUMPDEST PUSH2 0x587 JUMP JUMPDEST PUSH1 0x40 MLOAD PUSH2 0x194 SWAP2 SWAP1 PUSH2 0xA46 JUMP JUMPDEST PUSH1 0x40 MLOAD DUP1 SWAP2 SUB SWAP1 RETURN JUMPDEST PUSH1 0x3 SLOAD DUP2 JUMP JUMPDEST PUSH1 0x1 PUSH1 0x0 SWAP1 SLOAD SWAP1 PUSH2 0x100 EXP SWAP1 DIV PUSH20 0xFFFFFFFFFFFFFFFFFFFFFFFFFFFFFFFFFFFFFFFF AND DUP2 JUMP JUMPDEST PUSH1 0x0 PUSH1 0x2 SLOAD SUB PUSH2 0x20E JUMPI PUSH1 0x40 MLOAD PUSH32 0x8C379A000000000000000000000000000000000000000000000000000000000 DUP2 MSTORE PUSH1 0x4 ADD PUSH2 0x205 SWAP1 PUSH2 0xABE JUMP JUMPDEST PUSH1 0x40 MLOAD DUP1 SWAP2 SUB SWAP1 REVERT JUMPDEST PUSH1 0x2 SLOAD DUP2 PUSH1 0x0 PUSH1 0x3 DUP2 LT PUSH2 0x225 JUMPI PUSH2 0x224 PUSH2 0xADE JUMP JUMPDEST JUMPDEST PUSH1 0x20 MUL ADD MLOAD EQ PUSH2 0x26A JUMPI PUSH1 0x40 MLOAD PUSH32 0x8C379A000000000000000000000000000000000000000000000000000000000 DUP2 MSTORE PUSH1 0x4 ADD PUSH2 0x261 SWAP1 PUSH2 0xB59 JUMP JUMPDEST PUSH1 0x40 MLOAD DUP1 SWAP2 SUB SWAP1 REVERT JUMPDEST PUSH1 0x0 DUP2 PUSH1 0x2 PUSH1 0x3 DUP2 LT PUSH2 0x280 JUMPI PUSH2 0x27F PUSH2 0xADE JUMP JUMPDEST JUMPDEST PUSH1 0x20 MUL ADD MLOAD SWAP1 POP PUSH1 0x5 PUSH1 0x0 DUP3 DUP2 MSTORE PUSH1 0x20 ADD SWAP1 DUP2 MSTORE PUSH1 0x20 ADD PUSH1 0x0 KECCAK256 PUSH1 0x0 SWAP1 SLOAD SWAP1 PUSH2 0x100 EXP SWAP1 DIV PUSH1 0xFF AND ISZERO PUSH2 0x2E8 JUMPI PUSH1 0x40 MLOAD PUSH32 0x8C379A000000000000000000000000000000000000000000000000000000000 DUP2 MSTORE PUSH1 0x4 ADD PUSH2 0x2DF SWAP1 PUSH2 0xBC5 JUMP JUMPDEST PUSH1 0x40 MLOAD DUP1 SWAP2 SUB SWAP1 REVERT JUMPDEST PUSH1 0x0 PUSH1 0x1 PUSH1 0x0 SWAP1 SLOAD SWAP1 PUSH2 0x100 EXP SWAP1 DIV PUSH20 0xFFFFFFFFFFFFFFFFFFFFFFFFFFFFFFFFFFFFFFFF AND PUSH20 0xFFFFFFFFFFFFFFFFFFFFFFFFFFFFFFFFFFFFFFFF AND PUSH4 0x11479FEA DUP8 DUP8 DUP8 DUP8 PUSH1 0x40 MLOAD DUP6 PUSH4 0xFFFFFFFF AND PUSH1 0xE0 SHL DUP2 MSTORE PUSH1 0x4 ADD PUSH2 0x34B SWAP5 SWAP4 SWAP3 SWAP2 SWAP1 PUSH2 0xE12 JUMP JUMPDEST PUSH1 0x20 PUSH1 0x40 MLOAD DUP1 DUP4 SUB DUP2 DUP7 GAS STATICCALL ISZERO DUP1 ISZERO PUSH2 0x368 JUMPI RETURNDATASIZE PUSH1 0x0 DUP1 RETURNDATACOPY RETURNDATASIZE PUSH1 0x0 REVERT JUMPDEST POP POP POP POP PUSH1 0x40 MLOAD RETURNDATASIZE PUSH1 0x1F NOT PUSH1 0x1F DUP3 ADD AND DUP3 ADD DUP1 PUSH1 0x40 MSTORE POP DUP2 ADD SWAP1 PUSH2 0x38C SWAP2 SWAP1 PUSH2 0xE85 JUMP JUMPDEST SWAP1 POP DUP1 PUSH2 0x3CE JUMPI PUSH1 0x40 MLOAD PUSH32 0x8C379A000000000000000000000000000000000000000000000000000000000 DUP2 MSTORE PUSH1 0x4 ADD PUSH2 0x3C5 SWAP1 PUSH2 0xEFE JUMP JUMPDEST PUSH1 0x40 MLOAD DUP1 SWAP2 SUB SWAP1 REVERT JUMPDEST PUSH1 0x1 PUSH1 0x5 PUSH1 0x0 DUP5 DUP2 MSTORE PUSH1 0x20 ADD SWAP1 DUP2 MSTORE PUSH1 0x20 ADD PUSH1 0x0 KECCAK256 PUSH1 0x0 PUSH2 0x100 EXP DUP2 SLOAD DUP2 PUSH1 0xFF MUL NOT AND SWAP1 DUP4 ISZERO ISZERO MUL OR SWAP1 SSTORE POP PUSH1 0x0 DUP4 PUSH1 0x1 PUSH1 0x3 DUP2 LT PUSH2 0x410 JUMPI PUSH2 0x40F PUSH2 0xADE JUMP JUMPDEST JUMPDEST PUSH1 0x20 MUL ADD MLOAD SWAP1 POP PUSH1 0x4 PUSH1 0x0 DUP3 DUP2 MSTORE PUSH1 0x20 ADD SWAP1 DUP2 MSTORE PUSH1 0x20 ADD PUSH1 0x0 KECCAK256 PUSH1 0x0 DUP2 SLOAD DUP1 SWAP3 SWAP2 SWAP1 PUSH2 0x43B SWAP1 PUSH2 0xF4D JUMP JUMPDEST SWAP2 SWAP1 POP SSTORE POP DUP1 PUSH32 0x9593D9BD30EFF4872EC3BAB10360AD82EAAC80651801E68F47F0674C38415C3D PUSH1 0x40 MLOAD PUSH1 0x40 MLOAD DUP1 SWAP2 SUB SWAP1 LOG2 POP POP POP POP POP POP POP JUMP JUMPDEST PUSH1 0x2 SLOAD DUP2 JUMP JUMPDEST PUSH1 0x4 PUSH1 0x20 MSTORE DUP1 PUSH1 0x0 MSTORE PUSH1 0x40 PUSH1 0x0 KECCAK256 PUSH1 0x0 SWAP2 POP SWAP1 POP SLOAD DUP2 JUMP JUMPDEST PUSH1 0x0 DUP1 SLOAD SWAP1 PUSH2 0x100 EXP SWAP1 DIV PUSH20 0xFFFFFFFFFFFFFFFFFFFFFFFFFFFFFFFFFFFFFFFF AND PUSH20 0xFFFFFFFFFFFFFFFFFFFFFFFFFFFFFFFFFFFFFFFF AND CALLER PUSH20 0xFFFFFFFFFFFFFFFFFFFFFFFFFFFFFFFFFFFFFFFF AND EQ PUSH2 0x522 JUMPI PUSH1 0x40 MLOAD PUSH32 0x8C379A000000000000000000000000000000000000000000000000000000000 DUP2 MSTORE PUSH1 0x4 ADD PUSH2 0x519 SWAP1 PUSH2 0x1007 JUMP JUMPDEST PUSH1 0x40 MLOAD DUP1 SWAP2 SUB SWAP1 REVERT JUMPDEST DUP1 PUSH1 0x2 DUP2 SWAP1 SSTORE POP PUSH32 0x6E5A142E5C3C536CE6CDC71895FC55C97DF6AD3432CD3759A9F784CA35FF447E DUP2 PUSH1 0x40 MLOAD PUSH2 0x558 SWAP2 SWAP1 PUSH2 0x5C0 JUMP JUMPDEST PUSH1 0x40 MLOAD DUP1 SWAP2 SUB SWAP1 LOG1 POP JUMP JUMPDEST PUSH1 0x0 DUP1 SLOAD SWAP1 PUSH2 0x100 EXP SWAP1 DIV PUSH20 0xFFFFFFFFFFFFFFFFFFFFFFFFFFFFFFFFFFFFFFFF AND DUP2 JUMP JUMPDEST PUSH1 0x5 PUSH1 0x20 MSTORE DUP1 PUSH1 0x0 MSTORE PUSH1 0x40 PUSH1 0x0 KECCAK256 PUSH1 0x0 SWAP2 POP SLOAD SWAP1 PUSH2 0x100 EXP SWAP1 DIV PUSH1 0xFF AND DUP2 JUMP JUMPDEST PUSH1 0x0 DUP2 SWAP1 POP SWAP2 SWAP1 POP JUMP JUMPDEST PUSH2 0x5BA DUP2 PUSH2 0x5A7 JUMP JUMPDEST DUP3 MSTORE POP POP JUMP JUMPDEST PUSH1 0x0 PUSH1 0x20 DUP3 ADD SWAP1 POP PUSH2 0x5D5 PUSH1 0x0 DUP4 ADD DUP5 PUSH2 0x5B1 JUMP JUMPDEST SWAP3 SWAP2 POP POP JUMP JUMPDEST PUSH1 0x0 PUSH20 0xFFFFFFFFFFFFFFFFFFFFFFFFFFFFFFFFFFFFFFFF DUP3 AND SWAP1 POP SWAP2 SWAP1 POP JUMP JUMPDEST PUSH1 0x0 DUP2 SWAP1 POP SWAP2 SWAP1 POP JUMP JUMPDEST PUSH1 0x0 PUSH2 0x620 PUSH2 0x61B PUSH2 0x616 DUP5 PUSH2 0x5DB JUMP JUMPDEST PUSH2 0x5FB JUMP JUMPDEST PUSH2 0x5DB JUMP JUMPDEST SWAP1 POP SWAP2 SWAP1 POP JUMP JUMPDEST PUSH1 0x0 PUSH2 0x632 DUP3 PUSH2 0x605 JUMP JUMPDEST SWAP1 POP SWAP2 SWAP1 POP JUMP JUMPDEST PUSH1 0x0 PUSH2 0x644 DUP3 PUSH2 0x627 JUMP JUMPDEST SWAP1 POP SWAP2 SWAP1 POP JUMP JUMPDEST PUSH2 0x654 DUP2 PUSH2 0x639 JUMP JUMPDEST DUP3 MSTORE POP POP JUMP JUMPDEST PUSH1 0x0 PUSH1 0x20 DUP3 ADD SWAP1 POP PUSH2 0x66F PUSH1 0x0 DUP4 ADD DUP5 PUSH2 0x64B JUMP JUMPDEST SWAP3 SWAP2 POP POP JUMP JUMPDEST PUSH1 0x0 PUSH1 0x40 MLOAD SWAP1 POP SWAP1 JUMP JUMPDEST PUSH1 0x0 DUP1 REVERT JUMPDEST PUSH1 0x0 DUP1 REVERT JUMPDEST PUSH1 0x0 PUSH1 0x1F NOT PUSH1 0x1F DUP4 ADD AND SWAP1 POP SWAP2 SWAP1 POP JUMP JUMPDEST PUSH32 0x4E487B7100000000000000000000000000000000000000000000000000000000 PUSH1 0x0 MSTORE PUSH1 0x41 PUSH1 0x4 MSTORE PUSH1 0x24 PUSH1 0x0 REVERT JUMPDEST PUSH2 0x6D2 DUP3 PUSH2 0x689 JUMP JUMPDEST DUP2 ADD DUP2 DUP2 LT PUSH8 0xFFFFFFFFFFFFFFFF DUP3 GT OR ISZERO PUSH2 0x6F1 JUMPI PUSH2 0x6F0 PUSH2 0x69A JUMP JUMPDEST JUMPDEST DUP1 PUSH1 0x40 MSTORE POP POP POP JUMP JUMPDEST PUSH1 0x0 PUSH2 0x704 PUSH2 0x675 JUMP JUMPDEST SWAP1 POP PUSH2 0x710 DUP3 DUP3 PUSH2 0x6C9 JUMP JUMPDEST SWAP2 SWAP1 POP JUMP JUMPDEST PUSH1 0x0 PUSH8 0xFFFFFFFFFFFFFFFF DUP3 GT ISZERO PUSH2 0x730 JUMPI PUSH2 0x72F PUSH2 0x69A JUMP JUMPDEST JUMPDEST PUSH1 0x20 DUP3 MUL SWAP1 POP SWAP2 SWAP1 POP JUMP JUMPDEST PUSH1 0x0 DUP1 REVERT JUMPDEST PUSH2 0x749 DUP2 PUSH2 0x5A7 JUMP JUMPDEST DUP2 EQ PUSH2 0x754 JUMPI PUSH1 0x0 DUP1 REVERT JUMPDEST POP JUMP JUMPDEST PUSH1 0x0 DUP2 CALLDATALOAD SWAP1 POP PUSH2 0x766 DUP2 PUSH2 0x740 JUMP JUMPDEST SWAP3 SWAP2 POP POP JUMP JUMPDEST PUSH1 0x0 PUSH2 0x77F PUSH2 0x77A DUP5 PUSH2 0x715 JUMP JUMPDEST PUSH2 0x6FA JUMP JUMPDEST SWAP1 POP DUP1 PUSH1 0x20 DUP5 MUL DUP4 ADD DUP6 DUP2 GT ISZERO PUSH2 0x799 JUMPI PUSH2 0x798 PUSH2 0x73B JUMP JUMPDEST JUMPDEST DUP4 JUMPDEST DUP2 DUP2 LT ISZERO PUSH2 0x7C2 JUMPI DUP1 PUSH2 0x7AE DUP9 DUP3 PUSH2 0x757 JUMP JUMPDEST DUP5 MSTORE PUSH1 0x20 DUP5 ADD SWAP4 POP POP PUSH1 0x20 DUP2 ADD SWAP1 POP PUSH2 0x79B JUMP JUMPDEST POP POP POP SWAP4 SWAP3 POP POP POP JUMP JUMPDEST PUSH1 0x0 DUP3 PUSH1 0x1F DUP4 ADD SLT PUSH2 0x7E1 JUMPI PUSH2 0x7E0 PUSH2 0x684 JUMP JUMPDEST JUMPDEST PUSH1 0x2 PUSH2 0x7EE DUP5 DUP3 DUP6 PUSH2 0x76C JUMP JUMPDEST SWAP2 POP POP SWAP3 SWAP2 POP POP JUMP JUMPDEST PUSH1 0x0 PUSH8 0xFFFFFFFFFFFFFFFF DUP3 GT ISZERO PUSH2 0x812 JUMPI PUSH2 0x811 PUSH2 0x69A JUMP JUMPDEST JUMPDEST PUSH1 0x20 DUP3 MUL SWAP1 POP SWAP2 SWAP1 POP JUMP JUMPDEST PUSH1 0x0 PUSH2 0x830 PUSH2 0x82B DUP5 PUSH2 0x7F7 JUMP JUMPDEST PUSH2 0x6FA JUMP JUMPDEST SWAP1 POP DUP1 PUSH1 0x40 DUP5 MUL DUP4 ADD DUP6 DUP2 GT ISZERO PUSH2 0x84A JUMPI PUSH2 0x849 PUSH2 0x73B JUMP JUMPDEST JUMPDEST DUP4 JUMPDEST DUP2 DUP2 LT ISZERO PUSH2 0x873 JUMPI DUP1 PUSH2 0x85F DUP9 DUP3 PUSH2 0x7CC JUMP JUMPDEST DUP5 MSTORE PUSH1 0x20 DUP5 ADD SWAP4 POP POP PUSH1 0x40 DUP2 ADD SWAP1 POP PUSH2 0x84C JUMP JUMPDEST POP POP POP SWAP4 SWAP3 POP POP POP JUMP JUMPDEST PUSH1 0x0 DUP3 PUSH1 0x1F DUP4 ADD SLT PUSH2 0x892 JUMPI PUSH2 0x891 PUSH2 0x684 JUMP JUMPDEST JUMPDEST PUSH1 0x2 PUSH2 0x89F DUP5 DUP3 DUP6 PUSH2 0x81D JUMP JUMPDEST SWAP2 POP POP SWAP3 SWAP2 POP POP JUMP JUMPDEST PUSH1 0x0 PUSH8 0xFFFFFFFFFFFFFFFF DUP3 GT ISZERO PUSH2 0x8C3 JUMPI PUSH2 0x8C2 PUSH2 0x69A JUMP JUMPDEST JUMPDEST PUSH1 0x20 DUP3 MUL SWAP1 POP SWAP2 SWAP1 POP JUMP JUMPDEST PUSH1 0x0 PUSH2 0x8E1 PUSH2 0x8DC DUP5 PUSH2 0x8A8 JUMP JUMPDEST PUSH2 0x6FA JUMP JUMPDEST SWAP1 POP DUP1 PUSH1 0x20 DUP5 MUL DUP4 ADD DUP6 DUP2 GT ISZERO PUSH2 0x8FB JUMPI PUSH2 0x8FA PUSH2 0x73B JUMP JUMPDEST JUMPDEST DUP4 JUMPDEST DUP2 DUP2 LT ISZERO PUSH2 0x924 JUMPI DUP1 PUSH2 0x910 DUP9 DUP3 PUSH2 0x757 JUMP JUMPDEST DUP5 MSTORE PUSH1 0x20 DUP5 ADD SWAP4 POP POP PUSH1 0x20 DUP2 ADD SWAP1 POP PUSH2 0x8FD JUMP JUMPDEST POP POP POP SWAP4 SWAP3 POP POP POP JUMP JUMPDEST PUSH1 0x0 DUP3 PUSH1 0x1F DUP4 ADD SLT PUSH2 0x943 JUMPI PUSH2 0x942 PUSH2 0x684 JUMP JUMPDEST JUMPDEST PUSH1 0x3 PUSH2 0x950 DUP5 DUP3 DUP6 PUSH2 0x8CE JUMP JUMPDEST SWAP2 POP POP SWAP3 SWAP2 POP POP JUMP JUMPDEST PUSH1 0x0 DUP1 PUSH1 0x0 DUP1 PUSH2 0x160 DUP6 DUP8 SUB SLT ISZERO PUSH2 0x974 JUMPI PUSH2 0x973 PUSH2 0x67F JUMP JUMPDEST JUMPDEST PUSH1 0x0 PUSH2 0x982 DUP8 DUP3 DUP9 ADD PUSH2 0x7CC JUMP JUMPDEST SWAP5 POP POP PUSH1 0x40 PUSH2 0x993 DUP8 DUP3 DUP9 ADD PUSH2 0x87D JUMP JUMPDEST SWAP4 POP POP PUSH1 0xC0 PUSH2 0x9A4 DUP8 DUP3 DUP9 ADD PUSH2 0x7CC JUMP JUMPDEST SWAP3 POP POP PUSH2 0x100 PUSH2 0x9B6 DUP8 DUP3 DUP9 ADD PUSH2 0x92E JUMP JUMPDEST SWAP2 POP POP SWAP3 SWAP6 SWAP2 SWAP5 POP SWAP3 POP JUMP JUMPDEST PUSH1 0x0 PUSH1 0x20 DUP3 DUP5 SUB SLT ISZERO PUSH2 0x9D8 JUMPI PUSH2 0x9D7 PUSH2 0x67F JUMP JUMPDEST JUMPDEST PUSH1 0x0 PUSH2 0x9E6 DUP5 DUP3 DUP6 ADD PUSH2 0x757 JUMP JUMPDEST SWAP2 POP POP SWAP3 SWAP2 POP POP JUMP JUMPDEST PUSH1 0x0 PUSH2 0x9FA DUP3 PUSH2 0x5DB JUMP JUMPDEST SWAP1 POP SWAP2 SWAP1 POP JUMP JUMPDEST PUSH2 0xA0A DUP2 PUSH2 0x9EF JUMP JUMPDEST DUP3 MSTORE POP POP JUMP JUMPDEST PUSH1 0x0 PUSH1 0x20 DUP3 ADD SWAP1 POP PUSH2 0xA25 PUSH1 0x0 DUP4 ADD DUP5 PUSH2 0xA01 JUMP JUMPDEST SWAP3 SWAP2 POP POP JUMP JUMPDEST PUSH1 0x0 DUP2 ISZERO ISZERO SWAP1 POP SWAP2 SWAP1 POP JUMP JUMPDEST PUSH2 0xA40 DUP2 PUSH2 0xA2B JUMP JUMPDEST DUP3 MSTORE POP POP JUMP JUMPDEST PUSH1 0x0 PUSH1 0x20 DUP3 ADD SWAP1 POP PUSH2 0xA5B PUSH1 0x0 DUP4 ADD DUP5 PUSH2 0xA37 JUMP JUMPDEST SWAP3 SWAP2 POP POP JUMP JUMPDEST PUSH1 0x0 DUP3 DUP3 MSTORE PUSH1 0x20 DUP3 ADD SWAP1 POP SWAP3 SWAP2 POP POP JUMP JUMPDEST PUSH32 0x566F74696E6720686173206E6F742073746172746564207965742E0000000000 PUSH1 0x0 DUP3 ADD MSTORE POP JUMP JUMPDEST PUSH1 0x0 PUSH2 0xAA8 PUSH1 0x1B DUP4 PUSH2 0xA61 JUMP JUMPDEST SWAP2 POP PUSH2 0xAB3 DUP3 PUSH2 0xA72 JUMP JUMPDEST PUSH1 0x20 DUP3 ADD SWAP1 POP SWAP2 SWAP1 POP JUMP JUMPDEST PUSH1 0x0 PUSH1 0x20 DUP3 ADD SWAP1 POP DUP2 DUP2 SUB PUSH1 0x0 DUP4 ADD MSTORE PUSH2 0xAD7 DUP2 PUSH2 0xA9B JUMP JUMPDEST SWAP1 POP SWAP2 SWAP1 POP JUMP JUMPDEST PUSH32 0x4E487B7100000000000000000000000000000000000000000000000000000000 PUSH1 0x0 MSTORE PUSH1 0x32 PUSH1 0x4 MSTORE PUSH1 0x24 PUSH1 0x0 REVERT JUMPDEST PUSH32 0x496E76616C6964204D65726B6C6520526F6F742E000000000000000000000000 PUSH1 0x0 DUP3 ADD MSTORE POP JUMP JUMPDEST PUSH1 0x0 PUSH2 0xB43 PUSH1 0x14 DUP4 PUSH2 0xA61 JUMP JUMPDEST SWAP2 POP PUSH2 0xB4E DUP3 PUSH2 0xB0D JUMP JUMPDEST PUSH1 0x20 DUP3 ADD SWAP1 POP SWAP2 SWAP1 POP JUMP JUMPDEST PUSH1 0x0 PUSH1 0x20 DUP3 ADD SWAP1 POP DUP2 DUP2 SUB PUSH1 0x0 DUP4 ADD MSTORE PUSH2 0xB72 DUP2 PUSH2 0xB36 JUMP JUMPDEST SWAP1 POP SWAP2 SWAP1 POP JUMP JUMPDEST PUSH32 0x566F74652068617320616C7265616479206265656E20636173742E0000000000 PUSH1 0x0 DUP3 ADD MSTORE POP JUMP JUMPDEST PUSH1 0x0 PUSH2 0xBAF PUSH1 0x1B DUP4 PUSH2 0xA61 JUMP JUMPDEST SWAP2 POP PUSH2 0xBBA DUP3 PUSH2 0xB79 JUMP JUMPDEST PUSH1 0x20 DUP3 ADD SWAP1 POP SWAP2 SWAP1 POP JUMP JUMPDEST PUSH1 0x0 PUSH1 0x20 DUP3 ADD SWAP1 POP DUP2 DUP2 SUB PUSH1 0x0 DUP4 ADD MSTORE PUSH2 0xBDE DUP2 PUSH2 0xBA2 JUMP JUMPDEST SWAP1 POP SWAP2 SWAP1 POP JUMP JUMPDEST PUSH1 0x0 PUSH1 0x2 SWAP1 POP SWAP2 SWAP1 POP JUMP JUMPDEST PUSH1 0x0 DUP2 SWAP1 POP SWAP3 SWAP2 POP POP JUMP JUMPDEST PUSH1 0x0 DUP2 SWAP1 POP SWAP2 SWAP1 POP JUMP JUMPDEST PUSH2 0xC0E DUP2 PUSH2 0x5A7 JUMP JUMPDEST DUP3 MSTORE POP POP JUMP JUMPDEST PUSH1 0x0 PUSH2 0xC20 DUP4 DUP4 PUSH2 0xC05 JUMP JUMPDEST PUSH1 0x20 DUP4 ADD SWAP1 POP SWAP3 SWAP2 POP POP JUMP JUMPDEST PUSH1 0x0 PUSH1 0x20 DUP3 ADD SWAP1 POP SWAP2 SWAP1 POP JUMP JUMPDEST PUSH2 0xC42 DUP2 PUSH2 0xBE5 JUMP JUMPDEST PUSH2 0xC4C DUP2 DUP5 PUSH2 0xBF0 JUMP JUMPDEST SWAP3 POP PUSH2 0xC57 DUP3 PUSH2 0xBFB JUMP JUMPDEST DUP1 PUSH1 0x0 JUMPDEST DUP4 DUP2 LT ISZERO PUSH2 0xC88 JUMPI DUP2 MLOAD PUSH2 0xC6F DUP8 DUP3 PUSH2 0xC14 JUMP JUMPDEST SWAP7 POP PUSH2 0xC7A DUP4 PUSH2 0xC2C JUMP JUMPDEST SWAP3 POP POP PUSH1 0x1 DUP2 ADD SWAP1 POP PUSH2 0xC5B JUMP JUMPDEST POP POP POP POP POP POP JUMP JUMPDEST PUSH1 0x0 PUSH1 0x2 SWAP1 POP SWAP2 SWAP1 POP JUMP JUMPDEST PUSH1 0x0 DUP2 SWAP1 POP SWAP3 SWAP2 POP POP JUMP JUMPDEST PUSH1 0x0 DUP2 SWAP1 POP SWAP2 SWAP1 POP JUMP JUMPDEST PUSH1 0x0 DUP2 SWAP1 POP SWAP3 SWAP2 POP POP JUMP JUMPDEST PUSH2 0xCC4 DUP2 PUSH2 0xBE5 JUMP JUMPDEST PUSH2 0xCCE DUP2 DUP5 PUSH2 0xCB0 JUMP JUMPDEST SWAP3 POP PUSH2 0xCD9 DUP3 PUSH2 0xBFB JUMP JUMPDEST DUP1 PUSH1 0x0 JUMPDEST DUP4 DUP2 LT ISZERO PUSH2 0xD0A JUMPI DUP2 MLOAD PUSH2 0xCF1 DUP8 DUP3 PUSH2 0xC14 JUMP JUMPDEST SWAP7 POP PUSH2 0xCFC DUP4 PUSH2 0xC2C JUMP JUMPDEST SWAP3 POP POP PUSH1 0x1 DUP2 ADD SWAP1 POP PUSH2 0xCDD JUMP JUMPDEST POP POP POP POP POP POP JUMP JUMPDEST PUSH1 0x0 PUSH2 0xD1E DUP4 DUP4 PUSH2 0xCBB JUMP JUMPDEST PUSH1 0x40 DUP4 ADD SWAP1 POP SWAP3 SWAP2 POP POP JUMP JUMPDEST PUSH1 0x0 PUSH1 0x20 DUP3 ADD SWAP1 POP SWAP2 SWAP1 POP JUMP JUMPDEST PUSH2 0xD40 DUP2 PUSH2 0xC90 JUMP JUMPDEST PUSH2 0xD4A DUP2 DUP5 PUSH2 0xC9B JUMP JUMPDEST SWAP3 POP PUSH2 0xD55 DUP3 PUSH2 0xCA6 JUMP JUMPDEST DUP1 PUSH1 0x0 JUMPDEST DUP4 DUP2 LT ISZERO PUSH2 0xD86 JUMPI DUP2 MLOAD PUSH2 0xD6D DUP8 DUP3 PUSH2 0xD12 JUMP JUMPDEST SWAP7 POP PUSH2 0xD78 DUP4 PUSH2 0xD2A JUMP JUMPDEST SWAP3 POP POP PUSH1 0x1 DUP2 ADD SWAP1 POP PUSH2 0xD59 JUMP JUMPDEST POP POP POP POP POP POP JUMP JUMPDEST PUSH1 0x0 PUSH1 0x3 SWAP1 POP SWAP2 SWAP1 POP JUMP JUMPDEST PUSH1 0x0 DUP2 SWAP1 POP SWAP3 SWAP2 POP POP JUMP JUMPDEST PUSH1 0x0 DUP2 SWAP1 POP SWAP2 SWAP1 POP JUMP JUMPDEST PUSH1 0x0 PUSH1 0x20 DUP3 ADD SWAP1 POP SWAP2 SWAP1 POP JUMP JUMPDEST PUSH2 0xDC4 DUP2 PUSH2 0xD8E JUMP JUMPDEST PUSH2 0xDCE DUP2 DUP5 PUSH2 0xD99 JUMP JUMPDEST SWAP3 POP PUSH2 0xDD9 DUP3 PUSH2 0xDA4 JUMP JUMPDEST DUP1 PUSH1 0x0 JUMPDEST DUP4 DUP2 LT ISZERO PUSH2 0xE0A JUMPI DUP2 MLOAD PUSH2 0xDF1 DUP8 DUP3 PUSH2 0xC14 JUMP JUMPDEST SWAP7 POP PUSH2 0xDFC DUP4 PUSH2 0xDAE JUMP JUMPDEST SWAP3 POP POP PUSH1 0x1 DUP2 ADD SWAP1 POP PUSH2 0xDDD JUMP JUMPDEST POP POP POP POP POP POP JUMP JUMPDEST PUSH1 0x0 PUSH2 0x160 DUP3 ADD SWAP1 POP PUSH2 0xE28 PUSH1 0x0 DUP4 ADD DUP8 PUSH2 0xC39 JUMP JUMPDEST PUSH2 0xE35 PUSH1 0x40 DUP4 ADD DUP7 PUSH2 0xD37 JUMP JUMPDEST PUSH2 0xE42 PUSH1 0xC0 DUP4 ADD DUP6 PUSH2 0xC39 JUMP JUMPDEST PUSH2 0xE50 PUSH2 0x100 DUP4 ADD DUP5 PUSH2 0xDBB JUMP JUMPDEST SWAP6 SWAP5 POP POP POP POP POP JUMP JUMPDEST PUSH2 0xE62 DUP2 PUSH2 0xA2B JUMP JUMPDEST DUP2 EQ PUSH2 0xE6D JUMPI PUSH1 0x0 DUP1 REVERT JUMPDEST POP JUMP JUMPDEST PUSH1 0x0 DUP2 MLOAD SWAP1 POP PUSH2 0xE7F DUP2 PUSH2 0xE59 JUMP JUMPDEST SWAP3 SWAP2 POP POP JUMP JUMPDEST PUSH1 0x0 PUSH1 0x20 DUP3 DUP5 SUB SLT ISZERO PUSH2 0xE9B JUMPI PUSH2 0xE9A PUSH2 0x67F JUMP JUMPDEST JUMPDEST PUSH1 0x0 PUSH2 0xEA9 DUP5 DUP3 DUP6 ADD PUSH2 0xE70 JUMP JUMPDEST SWAP2 POP POP SWAP3 SWAP2 POP POP JUMP JUMPDEST PUSH32 0x496E76616C6964205A4B2070726F6F662E000000000000000000000000000000 PUSH1 0x0 DUP3 ADD MSTORE POP JUMP JUMPDEST PUSH1 0x0 PUSH2 0xEE8 PUSH1 0x11 DUP4 PUSH2 0xA61 JUMP JUMPDEST SWAP2 POP PUSH2 0xEF3 DUP3 PUSH2 0xEB2 JUMP JUMPDEST PUSH1 0x20 DUP3 ADD SWAP1 POP SWAP2 SWAP1 POP JUMP JUMPDEST PUSH1 0x0 PUSH1 0x20 DUP3 ADD SWAP1 POP DUP2 DUP2 SUB PUSH1 0x0 DUP4 ADD MSTORE PUSH2 0xF17 DUP2 PUSH2 0xEDB JUMP JUMPDEST SWAP1 POP SWAP2 SWAP1 POP JUMP JUMPDEST PUSH32 0x4E487B7100000000000000000000000000000000000000000000000000000000 PUSH1 0x0 MSTORE PUSH1 0x11 PUSH1 0x4 MSTORE PUSH1 0x24 PUSH1 0x0 REVERT JUMPDEST PUSH1 0x0 PUSH2 0xF58 DUP3 PUSH2 0x5A7 JUMP JUMPDEST SWAP2 POP PUSH32 0xFFFFFFFFFFFFFFFFFFFFFFFFFFFFFFFFFFFFFFFFFFFFFFFFFFFFFFFFFFFFFFFF DUP3 SUB PUSH2 0xF8A JUMPI PUSH2 0xF89 PUSH2 0xF1E JUMP JUMPDEST JUMPDEST PUSH1 0x1 DUP3 ADD SWAP1 POP SWAP2 SWAP1 POP JUMP JUMPDEST PUSH32 0x4F6E6C79206F776E65722063616E2063616C6C20746869732066756E6374696F PUSH1 0x0 DUP3 ADD MSTORE PUSH32 0x6E2E000000000000000000000000000000000000000000000000000000000000 PUSH1 0x20 DUP3 ADD MSTORE POP JUMP JUMPDEST PUSH1 0x0 PUSH2 0xFF1 PUSH1 0x22 DUP4 PUSH2 0xA61 JUMP JUMPDEST SWAP2 POP PUSH2 0xFFC DUP3 PUSH2 0xF95 JUMP JUMPDEST PUSH1 0x40 DUP3 ADD SWAP1 POP SWAP2 SWAP1 POP JUMP JUMPDEST PUSH1 0x0 PUSH1 0x20 DUP3 ADD SWAP1 POP DUP2 DUP2 SUB PUSH1 0x0 DUP4 ADD MSTORE PUSH2 0x1020 DUP2 PUSH2 0xFE4 JUMP JUMPDEST SWAP1 POP SWAP2 SWAP1 POP JUMP INVALID LOG2 PUSH5 0x6970667358 0x22 SLT KECCAK256 PC 0x23 0xD1 0xD6 PUSH7 0xF62F38870276AA ADDRESS 0xB5 0x4D DUP2 SWAP9 0xCE PUSH5 0x40E0EFC7E8 RETURNDATASIZE 0xD7 0xA6 0xD3 SWAP9 0x5E 0xAC 0x23 PUSH5 0x736F6C6343 STOP ADDMOD EQ STOP CALLER "},"methodIdentifiers":{"electionId()":"051364d4","merkleRoot()":"2eb4a7ab","owner()":"8da5cb5b","setMerkleRoot(uint256)":"5d5e8875","submitTally(uint256[2],uint256[2][2],uint256[2],uint256[3])":"2c7d783b","usedNullifiers(uint256)":"aad24061","verifier()":"2b7ac3f3","voteCounts(uint256)":"3c3a220d"}}}}}