{"contracts/VotingTally.sol":{"VotingTally":{"abi":[{"inputs":[{"internalType":"address","name":"_verifierAddress","type":"address"},{"internalType":"uint256","name":"_electionId","type":"uint256"}],"stateMutability":"nonpayable","type":"constructor"},{"anonymous":false,"inputs":[{"indexed":false,"internalType":"uint256","name":"root","type":"uint256"}],"name":"MerkleRootSet","type":"event"},{"anonymous":false,"inputs":[{"indexed":true,"internalType":"uint256","name":"candidateIndex","type":"uint256"}],"name":"VoteCast","type":"event"},{"inputs":[],"name":"electionId","outputs":[{"internalType":"uint256","name":"","type":"uint256"}],"stateMutability":"view","type":"function"},{"inputs":[],"name":"merkleRoot","outputs":[{"internalType":"uint256","name":"","type":"uint256"}],"stateMutability":"view","type":"function"},{"inputs":[],"name":"owner","outputs":[{"internalType":"address","name":"","type":"address"}],"stateMutability":"view","type":"function"},{"inputs":[{"internalType":"uint256","name":"_root","type":"uint256"}],"name":"setMerkleRoot","outputs":[],"stateMutability":"nonpayable","type":"function"},{"inputs":[{"internalType":"uint256","name":"_startTime","type":"uint256"},{"internalType":"uint256","name":"_endTime","type":"uint256"}],"name":"setVotingPeriod","outputs":[],"stateMutability":"nonpayable","type":"function"},{"inputs":[{"internalType":"uint256[2]","name":"a","type":"uint256[2]"},{"internalType":"uint256[2][2]","name":"b","type":"uint256[2][2]"},{"internalType":"uint256[2]","name":"c","type":"uint256[2]"},{"internalType":"uint256[3]","name":"input","type":"uint256[3]"}],"name":"submitTally","outputs":[],"stateMutability":"nonpayable","type":"function"},{"inputs":[{"internalType":"uint256","name":"","type":"uint256"}],"name":"usedNullifiers","outputs":[{"internalType":"bool","name":"","type":"bool"}],"stateMutability":"view","type":"function"},{"inputs":[],"name":"verifier","outputs":[{"internalType":"contract IVerifier","name":"","type":"address"}],"stateMutability":"view","type":"function"},{"inputs":[{"internalType":"uint256","name":"","type":"uint256"}],"name":"voteCounts","outputs":[{"internalType":"uint256","name":"","type":"uint256"}],"stateMutability":"view","type":"function"},{"inputs":[],"name":"votingEndTime","outputs":[{"internalType":"uint256","name":"","type":"uint256"}],"stateMutability":"view","type":"function"},{"inputs":[],"name":"votingStartTime","outputs":[{"internalType":"uint256","name":"","type":"uint256"}],"stateMutability":"view","type":"function"}],"evm":{"bytecode":{"linkReferences":{},"object":"60806040523480156200001157600080fd5b50604051620015ba380380620015ba83398181016040528101906200003791906200016c565b336000806101000a81548173ffffffffffffffffffffffffffffffffffffffff021916908373ffffffffffffffffffffffffffffffffffffffff16021790555081600160006101000a81548173ffffffffffffffffffffffffffffffffffffffff021916908373ffffffffffffffffffffffffffffffffffffffff160217905550806003819055505050620001b3565b600080fd5b600073ffffffffffffffffffffffffffffffffffffffff82169050919050565b6000620000f982620000cc565b9050919050565b6200010b81620000ec565b81146200011757600080fd5b50565b6000815190506200012b8162000100565b92915050565b6000819050919050565b620001468162000131565b81146200015257600080fd5b50565b60008151905062000166816200013b565b92915050565b60008060408385031215620001865762000185620000c7565b5b600062000196858286016200011a565b9250506020620001a98582860162000155565b9150509250929050565b6113f780620001c36000396000f3fe608060405234801561001057600080fd5b50600436106100a95760003560e01c80632eb4a7ab116100715780632eb4a7ab146101425780633c3a220d146101605780635d5e8875146101905780638da5cb5b146101ac578063a15a36c7146101ca578063aad24061146101e6576100a9565b8063051364d4146100ae5780631ea736e0146100cc5780632019a608146100ea5780632b7ac3f3146101085780632c7d783b14610126575b600080fd5b6100b6610216565b6040516100c391906107b0565b60405180910390f35b6100d461021c565b6040516100e191906107b0565b60405180910390f35b6100f2610222565b6040516100ff91906107b0565b60405180910390f35b610110610228565b60405161011d919061084a565b60405180910390f35b610140600480360381019061013b9190610b49565b61024e565b005b61014a610584565b60405161015791906107b0565b60405180910390f35b61017a60048036038101906101759190610bb2565b61058a565b60405161018791906107b0565b60405180910390f35b6101aa60048036038101906101a59190610bb2565b6105a2565b005b6101b4610671565b6040516101c19190610c00565b60405180910390f35b6101e460048036038101906101df9190610c1b565b610695565b005b61020060048036038101906101fb9190610bb2565b610777565b60405161020d9190610c76565b60405180910390f35b60035481565b60055481565b60045481565b600160009054906101000a900473ffffffffffffffffffffffffffffffffffffffff1681565b600454421015610293576040517f08c379a000000000000000000000000000000000000000000000000000000000815260040161028a90610cee565b60405180910390fd5b60055442106102d7576040517f08c379a00000000000000000000000000000000000000000000000000000000081526004016102ce90610d5a565b60405180910390fd5b60006002540361031c576040517f08c379a000000000000000000000000000000000000000000000000000000000815260040161031390610dc6565b60405180910390fd5b6002548160006003811061033357610332610de6565b5b602002015114610378576040517f08c379a000000000000000000000000000000000000000000000000000000000815260040161036f90610e61565b60405180910390fd5b60008160026003811061038e5761038d610de6565b5b602002015190506007600082815260200190815260200160002060009054906101000a900460ff16156103f6576040517f08c379a00000000000000000000000000000000000000000000000000000000081526004016103ed90610ecd565b60405180910390fd5b6000600160009054906101000a900473ffffffffffffffffffffffffffffffffffffffff1673ffffffffffffffffffffffffffffffffffffffff166311479fea878787876040518563ffffffff1660e01b8152600401610459949392919061111a565b602060405180830381865afa158015610476573d6000803e3d6000fd5b505050506040513d601f19601f8201168201806040525081019061049a919061118d565b9050806104dc576040517f08c379a00000000000000000000000000000000000000000000000000000000081526004016104d390611206565b60405180910390fd5b60016007600084815260200190815260200160002060006101000a81548160ff02191690831515021790555060008360016003811061051e5761051d610de6565b5b6020020151905060066000828152602001908152602001600020600081548092919061054990611255565b9190505550807f9593d9bd30eff4872ec3bab10360ad82eaac80651801e68f47f0674c38415c3d60405160405180910390a250505050505050565b60025481565b60066020528060005260406000206000915090505481565b60008054906101000a900473ffffffffffffffffffffffffffffffffffffffff1673ffffffffffffffffffffffffffffffffffffffff163373ffffffffffffffffffffffffffffffffffffffff1614610630576040517f08c379a00000000000000000000000000000000000000000000000000000000081526004016106279061130f565b60405180910390fd5b806002819055507f6e5a142e5c3c536ce6cdc71895fc55c97df6ad3432cd3759a9f784ca35ff447e8160405161066691906107b0565b60405180910390a150565b60008054906101000a900473ffffffffffffffffffffffffffffffffffffffff1681565b60008054906101000a900473ffffffffffffffffffffffffffffffffffffffff1673ffffffffffffffffffffffffffffffffffffffff163373ffffffffffffffffffffffffffffffffffffffff1614610723576040517f08c379a000000000000000000000000000000000000000000000000000000000815260040161071a9061130f565b60405180910390fd5b808210610765576040517f08c379a000000000000000000000000000000000000000000000000000000000815260040161075c906113a1565b60405180910390fd5b81600481905550806005819055505050565b60076020528060005260406000206000915054906101000a900460ff1681565b6000819050919050565b6107aa81610797565b82525050565b60006020820190506107c560008301846107a1565b92915050565b600073ffffffffffffffffffffffffffffffffffffffff82169050919050565b6000819050919050565b600061081061080b610806846107cb565b6107eb565b6107cb565b9050919050565b6000610822826107f5565b9050919050565b600061083482610817565b9050919050565b61084481610829565b82525050565b600060208201905061085f600083018461083b565b92915050565b6000604051905090565b600080fd5b600080fd5b6000601f19601f8301169050919050565b7f4e487b7100000000000000000000000000000000000000000000000000000000600052604160045260246000fd5b6108c282610879565b810181811067ffffffffffffffff821117156108e1576108e061088a565b5b80604052505050565b60006108f4610865565b905061090082826108b9565b919050565b600067ffffffffffffffff8211156109205761091f61088a565b5b602082029050919050565b600080fd5b61093981610797565b811461094457600080fd5b50565b60008135905061095681610930565b92915050565b600061096f61096a84610905565b6108ea565b905080602084028301858111156109895761098861092b565b5b835b818110156109b2578061099e8882610947565b84526020840193505060208101905061098b565b5050509392505050565b600082601f8301126109d1576109d0610874565b5b60026109de84828561095c565b91505092915050565b600067ffffffffffffffff821115610a0257610a0161088a565b5b602082029050919050565b6000610a20610a1b846109e7565b6108ea565b90508060408402830185811115610a3a57610a3961092b565b5b835b81811015610a635780610a4f88826109bc565b845260208401935050604081019050610a3c565b5050509392505050565b600082601f830112610a8257610a81610874565b5b6002610a8f848285610a0d565b91505092915050565b600067ffffffffffffffff821115610ab357610ab261088a565b5b602082029050919050565b6000610ad1610acc84610a98565b6108ea565b90508060208402830185811115610aeb57610aea61092b565b5b835b81811015610b145780610b008882610947565b845260208401935050602081019050610aed565b5050509392505050565b600082601f830112610b3357610b32610874565b5b6003610b40848285610abe565b91505092915050565b6000806000806101608587031215610b6457610b6361086f565b5b6000610b72878288016109bc565b9450506040610b8387828801610a6d565b93505060c0610b94878288016109bc565b925050610100610ba687828801610b1e565b91505092959194509250565b600060208284031215610bc857610bc761086f565b5b6000610bd684828501610947565b91505092915050565b6000610bea826107cb565b9050919050565b610bfa81610bdf565b82525050565b6000602082019050610c156000830184610bf1565b92915050565b60008060408385031215610c3257610c3161086f565b5b6000610c4085828601610947565b9250506020610c5185828601610947565b9150509250929050565b60008115159050919050565b610c7081610c5b565b82525050565b6000602082019050610c8b6000830184610c67565b92915050565b600082825260208201905092915050565b7f566f74696e6720686173206e6f20737461727465642079657400000000000000600082015250565b6000610cd8601983610c91565b9150610ce382610ca2565b602082019050919050565b60006020820190508181036000830152610d0781610ccb565b9050919050565b7f566f74696e672068617320656e64656400000000000000000000000000000000600082015250565b6000610d44601083610c91565b9150610d4f82610d0e565b602082019050919050565b60006020820190508181036000830152610d7381610d37565b9050919050565b7f566f74696e6720686173206e6f742073746172746564207965742e0000000000600082015250565b6000610db0601b83610c91565b9150610dbb82610d7a565b602082019050919050565b60006020820190508181036000830152610ddf81610da3565b9050919050565b7f4e487b7100000000000000000000000000000000000000000000000000000000600052603260045260246000fd5b7f496e76616c6964204d65726b6c6520526f6f742e000000000000000000000000600082015250565b6000610e4b601483610c91565b9150610e5682610e15565b602082019050919050565b60006020820190508181036000830152610e7a81610e3e565b9050919050565b7f566f74652068617320616c7265616479206265656e20636173742e0000000000600082015250565b6000610eb7601b83610c91565b9150610ec282610e81565b602082019050919050565b60006020820190508181036000830152610ee681610eaa565b9050919050565b600060029050919050565b600081905092915050565b6000819050919050565b610f1681610797565b82525050565b6000610f288383610f0d565b60208301905092915050565b6000602082019050919050565b610f4a81610eed565b610f548184610ef8565b9250610f5f82610f03565b8060005b83811015610f90578151610f778782610f1c565b9650610f8283610f34565b925050600181019050610f63565b505050505050565b600060029050919050565b600081905092915050565b6000819050919050565b600081905092915050565b610fcc81610eed565b610fd68184610fb8565b9250610fe182610f03565b8060005b83811015611012578151610ff98782610f1c565b965061100483610f34565b925050600181019050610fe5565b505050505050565b60006110268383610fc3565b60408301905092915050565b6000602082019050919050565b61104881610f98565b6110528184610fa3565b925061105d82610fae565b8060005b8381101561108e578151611075878261101a565b965061108083611032565b925050600181019050611061565b505050505050565b600060039050919050565b600081905092915050565b6000819050919050565b6000602082019050919050565b6110cc81611096565b6110d681846110a1565b92506110e1826110ac565b8060005b838110156111125781516110f98782610f1c565b9650611104836110b6565b9250506001810190506110e5565b505050505050565b6000610160820190506111306000830187610f41565b61113d604083018661103f565b61114a60c0830185610f41565b6111586101008301846110c3565b95945050505050565b61116a81610c5b565b811461117557600080fd5b50565b60008151905061118781611161565b92915050565b6000602082840312156111a3576111a261086f565b5b60006111b184828501611178565b91505092915050565b7f496e76616c6964205a4b2070726f6f662e000000000000000000000000000000600082015250565b60006111f0601183610c91565b91506111fb826111ba565b602082019050919050565b6000602082019050818103600083015261121f816111e3565b9050919050565b7f4e487b7100000000000000000000000000000000000000000000000000000000600052601160045260246000fd5b600061126082610797565b91507fffffffffffffffffffffffffffffffffffffffffffffffffffffffffffffffff820361129257611291611226565b5b600182019050919050565b7f4f6e6c79206f776e65722063616e2063616c6c20746869732066756e6374696f60008201527f6e2e000000000000000000000000000000000000000000000000000000000000602082015250565b60006112f9602283610c91565b91506113048261129d565b604082019050919050565b60006020820190508181036000830152611328816112ec565b9050919050565b7f53746172742074696d65206d757374206265206265666f726520656e6420746960008201527f6d65000000000000000000000000000000000000000000000000000000000000602082015250565b600061138b602283610c91565b91506113968261132f565b604082019050919050565b600060208201905081810360008301526113ba8161137e565b905091905056fea2646970667358221220d2c20f7389114f748d26111054c1490044980bfc265fd00ce384b191945dac8564736f6c63430008140033","opcodes":"PUSH1 0x80 PUSH1 0x40 MSTORE CALLVALUE DUP1 ISZERO PUSH3 0x11 JUMPI PUSH1 0x0 DUP1 REVERT JUMPDEST POP PUSH1 0x40 MLOAD PUSH3 0x15BA CODESIZE SUB DUP1 PUSH3 0x15BA DUP4 CODECOPY DUP2 DUP2 ADD PUSH1 0x40 MSTORE DUP2 ADD SWAP1 PUSH3 0x37 SWAP2 SWAP1 PUSH3 0x16C JUMP JUMPDEST CALLER PUSH1 0x0 DUP1 PUSH2 0x100 EXP DUP2 SLOAD DUP2 PUSH20 0xFFFFFFFFFFFFFFFFFFFFFFFFFFFFFFFFFFFFFFFF MUL NOT AND SWAP1 DUP4 PUSH20 0xFFFFFFFFFFFFFFFFFFFFFFFFFFFFFFFFFFFFFFFF AND MUL OR SWAP1 SSTORE POP DUP2 PUSH1 0x1 PUSH1 0x0 PUSH2 0x100 EXP DUP2 SLOAD DUP2 PUSH20 0xFFFFFFFFFFFFFFFFFFFFFFFFFFFFFFFFFFFFFFFF MUL NOT AND SWAP1 DUP4 PUSH20 0xFFFFFFFFFFFFFFFFFFFFFFFFFFFFFFFFFFFFFFFF AND MUL OR SWAP1 SSTORE POP DUP1 PUSH1 0x3 DUP2 SWAP1 SSTORE POP POP POP PUSH3 0x1B3 JUMP JUMPDEST PUSH1 0x0 DUP1 REVERT JUMPDEST PUSH1 0x0 PUSH20 0xFFFFFFFFFFFFFFFFFFFFFFFFFFFFFFFFFFFFFFFF DUP3 AND SWAP1 POP SWAP2 SWAP1 POP JUMP JUMPDEST PUSH1 0x0 PUSH3 0xF9 DUP3 PUSH3 0xCC JUMP JUMPDEST SWAP1 POP SWAP2 SWAP1 POP JUMP JUMPDEST PUSH3 0x10B DUP2 PUSH3 0xEC JUMP JUMPDEST DUP2 EQ PUSH3 0x117 JUMPI PUSH1 0x0 DUP1 REVERT JUMPDEST POP JUMP JUMPDEST PUSH1 0x0 DUP2 MLOAD SWAP1 POP PUSH3 0x12B DUP2 PUSH3 0x100 JUMP JUMPDEST SWAP3 SWAP2 POP POP JUMP JUMPDEST PUSH1 0x0 DUP2 SWAP1 POP SWAP2 SWAP1 POP JUMP JUMPDEST PUSH3 0x146 DUP2 PUSH3 0x131 JUMP JUMPDEST DUP2 EQ PUSH3 0x152 JUMPI PUSH1 0x0 DUP1 REVERT JUMPDEST POP JUMP JUMPDEST PUSH1 0x0 DUP2 MLOAD SWAP1 POP PUSH3 0x166 DUP2 PUSH3 0x13B JUMP JUMPDEST SWAP3 SWAP2 POP POP JUMP JUMPDEST PUSH1 0x0 DUP1 PUSH1 0x40 DUP4 DUP6 SUB SLT ISZERO PUSH3 0x186 JUMPI PUSH3 0x185 PUSH3 0xC7 JUMP JUMPDEST JUMPDEST PUSH1 0x0 PUSH3 0x196 DUP6 DUP3 DUP7 ADD PUSH3 0x11A JUMP JUMPDEST SWAP3 POP POP PUSH1 0x20 PUSH3 0x1A9 DUP6 DUP3 DUP7 ADD PUSH3 0x155 JUMP JUMPDEST SWAP2 POP POP SWAP3 POP SWAP3 SWAP1 POP JUMP JUMPDEST PUSH2 0x13F7 DUP1 PUSH3 0x1C3 PUSH1 0x0 CODECOPY PUSH1 0x0 RETURN INVALID PUSH1 0x80 PUSH1 0x40 MSTORE CALLVALUE DUP1 ISZERO PUSH2 0x10 JUMPI PUSH1 0x0 DUP1 REVERT JUMPDEST POP PUSH1 0x4 CALLDATASIZE LT PUSH2 0xA9 JUMPI PUSH1 0x0 CALLDATALOAD PUSH1 0xE0 SHR DUP1 PUSH4 0x2EB4A7AB GT PUSH2 0x71 JUMPI DUP1 PUSH4 0x2EB4A7AB EQ PUSH2 0x142 JUMPI DUP1 PUSH4 0x3C3A220D EQ PUSH2 0x160 JUMPI DUP1 PUSH4 0x5D5E8875 EQ PUSH2 0x190 JUMPI DUP1 PUSH4 0x8DA5CB5B EQ PUSH2 0x1AC JUMPI DUP1 PUSH4 0xA15A36C7 EQ PUSH2 0x1CA JUMPI DUP1 PUSH4 0xAAD24061 EQ PUSH2 0x1E6 JUMPI PUSH2 0xA9 JUMP JUMPDEST DUP1 PUSH4 0x51364D4 EQ PUSH2 0xAE JUMPI DUP1 PUSH4 0x1EA736E0 EQ PUSH2 0xCC JUMPI DUP1 PUSH4 0x2019A608 EQ PUSH2 0xEA JUMPI DUP1 PUSH4 0x2B7AC3F3 EQ PUSH2 0x108 JUMPI DUP1 PUSH4 0x2C7D783B EQ PUSH2 0x126 JUMPI JUMPDEST PUSH1 0x0 DUP1 REVERT JUMPDEST PUSH2 0xB6 PUSH2 0x216 JUMP JUMPDEST PUSH1 0x40 MLOAD PUSH2 0xC3 SWAP2 SWAP1 PUSH2 0x7B0 JUMP JUMPDEST PUSH1 0x40 MLOAD DUP1 SWAP2 SUB SWAP1 RETURN JUMPDEST PUSH2 0xD4 PUSH2 0x21C JUMP JUMPDEST PUSH1 0x40 MLOAD PUSH2 0xE1 SWAP2 SWAP1 PUSH2 0x7B0 JUMP JUMPDEST PUSH1 0x40 MLOAD DUP1 SWAP2 SUB SWAP1 RETURN JUMPDEST PUSH2 0xF2 PUSH2 0x222 JUMP JUMPDEST PUSH1 0x40 MLOAD PUSH2 0xFF SWAP2 SWAP1 PUSH2 0x7B0 JUMP JUMPDEST PUSH1 0x40 MLOAD DUP1 SWAP2 SUB SWAP1 RETURN JUMPDEST PUSH2 0x110 PUSH2 0x228 JUMP JUMPDEST PUSH1 0x40 MLOAD PUSH2 0x11D SWAP2 SWAP1 PUSH2 0x84A JUMP JUMPDEST PUSH1 0x40 MLOAD DUP1 SWAP2 SUB SWAP1 RETURN JUMPDEST PUSH2 0x140 PUSH1 0x4 DUP1 CALLDATASIZE SUB DUP2 ADD SWAP1 PUSH2 0x13B SWAP2 SWAP1 PUSH2 0xB49 JUMP JUMPDEST PUSH2 0x24E JUMP JUMPDEST STOP JUMPDEST PUSH2 0x14A PUSH2 0x584 JUMP JUMPDEST PUSH1 0x40 MLOAD PUSH2 0x157 SWAP2 SWAP1 PUSH2 0x7B0 JUMP JUMPDEST PUSH1 0x40 MLOAD DUP1 SWAP2 SUB SWAP1 RETURN JUMPDEST PUSH2 0x17A PUSH1 0x4 DUP1 CALLDATASIZE SUB DUP2 ADD SWAP1 PUSH2 0x175 SWAP2 SWAP1 PUSH2 0xBB2 JUMP JUMPDEST PUSH2 0x58A JUMP JUMPDEST PUSH1 0x40 MLOAD PUSH2 0x187 SWAP2 SWAP1 PUSH2 0x7B0 JUMP JUMPDEST PUSH1 0x40 MLOAD DUP1 SWAP2 SUB SWAP1 RETURN JUMPDEST PUSH2 0x1AA PUSH1 0x4 DUP1 CALLDATASIZE SUB DUP2 ADD SWAP1 PUSH2 0x1A5 SWAP2 SWAP1 PUSH2 0xBB2 JUMP JUMPDEST PUSH2 0x5A2 JUMP JUMPDEST STOP JUMPDEST PUSH2 0x1B4 PUSH2 0x671 JUMP JUMPDEST PUSH1 0x40 MLOAD PUSH2 0x1C1 SWAP2 SWAP1 PUSH2 0xC00 JUMP JUMPDEST PUSH1 0x40 MLOAD DUP1 SWAP2 SUB SWAP1 RETURN JUMPDEST PUSH2 0x1E4 PUSH1 0x4 DUP1 CALLDATASIZE SUB DUP2 ADD SWAP1 PUSH2 0x1DF SWAP2 SWAP1 PUSH2 0xC1B JUMP JUMPDEST PUSH2 0x695 JUMP JUMPDEST STOP JUMPDEST PUSH2 0x200 PUSH1 0x4 DUP1 CALLDATASIZE SUB DUP2 ADD SWAP1 PUSH2 0x1FB SWAP2 SWAP1 PUSH2 0xBB2 JUMP JUMPDEST PUSH2 0x777 JUMP JUMPDEST PUSH1 0x40 MLOAD PUSH2 0x20D SWAP2 SWAP1 PUSH2 0xC76 JUMP JUMPDEST PUSH1 0x40 MLOAD DUP1 SWAP2 SUB SWAP1 RETURN JUMPDEST PUSH1 0x3 SLOAD DUP2 JUMP JUMPDEST PUSH1 0x5 SLOAD DUP2 JUMP JUMPDEST PUSH1 0x4 SLOAD DUP2 JUMP JUMPDEST PUSH1 0x1 PUSH1 0x0 SWAP1 SLOAD SWAP1 PUSH2 0x100 EXP SWAP1 DIV PUSH20 0xFFFFFFFFFFFFFFFFFFFFFFFFFFFFFFFFFFFFFFFF AND DUP2 JUMP JUMPDEST PUSH1 0x4 SLOAD TIMESTAMP LT ISZERO PUSH2 0x293 JUMPI PUSH1 0x40 MLOAD PUSH32 0x8C379A000000000000000000000000000000000000000000000000000000000 DUP2 MSTORE PUSH1 0x4 ADD PUSH2 0x28A SWAP1 PUSH2 0xCEE JUMP JUMPDEST PUSH1 0x40 MLOAD DUP1 SWAP2 SUB SWAP1 REVERT JUMPDEST PUSH1 0x5 SLOAD TIMESTAMP LT PUSH2 0x2D7 JUMPI PUSH1 0x40 MLOAD PUSH32 0x8C379A000000000000000000000000000000000000000000000000000000000 DUP2 MSTORE PUSH1 0x4 ADD PUSH2 0x2CE SWAP1 PUSH2 0xD5A JUMP JUMPDEST PUSH1 0x40 MLOAD DUP1 SWAP2 SUB SWAP1 REVERT JUMPDEST PUSH1 0x0 PUSH1 0x2 SLOAD SUB PUSH2 0x31C JUMPI PUSH1 0x40 MLOAD PUSH32 0x8C379A000000000000000000000000000000000000000000000000000000000 DUP2 MSTORE PUSH1 0x4 ADD PUSH2 0x313 SWAP1 PUSH2 0xDC6 JUMP JUMPDEST PUSH1 0x40 MLOAD DUP1 SWAP2 SUB SWAP1 REVERT JUMPDEST PUSH1 0x2 SLOAD DUP2 PUSH1 0x0 PUSH1 0x3 DUP2 LT PUSH2 0x333 JUMPI PUSH2 0x332 PUSH2 0xDE6 JUMP JUMPDEST JUMPDEST PUSH1 0x20 MUL ADD MLOAD EQ PUSH2 0x378 JUMPI PUSH1 0x40 MLOAD PUSH32 0x8C379A000000000000000000000000000000000000000000000000000000000 DUP2 MSTORE PUSH1 0x4 ADD PUSH2 0x36F SWAP1 PUSH2 0xE61 JUMP JUMPDEST PUSH1 0x40 MLOAD DUP1 SWAP2 SUB SWAP1 REVERT JUMPDEST PUSH1 0x0 DUP2 PUSH1 0x2 PUSH1 0x3 DUP2 LT PUSH2 0x38E JUMPI PUSH2 0x38D PUSH2 0xDE6 JUMP JUMPDEST JUMPDEST PUSH1 0x20 MUL ADD MLOAD SWAP1 POP PUSH1 0x7 PUSH1 0x0 DUP3 DUP2 MSTORE PUSH1 0x20 ADD SWAP1 DUP2 MSTORE PUSH1 0x20 ADD PUSH1 0x0 KECCAK256 PUSH1 0x0 SWAP1 SLOAD SWAP1 PUSH2 0x100 EXP SWAP1 DIV PUSH1 0xFF AND ISZERO PUSH2 0x3F6 JUMPI PUSH1 0x40 MLOAD PUSH32 0x8C379A000000000000000000000000000000000000000000000000000000000 DUP2 MSTORE PUSH1 0x4 ADD PUSH2 0x3ED SWAP1 PUSH2 0xECD JUMP JUMPDEST PUSH1 0x40 MLOAD DUP1 SWAP2 SUB SWAP1 REVERT JUMPDEST PUSH1 0x0 PUSH1 0x1 PUSH1 0x0 SWAP1 SLOAD SWAP1 PUSH2 0x100 EXP SWAP1 DIV PUSH20 0xFFFFFFFFFFFFFFFFFFFFFFFFFFFFFFFFFFFFFFFF AND PUSH20 0xFFFFFFFFFFFFFFFFFFFFFFFFFFFFFFFFFFFFFFFF AND PUSH4 0x11479FEA DUP8 DUP8 DUP8 DUP8 PUSH1 0x40 MLOAD DUP6 PUSH4 0xFFFFFFFF AND PUSH1 0xE0 SHL DUP2 MSTORE PUSH1 0x4 ADD PUSH2 0x459 SWAP5 SWAP4 SWAP3 SWAP2 SWAP1 PUSH2 0x111A JUMP JUMPDEST PUSH1 0x20 PUSH1 0x40 MLOAD DUP1 DUP4 SUB DUP2 DUP7 GAS STATICCALL ISZERO DUP1 ISZERO PUSH2 0x476 JUMPI RETURNDATASIZE PUSH1 0x0 DUP1 RETURNDATACOPY RETURNDATASIZE PUSH1 0x0 REVERT JUMPDEST POP POP POP POP PUSH1 0x40 MLOAD RETURNDATASIZE PUSH1 0x1F NOT PUSH1 0x1F DUP3 ADD AND DUP3 ADD DUP1 PUSH1 0x40 MSTORE POP DUP2 ADD SWAP1 PUSH2 0x49A SWAP2 SWAP1 PUSH2 0x118D JUMP JUMPDEST SWAP1 POP DUP1 PUSH2 0x4DC JUMPI PUSH1 0x40 MLOAD PUSH32 0x8C379A000000000000000000000000000000000000000000000000000000000 DUP2 MSTORE PUSH1 0x4 ADD PUSH2 0x4D3 SWAP1 PUSH2 0x1206 JUMP JUMPDEST PUSH1 0x40 MLOAD DUP1 SWAP2 SUB SWAP1 REVERT JUMPDEST PUSH1 0x1 PUSH1 0x7 PUSH1 0x0 DUP5 DUP2 MSTORE PUSH1 0x20 ADD SWAP1 DUP2 MSTORE PUSH1 0x20 ADD PUSH1 0x0 KECCAK256 PUSH1 0x0 PUSH2 0x100 EXP DUP2 SLOAD DUP2 PUSH1 0xFF MUL NOT AND SWAP1 DUP4 ISZERO ISZERO MUL OR SWAP1 SSTORE POP PUSH1 0x0 DUP4 PUSH1 0x1 PUSH1 0x3 DUP2 LT PUSH2 0x51E JUMPI PUSH2 0x51D PUSH2 0xDE6 JUMP JUMPDEST JUMPDEST PUSH1 0x20 MUL ADD MLOAD SWAP1 POP PUSH1 0x6 PUSH1 0x0 DUP3 DUP2 MSTORE PUSH1 0x20 ADD SWAP1 DUP2 MSTORE PUSH1 0x20 ADD PUSH1 0x0 KECCAK256 PUSH1 0x0 DUP2 SLOAD DUP1 SWAP3 SWAP2 SWAP1 PUSH2 0x549 SWAP1 PUSH2 0x1255 JUMP JUMPDEST SWAP2 SWAP1 POP SSTORE POP DUP1 PUSH32 0x9593D9BD30EFF4872EC3BAB10360AD82EAAC80651801E68F47F0674C38415C3D PUSH1 0x40 MLOAD PUSH1 0x40 MLOAD DUP1 SWAP2 SUB SWAP1 LOG2 POP POP POP POP POP POP POP JUMP JUMPDEST PUSH1 0x2 SLOAD DUP2 JUMP JUMPDEST PUSH1 0x6 PUSH1 0x20 MSTORE DUP1 PUSH1 0x0 MSTORE PUSH1 0x40 PUSH1 0x0 KECCAK256 PUSH1 0x0 SWAP2 POP SWAP1 POP SLOAD DUP2 JUMP JUMPDEST PUSH1 0x0 DUP1 SLOAD SWAP1 PUSH2 0x100 EXP SWAP1 DIV PUSH20 0xFFFFFFFFFFFFFFFFFFFFFFFFFFFFFFFFFFFFFFFF AND PUSH20 0xFFFFFFFFFFFFFFFFFFFFFFFFFFFFFFFFFFFFFFFF AND CALLER PUSH20 0xFFFFFFFFFFFFFFFFFFFFFFFFFFFFFFFFFFFFFFFF AND EQ PUSH2 0x630 JUMPI PUSH1 0x40 MLOAD PUSH32 0x8C379A000000000000000000000000000000000000000000000000000000000 DUP2 MSTORE PUSH1 0x4 ADD PUSH2 0x627 SWAP1 PUSH2 0x130F JUMP JUMPDEST PUSH1 0x40 MLOAD DUP1 SWAP2 SUB SWAP1 REVERT JUMPDEST DUP1 PUSH1 0x2 DUP2 SWAP1 SSTORE POP PUSH32 0x6E5A142E5C3C536CE6CDC71895FC55C97DF6AD3432CD3759A9F784CA35FF447E DUP2 PUSH1 0x40 MLOAD PUSH2 0x666 SWAP2 SWAP1 PUSH2 0x7B0 JUMP JUMPDEST PUSH1 0x40 MLOAD DUP1 SWAP2 SUB SWAP1 LOG1 POP JUMP JUMPDEST PUSH1 0x0 DUP1 SLOAD SWAP1 PUSH2 0x100 EXP SWAP1 DIV PUSH20 0xFFFFFFFFFFFFFFFFFFFFFFFFFFFFFFFFFFFFFFFF AND DUP2 JUMP JUMPDEST PUSH1 0x0 DUP1 SLOAD SWAP1 PUSH2 0x100 EXP SWAP1 DIV PUSH20 0xFFFFFFFFFFFFFFFFFFFFFFFFFFFFFFFFFFFFFFFF AND PUSH20 0xFFFFFFFFFFFFFFFFFFFFFFFFFFFFFFFFFFFFFFFF AND CALLER PUSH20 0xFFFFFFFFFFFFFFFFFFFFFFFFFFFFFFFFFFFFFFFF AND EQ PUSH2 0x723 JUMPI PUSH1 0x40 MLOAD PUSH32 0x8C379A000000000000000000000000000000000000000000000000000000000 DUP2 MSTORE PUSH1 0x4 ADD PUSH2 0x71A SWAP1 PUSH2 0x130F JUMP JUMPDEST PUSH1 0x40 MLOAD DUP1 SWAP2 SUB SWAP1 REVERT JUMPDEST DUP1 DUP3 LT PUSH2 0x765 JUMPI PUSH1 0x40 MLOAD PUSH32 0x8C379A000000000000000000000000000000000000000000000000000000000 DUP2 MSTORE PUSH1 0x4 ADD PUSH2 0x75C SWAP1 PUSH2 0x13A1 JUMP JUMPDEST PUSH1 0x40 MLOAD DUP1 SWAP2 SUB SWAP1 REVERT JUMPDEST DUP2 PUSH1 0x4 DUP2 SWAP1 SSTORE POP DUP1 PUSH1 0x5 DUP2 SWAP1 SSTORE POP POP POP JUMP JUMPDEST PUSH1 0x7 PUSH1 0x20 MSTORE DUP1 PUSH1 0x0 MSTORE PUSH1 0x40 PUSH1 0x0 KECCAK256 PUSH1 0x0 SWAP2 POP SLOAD SWAP1 PUSH2 0x100 EXP SWAP1 DIV PUSH1 0xFF AND DUP2 JUMP JUMPDEST PUSH1 0x0 DUP2 SWAP1 POP SWAP2 SWAP1 POP JUMP JUMPDEST PUSH2 0x7AA DUP2 PUSH2 0x797 JUMP JUMPDEST DUP3 MSTORE POP POP JUMP JUMPDEST PUSH1 0x0 PUSH1 0x20 DUP3 ADD SWAP1 POP PUSH2 0x7C5 PUSH1 0x0 DUP4 ADD DUP5 PUSH2 0x7A1 JUMP JUMPDEST SWAP3 SWAP2 POP POP JUMP JUMPDEST PUSH1 0x0 PUSH20 0xFFFFFFFFFFFFFFFFFFFFFFFFFFFFFFFFFFFFFFFF DUP3 AND SWAP1 POP SWAP2 SWAP1 POP JUMP JUMPDEST PUSH1 0x0 DUP2 SWAP1 POP SWAP2 SWAP1 POP JUMP JUMPDEST PUSH1 0x0 PUSH2 0x810 PUSH2 0x80B PUSH2 0x806 DUP5 PUSH2 0x7CB JUMP JUMPDEST PUSH2 0x7EB JUMP JUMPDEST PUSH2 0x7CB JUMP JUMPDEST SWAP1 POP SWAP2 SWAP1 POP JUMP JUMPDEST PUSH1 0x0 PUSH2 0x822 DUP3 PUSH2 0x7F5 JUMP JUMPDEST SWAP1 POP SWAP2 SWAP1 POP JUMP JUMPDEST PUSH1 0x0 PUSH2 0x834 DUP3 PUSH2 0x817 JUMP JUMPDEST SWAP1 POP SWAP2 SWAP1 POP JUMP JUMPDEST PUSH2 0x844 DUP2 PUSH2 0x829 JUMP JUMPDEST DUP3 MSTORE POP POP JUMP JUMPDEST PUSH1 0x0 PUSH1 0x20 DUP3 ADD SWAP1 POP PUSH2 0x85F PUSH1 0x0 DUP4 ADD DUP5 PUSH2 0x83B JUMP JUMPDEST SWAP3 SWAP2 POP POP JUMP JUMPDEST PUSH1 0x0 PUSH1 0x40 MLOAD SWAP1 POP SWAP1 JUMP JUMPDEST PUSH1 0x0 DUP1 REVERT JUMPDEST PUSH1 0x0 DUP1 REVERT JUMPDEST PUSH1 0x0 PUSH1 0x1F NOT PUSH1 0x1F DUP4 ADD AND SWAP1 POP SWAP2 SWAP1 POP JUMP JUMPDEST PUSH32 0x4E487B7100000000000000000000000000000000000000000000000000000000 PUSH1 0x0 MSTORE PUSH1 0x41 PUSH1 0x4 MSTORE PUSH1 0x24 PUSH1 0x0 REVERT JUMPDEST PUSH2 0x8C2 DUP3 PUSH2 0x879 JUMP JUMPDEST DUP2 ADD DUP2 DUP2 LT PUSH8 0xFFFFFFFFFFFFFFFF DUP3 GT OR ISZERO PUSH2 0x8E1 JUMPI PUSH2 0x8E0 PUSH2 0x88A JUMP JUMPDEST JUMPDEST DUP1 PUSH1 0x40 MSTORE POP POP POP JUMP JUMPDEST PUSH1 0x0 PUSH2 0x8F4 PUSH2 0x865 JUMP JUMPDEST SWAP1 POP PUSH2 0x900 DUP3 DUP3 PUSH2 0x8B9 JUMP JUMPDEST SWAP2 SWAP1 POP JUMP JUMPDEST PUSH1 0x0 PUSH8 0xFFFFFFFFFFFFFFFF DUP3 GT ISZERO PUSH2 0x920 JUMPI PUSH2 0x91F PUSH2 0x88A JUMP JUMPDEST JUMPDEST PUSH1 0x20 DUP3 MUL SWAP1 POP SWAP2 SWAP1 POP JUMP JUMPDEST PUSH1 0x0 DUP1 REVERT JUMPDEST PUSH2 0x939 DUP2 PUSH2 0x797 JUMP JUMPDEST DUP2 EQ PUSH2 0x944 JUMPI PUSH1 0x0 DUP1 REVERT JUMPDEST POP JUMP JUMPDEST PUSH1 0x0 DUP2 CALLDATALOAD SWAP1 POP PUSH2 0x956 DUP2 PUSH2 0x930 JUMP JUMPDEST SWAP3 SWAP2 POP POP JUMP JUMPDEST PUSH1 0x0 PUSH2 0x96F PUSH2 0x96A DUP5 PUSH2 0x905 JUMP JUMPDEST PUSH2 0x8EA JUMP JUMPDEST SWAP1 POP DUP1 PUSH1 0x20 DUP5 MUL DUP4 ADD DUP6 DUP2 GT ISZERO PUSH2 0x989 JUMPI PUSH2 0x988 PUSH2 0x92B JUMP JUMPDEST JUMPDEST DUP4 JUMPDEST DUP2 DUP2 LT ISZERO PUSH2 0x9B2 JUMPI DUP1 PUSH2 0x99E DUP9 DUP3 PUSH2 0x947 JUMP JUMPDEST DUP5 MSTORE PUSH1 0x20 DUP5 ADD SWAP4 POP POP PUSH1 0x20 DUP2 ADD SWAP1 POP PUSH2 0x98B JUMP JUMPDEST POP POP POP SWAP4 SWAP3 POP POP POP JUMP JUMPDEST PUSH1 0x0 DUP3 PUSH1 0x1F DUP4 ADD SLT PUSH2 0x9D1 JUMPI PUSH2 0x9D0 PUSH2 0x874 JUMP JUMPDEST JUMPDEST PUSH1 0x2 PUSH2 0x9DE DUP5 DUP3 DUP6 PUSH2 0x95C JUMP JUMPDEST SWAP2 POP POP SWAP3 SWAP2 POP POP JUMP JUMPDEST PUSH1 0x0 PUSH8 0xFFFFFFFFFFFFFFFF DUP3 GT ISZERO PUSH2 0xA02 JUMPI PUSH2 0xA01 PUSH2 0x88A JUMP JUMPDEST JUMPDEST PUSH1 0x20 DUP3 MUL SWAP1 POP SWAP2 SWAP1 POP JUMP JUMPDEST PUSH1 0x0 PUSH2 0xA20 PUSH2 0xA1B DUP5 PUSH2 0x9E7 JUMP JUMPDEST PUSH2 0x8EA JUMP JUMPDEST SWAP1 POP DUP1 PUSH1 0x40 DUP5 MUL DUP4 ADD DUP6 DUP2 GT ISZERO PUSH2 0xA3A JUMPI PUSH2 0xA39 PUSH2 0x92B JUMP JUMPDEST JUMPDEST DUP4 JUMPDEST DUP2 DUP2 LT ISZERO PUSH2 0xA63 JUMPI DUP1 PUSH2 0xA4F DUP9 DUP3 PUSH2 0x9BC JUMP JUMPDEST DUP5 MSTORE PUSH1 0x20 DUP5 ADD SWAP4 POP POP PUSH1 0x40 DUP2 ADD SWAP1 POP PUSH2 0xA3C JUMP JUMPDEST POP POP POP SWAP4 SWAP3 POP POP POP JUMP JUMPDEST PUSH1 0x0 DUP3 PUSH1 0x1F DUP4 ADD SLT PUSH2 0xA82 JUMPI PUSH2 0xA81 PUSH2 0x874 JUMP JUMPDEST JUMPDEST PUSH1 0x2 PUSH2 0xA8F DUP5 DUP3 DUP6 PUSH2 0xA0D JUMP JUMPDEST SWAP2 POP POP SWAP3 SWAP2 POP POP JUMP JUMPDEST PUSH1 0x0 PUSH8 0xFFFFFFFFFFFFFFFF DUP3 GT ISZERO PUSH2 0xAB3 JUMPI PUSH2 0xAB2 PUSH2 0x88A JUMP JUMPDEST JUMPDEST PUSH1 0x20 DUP3 MUL SWAP1 POP SWAP2 SWAP1 POP JUMP JUMPDEST PUSH1 0x0 PUSH2 0xAD1 PUSH2 0xACC DUP5 PUSH2 0xA98 JUMP JUMPDEST PUSH2 0x8EA JUMP JUMPDEST SWAP1 POP DUP1 PUSH1 0x20 DUP5 MUL DUP4 ADD DUP6 DUP2 GT ISZERO PUSH2 0xAEB JUMPI PUSH2 0xAEA PUSH2 0x92B JUMP JUMPDEST JUMPDEST DUP4 JUMPDEST DUP2 DUP2 LT ISZERO PUSH2 0xB14 JUMPI DUP1 PUSH2 0xB00 DUP9 DUP3 PUSH2 0x947 JUMP JUMPDEST DUP5 MSTORE PUSH1 0x20 DUP5 ADD SWAP4 POP POP PUSH1 0x20 DUP2 ADD SWAP1 POP PUSH2 0xAED JUMP JUMPDEST POP POP POP SWAP4 SWAP3 POP POP POP JUMP JUMPDEST PUSH1 0x0 DUP3 PUSH1 0x1F DUP4 ADD SLT PUSH2 0xB33 JUMPI PUSH2 0xB32 PUSH2 0x874 JUMP JUMPDEST JUMPDEST PUSH1 0x3 PUSH2 0xB40 DUP5 DUP3 DUP6 PUSH2 0xABE JUMP JUMPDEST SWAP2 POP POP SWAP3 SWAP2 POP POP JUMP JUMPDEST PUSH1 0x0 DUP1 PUSH1 0x0 DUP1 PUSH2 0x160 DUP6 DUP8 SUB SLT ISZERO PUSH2 0xB64 JUMPI PUSH2 0xB63 PUSH2 0x86F JUMP JUMPDEST JUMPDEST PUSH1 0x0 PUSH2 0xB72 DUP8 DUP3 DUP9 ADD PUSH2 0x9BC JUMP JUMPDEST SWAP5 POP POP PUSH1 0x40 PUSH2 0xB83 DUP8 DUP3 DUP9 ADD PUSH2 0xA6D JUMP JUMPDEST SWAP4 POP POP PUSH1 0xC0 PUSH2 0xB94 DUP8 DUP3 DUP9 ADD PUSH2 0x9BC JUMP JUMPDEST SWAP3 POP POP PUSH2 0x100 PUSH2 0xBA6 DUP8 DUP3 DUP9 ADD PUSH2 0xB1E JUMP JUMPDEST SWAP2 POP POP SWAP3 SWAP6 SWAP2 SWAP5 POP SWAP3 POP JUMP JUMPDEST PUSH1 0x0 PUSH1 0x20 DUP3 DUP5 SUB SLT ISZERO PUSH2 0xBC8 JUMPI PUSH2 0xBC7 PUSH2 0x86F JUMP JUMPDEST JUMPDEST PUSH1 0x0 PUSH2 0xBD6 DUP5 DUP3 DUP6 ADD PUSH2 0x947 JUMP JUMPDEST SWAP2 POP POP SWAP3 SWAP2 POP POP JUMP JUMPDEST PUSH1 0x0 PUSH2 0xBEA DUP3 PUSH2 0x7CB JUMP JUMPDEST SWAP1 POP SWAP2 SWAP1 POP JUMP JUMPDEST PUSH2 0xBFA DUP2 PUSH2 0xBDF JUMP JUMPDEST DUP3 MSTORE POP POP JUMP JUMPDEST PUSH1 0x0 PUSH1 0x20 DUP3 ADD SWAP1 POP PUSH2 0xC15 PUSH1 0x0 DUP4 ADD DUP5 PUSH2 0xBF1 JUMP JUMPDEST SWAP3 SWAP2 POP POP JUMP JUMPDEST PUSH1 0x0 DUP1 PUSH1 0x40 DUP4 DUP6 SUB SLT ISZERO PUSH2 0xC32 JUMPI PUSH2 0xC31 PUSH2 0x86F JUMP JUMPDEST JUMPDEST PUSH1 0x0 PUSH2 0xC40 DUP6 DUP3 DUP7 ADD PUSH2 0x947 JUMP JUMPDEST SWAP3 POP POP PUSH1 0x20 PUSH2 0xC51 DUP6 DUP3 DUP7 ADD PUSH2 0x947 JUMP JUMPDEST SWAP2 POP POP SWAP3 POP SWAP3 SWAP1 POP JUMP JUMPDEST PUSH1 0x0 DUP2 ISZERO ISZERO SWAP1 POP SWAP2 SWAP1 POP JUMP JUMPDEST PUSH2 0xC70 DUP2 PUSH2 0xC5B JUMP JUMPDEST DUP3 MSTORE POP POP JUMP JUMPDEST PUSH1 0x0 PUSH1 0x20 DUP3 ADD SWAP1 POP PUSH2 0xC8B PUSH1 0x0 DUP4 ADD DUP5 PUSH2 0xC67 JUMP JUMPDEST SWAP3 SWAP2 POP POP JUMP JUMPDEST PUSH1 0x0 DUP3 DUP3 MSTORE PUSH1 0x20 DUP3 ADD SWAP1 POP SWAP3 SWAP2 POP POP JUMP JUMPDEST PUSH32 0x566F74696E6720686173206E6F20737461727465642079657400000000000000 PUSH1 0x0 DUP3 ADD MSTORE POP JUMP JUMPDEST PUSH1 0x0 PUSH2 0xCD8 PUSH1 0x19 DUP4 PUSH2 0xC91 JUMP JUMPDEST SWAP2 POP PUSH2 0xCE3 DUP3 PUSH2 0xCA2 JUMP JUMPDEST PUSH1 0x20 DUP3 ADD SWAP1 POP SWAP2 SWAP1 POP JUMP JUMPDEST PUSH1 0x0 PUSH1 0x20 DUP3 ADD SWAP1 POP DUP2 DUP2 SUB PUSH1 0x0 DUP4 ADD MSTORE PUSH2 0xD07 DUP2 PUSH2 0xCCB JUMP JUMPDEST SWAP1 POP SWAP2 SWAP1 POP JUMP JUMPDEST PUSH32 0x566F74696E672068617320656E64656400000000000000000000000000000000 PUSH1 0x0 DUP3 ADD MSTORE POP JUMP JUMPDEST PUSH1 0x0 PUSH2 0xD44 PUSH1 0x10 DUP4 PUSH2 0xC91 JUMP JUMPDEST SWAP2 POP PUSH2 0xD4F DUP3 PUSH2 0xD0E JUMP JUMPDEST PUSH1 0x20 DUP3 ADD SWAP1 POP SWAP2 SWAP1 POP JUMP JUMPDEST PUSH1 0x0 PUSH1 0x20 DUP3 ADD SWAP1 POP DUP2 DUP2 SUB PUSH1 0x0 DUP4 ADD MSTORE PUSH2 0xD73 DUP2 PUSH2 0xD37 JUMP JUMPDEST SWAP1 POP SWAP2 SWAP1 POP JUMP JUMPDEST PUSH32 0x566F74696E6720686173206E6F742073746172746564207965742E0000000000 PUSH1 0x0 DUP3 ADD MSTORE POP JUMP JUMPDEST PUSH1 0x0 PUSH2 0xDB0 PUSH1 0x1B DUP4 PUSH2 0xC91 JUMP JUMPDEST SWAP2 POP PUSH2 0xDBB DUP3 PUSH2 0xD7A JUMP JUMPDEST PUSH1 0x20 DUP3 ADD SWAP1 POP SWAP2 SWAP1 POP JUMP JUMPDEST PUSH1 0x0 PUSH1 0x20 DUP3 ADD SWAP1 POP DUP2 DUP2 SUB PUSH1 0x0 DUP4 ADD MSTORE PUSH2 0xDDF DUP2 PUSH2 0xDA3 JUMP JUMPDEST SWAP1 POP SWAP2 SWAP1 POP JUMP JUMPDEST PUSH32 0x4E487B7100000000000000000000000000000000000000000000000000000000 PUSH1 0x0 MSTORE PUSH1 0x32 PUSH1 0x4 MSTORE PUSH1 0x24 PUSH1 0x0 REVERT JUMPDEST PUSH32 0x496E76616C6964204D65726B6C6520526F6F742E000000000000000000000000 PUSH1 0x0 DUP3 ADD MSTORE POP JUMP JUMPDEST PUSH1 0x0 PUSH2 0xE4B PUSH1 0x14 DUP4 PUSH2 0xC91 JUMP JUMPDEST SWAP2 POP PUSH2 0xE56 DUP3 PUSH2 0xE15 JUMP JUMPDEST PUSH1 0x20 DUP3 ADD SWAP1 POP SWAP2 SWAP1 POP JUMP JUMPDEST PUSH1 0x0 PUSH1 0x20 DUP3 ADD SWAP1 POP DUP2 DUP2 SUB PUSH1 0x0 DUP4 ADD MSTORE PUSH2 0xE7A DUP2 PUSH2 0xE3E JUMP JUMPDEST SWAP1 POP SWAP2 SWAP1 POP JUMP JUMPDEST PUSH32 0x566F74652068617320616C7265616479206265656E20636173742E0000000000 PUSH1 0x0 DUP3 ADD MSTORE POP JUMP JUMPDEST PUSH1 0x0 PUSH2 0xEB7 PUSH1 0x1B DUP4 PUSH2 0xC91 JUMP JUMPDEST SWAP2 POP PUSH2 0xEC2 DUP3 PUSH2 0xE81 JUMP JUMPDEST PUSH1 0x20 DUP3 ADD SWAP1 POP SWAP2 SWAP1 POP JUMP JUMPDEST PUSH1 0x0 PUSH1 0x20 DUP3 ADD SWAP1 POP DUP2 DUP2 SUB PUSH1 0x0 DUP4 ADD MSTORE PUSH2 0xEE6 DUP2 PUSH2 0xEAA JUMP JUMPDEST SWAP1 POP SWAP2 SWAP1 POP JUMP JUMPDEST PUSH1 0x0 PUSH1 0x2 SWAP1 POP SWAP2 SWAP1 POP JUMP JUMPDEST PUSH1 0x0 DUP2 SWAP1 POP SWAP3 SWAP2 POP POP JUMP JUMPDEST PUSH1 0x0 DUP2 SWAP1 POP SWAP2 SWAP1 POP JUMP JUMPDEST PUSH2 0xF16 DUP2 PUSH2 0x797 JUMP JUMPDEST DUP3 MSTORE POP POP JUMP JUMPDEST PUSH1 0x0 PUSH2 0xF28 DUP4 DUP4 PUSH2 0xF0D JUMP JUMPDEST PUSH1 0x20 DUP4 ADD SWAP1 POP SWAP3 SWAP2 POP POP JUMP JUMPDEST PUSH1 0x0 PUSH1 0x20 DUP3 ADD SWAP1 POP SWAP2 SWAP1 POP JUMP JUMPDEST PUSH2 0xF4A DUP2 PUSH2 0xEED JUMP JUMPDEST PUSH2 0xF54 DUP2 DUP5 PUSH2 0xEF8 JUMP JUMPDEST SWAP3 POP PUSH2 0xF5F DUP3 PUSH2 0xF03 JUMP JUMPDEST DUP1 PUSH1 0x0 JUMPDEST DUP4 DUP2 LT ISZERO PUSH2 0xF90 JUMPI DUP2 MLOAD PUSH2 0xF77 DUP8 DUP3 PUSH2 0xF1C JUMP JUMPDEST SWAP7 POP PUSH2 0xF82 DUP4 PUSH2 0xF34 JUMP JUMPDEST SWAP3 POP POP PUSH1 0x1 DUP2 ADD SWAP1 POP PUSH2 0xF63 JUMP JUMPDEST POP POP POP POP POP POP JUMP JUMPDEST PUSH1 0x0 PUSH1 0x2 SWAP1 POP SWAP2 SWAP1 POP JUMP JUMPDEST PUSH1 0x0 DUP2 SWAP1 POP SWAP3 SWAP2 POP POP JUMP JUMPDEST PUSH1 0x0 DUP2 SWAP1 POP SWAP2 SWAP1 POP JUMP JUMPDEST PUSH1 0x0 DUP2 SWAP1 POP SWAP3 SWAP2 POP POP JUMP JUMPDEST PUSH2 0xFCC DUP2 PUSH2 0xEED JUMP JUMPDEST PUSH2 0xFD6 DUP2 DUP5 PUSH2 0xFB8 JUMP JUMPDEST SWAP3 POP PUSH2 0xFE1 DUP3 PUSH2 0xF03 JUMP JUMPDEST DUP1 PUSH1 0x0 JUMPDEST DUP4 DUP2 LT ISZERO PUSH2 0x1012 JUMPI DUP2 MLOAD PUSH2 0xFF9 DUP8 DUP3 PUSH2 0xF1C JUMP JUMPDEST SWAP7 POP PUSH2 0x1004 DUP4 PUSH2 0xF34 JUMP JUMPDEST SWAP3 POP POP PUSH1 0x1 DUP2 ADD SWAP1 POP PUSH2 0xFE5 JUMP JUMPDEST POP POP POP POP POP POP JUMP JUMPDEST PUSH1 0x0 PUSH2 0x1026 DUP4 DUP4 PUSH2 0xFC3 JUMP JUMPDEST PUSH1 0x40 DUP4 ADD SWAP1 POP SWAP3 SWAP2 POP POP JUMP JUMPDEST PUSH1 0x0 PUSH1 0x20 DUP3 ADD SWAP1 POP SWAP2 SWAP1 POP JUMP JUMPDEST PUSH2 0x1048 DUP2 PUSH2 0xF98 JUMP JUMPDEST PUSH2 0x1052 DUP2 DUP5 PUSH2 0xFA3 JUMP JUMPDEST SWAP3 POP PUSH2 0x105D DUP3 PUSH2 0xFAE JUMP JUMPDEST DUP1 PUSH1 0x0 JUMPDEST DUP4 DUP2 LT ISZERO PUSH2 0x108E JUMPI DUP2 MLOAD PUSH2 0x1075 DUP8 DUP3 PUSH2 0x101A JUMP JUMPDEST SWAP7 POP PUSH2 0x1080 DUP4 PUSH2 0x1032 JUMP JUMPDEST SWAP3 POP POP PUSH1 0x1 DUP2 ADD SWAP1 POP PUSH2 0x1061 JUMP JUMPDEST POP POP POP POP POP POP JUMP JUMPDEST PUSH1 0x0 PUSH1 0x3 SWAP1 POP SWAP2 SWAP1 POP JUMP JUMPDEST PUSH1 0x0 DUP2 SWAP1 POP SWAP3 SWAP2 POP POP JUMP JUMPDEST PUSH1 0x0 DUP2 SWAP1 POP SWAP2 SWAP1 POP JUMP JUMPDEST PUSH1 0x0 PUSH1 0x20 DUP3 ADD SWAP1 POP SWAP2 SWAP1 POP JUMP JUMPDEST PUSH2 0x10CC DUP2 PUSH2 0x1096 JUMP JUMPDEST PUSH2 0x10D6 DUP2 DUP5 PUSH2 0x10A1 JUMP JUMPDEST SWAP3 POP PUSH2 0x10E1 DUP3 PUSH2 0x10AC JUMP JUMPDEST DUP1 PUSH1 0x0 JUMPDEST DUP4 DUP2 LT ISZERO PUSH2 0x1112 JUMPI DUP2 MLOAD PUSH2 0x10F9 DUP8 DUP3 PUSH2 0xF1C JUMP JUMPDEST SWAP7 POP PUSH2 0x1104 DUP4 PUSH2 0x10B6 JUMP JUMPDEST SWAP3 POP POP PUSH1 0x1 DUP2 ADD SWAP1 POP PUSH2 0x10E5 JUMP JUMPDEST POP POP POP POP POP POP JUMP JUMPDEST PUSH1 0x0 PUSH2 0x160 DUP3 ADD SWAP1 POP PUSH2 0x1130 PUSH1 0x0 DUP4 ADD DUP8 PUSH2 0xF41 JUMP JUMPDEST PUSH2 0x113D PUSH1 0x40 DUP4 ADD DUP7 PUSH2 0x103F JUMP JUMPDEST PUSH2 0x114A PUSH1 0xC0 DUP4 ADD DUP6 PUSH2 0xF41 JUMP JUMPDEST PUSH2 0x1158 PUSH2 0x100 DUP4 ADD DUP5 PUSH2 0x10C3 JUMP JUMPDEST SWAP6 SWAP5 POP POP POP POP POP JUMP JUMPDEST PUSH2 0x116A DUP2 PUSH2 0xC5B JUMP JUMPDEST DUP2 EQ PUSH2 0x1175 JUMPI PUSH1 0x0 DUP1 REVERT JUMPDEST POP JUMP JUMPDEST PUSH1 0x0 DUP2 MLOAD SWAP1 POP PUSH2 0x1187 DUP2 PUSH2 0x1161 JUMP JUMPDEST SWAP3 SWAP2 POP POP JUMP JUMPDEST PUSH1 0x0 PUSH1 0x20 DUP3 DUP5 SUB SLT ISZERO PUSH2 0x11A3 JUMPI PUSH2 0x11A2 PUSH2 0x86F JUMP JUMPDEST JUMPDEST PUSH1 0x0 PUSH2 0x11B1 DUP5 DUP3 DUP6 ADD PUSH2 0x1178 JUMP JUMPDEST SWAP2 POP POP SWAP3 SWAP2 POP POP JUMP JUMPDEST PUSH32 0x496E76616C6964205A4B2070726F6F662E000000000000000000000000000000 PUSH1 0x0 DUP3 ADD MSTORE POP JUMP JUMPDEST PUSH1 0x0 PUSH2 0x11F0 PUSH1 0x11 DUP4 PUSH2 0xC91 JUMP JUMPDEST SWAP2 POP PUSH2 0x11FB DUP3 PUSH2 0x11BA JUMP JUMPDEST PUSH1 0x20 DUP3 ADD SWAP1 POP SWAP2 SWAP1 POP JUMP JUMPDEST PUSH1 0x0 PUSH1 0x20 DUP3 ADD SWAP1 POP DUP2 DUP2 SUB PUSH1 0x0 DUP4 ADD MSTORE PUSH2 0x121F DUP2 PUSH2 0x11E3 JUMP JUMPDEST SWAP1 POP SWAP2 SWAP1 POP JUMP JUMPDEST PUSH32 0x4E487B7100000000000000000000000000000000000000000000000000000000 PUSH1 0x0 MSTORE PUSH1 0x11 PUSH1 0x4 MSTORE PUSH1 0x24 PUSH1 0x0 REVERT JUMPDEST PUSH1 0x0 PUSH2 0x1260 DUP3 PUSH2 0x797 JUMP JUMPDEST SWAP2 POP PUSH32 0xFFFFFFFFFFFFFFFFFFFFFFFFFFFFFFFFFFFFFFFFFFFFFFFFFFFFFFFFFFFFFFFF DUP3 SUB PUSH2 0x1292 JUMPI PUSH2 0x1291 PUSH2 0x1226 JUMP JUMPDEST JUMPDEST PUSH1 0x1 DUP3 ADD SWAP1 POP SWAP2 SWAP1 POP JUMP JUMPDEST PUSH32 0x4F6E6C79206F776E65722063616E2063616C6C20746869732066756E6374696F PUSH1 0x0 DUP3 ADD MSTORE PUSH32 0x6E2E000000000000000000000000000000000000000000000000000000000000 PUSH1 0x20 DUP3 ADD MSTORE POP JUMP JUMPDEST PUSH1 0x0 PUSH2 0x12F9 PUSH1 0x22 DUP4 PUSH2 0xC91 JUMP JUMPDEST SWAP2 POP PUSH2 0x1304 DUP3 PUSH2 0x129D JUMP JUMPDEST PUSH1 0x40 DUP3 ADD SWAP1 POP SWAP2 SWAP1 POP JUMP JUMPDEST PUSH1 0x0 PUSH1 0x20 DUP3 ADD SWAP1 POP DUP2 DUP2 SUB PUSH1 0x0 DUP4 ADD MSTORE PUSH2 0x1328 DUP2 PUSH2 0x12EC JUMP JUMPDEST SWAP1 POP SWAP2 SWAP1 POP JUMP JUMPDEST PUSH32 0x53746172742074696D65206D757374206265206265666F726520656E64207469 PUSH1 0x0 DUP3 ADD MSTORE PUSH32 0x6D65000000000000000000000000000000000000000000000000000000000000 PUSH1 0x20 DUP3 ADD MSTORE POP JUMP JUMPDEST PUSH1 0x0 PUSH2 0x138B PUSH1 0x22 DUP4 PUSH2 0xC91 JUMP JUMPDEST SWAP2 POP PUSH2 0x1396 DUP3 PUSH2 0x132F JUMP JUMPDEST PUSH1 0x40 DUP3 ADD SWAP1 POP SWAP2 SWAP1 POP JUMP JUMPDEST PUSH1 0x0 PUSH1 0x20 DUP3 ADD SWAP1 POP DUP2 DUP2 SUB PUSH1 0x0 DUP4 ADD MSTORE PUSH2 0x13BA DUP2 PUSH2 0x137E JUMP JUMPDEST SWAP1 POP SWAP2 SWAP1 POP JUMP INVALID LOG2 PUSH5 0x6970667358 0x22 SLT KECCAK256 0xD2 0xC2 0xF PUSH20 0x89114F748D26111054C1490044980BFC265FD00C 0xE3 DUP5 0xB1 SWAP2 SWAP5 0x5D 0xAC DUP6 PUSH5 0x736F6C6343 STOP ADDMOD EQ STOP CALLER "},"methodIdentifiers":{"electionId()":"051364d4","merkleRoot()":"2eb4a7ab","owner()":"8da5cb5b","setMerkleRoot(uint256)":"5d5e8875","setVotingPeriod(uint256,uint256)":"a15a36c7","submitTally(uint256[2],uint256[2][2],uint256[2],uint256[3])":"2c7d783b","usedNullifiers(uint256)":"aad24061","verifier()":"2b7ac3f3","voteCounts(uint256)":"3c3a220d","votingEndTime()":"1ea736e0","votingStartTime()":"2019a608"}}}}}