{
  "_format": "hh-sol-artifact-1",
  "contractName": "VotingTally",
  "sourceName": "contracts/VotingTally.sol",
  "abi": [
    {
      "inputs": [
        {
          "internalType": "address",
          "name": "_verifierAddress",
          "type": "address"
        },
        {
          "internalType": "uint256",
          "name": "_electionId",
          "type": "uint256"
        },
        {
          "internalType": "uint256",
          "name": "_numCandidates",
          "type": "uint256"
        },
        {
          "internalType": "address",
          "name": "_owner",
          "type": "address"
        }
      ],
      "stateMutability": "nonpayable",
      "type": "constructor"
    },
    {
      "anonymous": false,
      "inputs": [
        {
          "indexed": false,
          "internalType": "uint256",
          "name": "root",
          "type": "uint256"
        },
        {
          "indexed": false,
          "internalType": "uint256",
          "name": "startTime",
          "type": "uint256"
        },
        {
          "indexed": false,
          "internalType": "uint256",
          "name": "endTime",
          "type": "uint256"
        }
      ],
      "name": "ElectionConfigured",
      "type": "event"
    },
    {
      "anonymous": false,
      "inputs": [
        {
          "indexed": false,
          "internalType": "uint256",
          "name": "root",
          "type": "uint256"
        }
      ],
      "name": "MerkleRootSet",
      "type": "event"
    },
    {
      "anonymous": false,
      "inputs": [
        {
          "indexed": true,
          "internalType": "uint256",
          "name": "electionId",
          "type": "uint256"
        },
        {
          "indexed": true,
          "internalType": "uint256",
          "name": "candidateIndex",
          "type": "uint256"
        }
      ],
      "name": "VoteCast",
      "type": "event"
    },
    {
      "anonymous": false,
      "inputs": [
        {
          "indexed": false,
          "internalType": "uint256",
          "name": "startTime",
          "type": "uint256"
        },
        {
          "indexed": false,
          "internalType": "uint256",
          "name": "endTime",
          "type": "uint256"
        }
      ],
      "name": "VotingPeriodSet",
      "type": "event"
    },
    {
      "inputs": [
        {
          "internalType": "uint256",
          "name": "_root",
          "type": "uint256"
        },
        {
          "internalType": "uint256",
          "name": "_startTime",
          "type": "uint256"
        },
        {
          "internalType": "uint256",
          "name": "_endTime",
          "type": "uint256"
        }
      ],
      "name": "configureElection",
      "outputs": [],
      "stateMutability": "nonpayable",
      "type": "function"
    },
    {
      "inputs": [],
      "name": "configured",
      "outputs": [
        {
          "internalType": "bool",
          "name": "",
          "type": "bool"
        }
      ],
      "stateMutability": "view",
      "type": "function"
    },
    {
      "inputs": [],
      "name": "electionId",
      "outputs": [
        {
          "internalType": "uint256",
          "name": "",
          "type": "uint256"
        }
      ],
      "stateMutability": "view",
      "type": "function"
    },
    {
      "inputs": [],
      "name": "merkleRoot",
      "outputs": [
        {
          "internalType": "uint256",
          "name": "",
          "type": "uint256"
        }
      ],
      "stateMutability": "view",
      "type": "function"
    },
    {
      "inputs": [],
      "name": "numCandidates",
      "outputs": [
        {
          "internalType": "uint256",
          "name": "",
          "type": "uint256"
        }
      ],
      "stateMutability": "view",
      "type": "function"
    },
    {
      "inputs": [],
      "name": "owner",
      "outputs": [
        {
          "internalType": "address",
          "name": "",
          "type": "address"
        }
      ],
      "stateMutability": "view",
      "type": "function"
    },
    {
      "inputs": [
        {
          "internalType": "uint256",
          "name": "_root",
          "type": "uint256"
        }
      ],
      "name": "setMerkleRoot",
      "outputs": [],
      "stateMutability": "nonpayable",
      "type": "function"
    },
    {
      "inputs": [
        {
          "internalType": "uint256",
          "name": "_startTime",
          "type": "uint256"
        },
        {
          "internalType": "uint256",
          "name": "_endTime",
          "type": "uint256"
        }
      ],
      "name": "setVotingPeriod",
      "outputs": [],
      "stateMutability": "nonpayable",
      "type": "function"
    },
    {
      "inputs": [
        {
          "internalType": "uint256[2]",
          "name": "a",
          "type": "uint256[2]"
        },
        {
          "internalType": "uint256[2][2]",
          "name": "b",
          "type": "uint256[2][2]"
        },
        {
          "internalType": "uint256[2]",
          "name": "c",
          "type": "uint256[2]"
        },
        {
          "internalType": "uint256[4]",
          "name": "publicInputs",
          "type": "uint256[4]"
        }
      ],
      "name": "submitTally",
      "outputs": [],
      "stateMutability": "nonpayable",
      "type": "function"
    },
    {
      "inputs": [
        {
          "internalType": "uint256",
          "name": "",
          "type": "uint256"
        }
      ],
      "name": "usedNullifiers",
      "outputs": [
        {
          "internalType": "bool",
          "name": "",
          "type": "bool"
        }
      ],
      "stateMutability": "view",
      "type": "function"
    },
    {
      "inputs": [],
      "name": "verifier",
      "outputs": [
        {
          "internalType": "contract IVerifier",
          "name": "",
          "type": "address"
        }
      ],
      "stateMutability": "view",
      "type": "function"
    },
    {
      "inputs": [
        {
          "internalType": "uint256",
          "name": "",
          "type": "uint256"
        }
      ],
      "name": "voteCounts",
      "outputs": [
        {
          "internalType": "uint256",
          "name": "",
          "type": "uint256"
        }
      ],
      "stateMutability": "view",
      "type": "function"
    },
    {
      "inputs": [],
      "name": "votingEndTime",
      "outputs": [
        {
          "internalType": "uint256",
          "name": "",
          "type": "uint256"
        }
      ],
      "stateMutability": "view",
      "type": "function"
    },
    {
      "inputs": [],
      "name": "votingStartTime",
      "outputs": [
        {
          "internalType": "uint256",
          "name": "",
          "type": "uint256"
        }
      ],
      "stateMutability": "view",
      "type": "function"
    }
  ],
  "bytecode": "0x60c06040523480156200001157600080fd5b50604051620022dd380380620022dd833981810160405281019062000037919062000293565b600073ffffffffffffffffffffffffffffffffffffffff168473ffffffffffffffffffffffffffffffffffffffff1603620000a9576040517f08c379a0000000000000000000000000000000000000000000000000000000008152600401620000a0906200038c565b60405180910390fd5b600073ffffffffffffffffffffffffffffffffffffffff168173ffffffffffffffffffffffffffffffffffffffff16036200011b576040517f08c379a0000000000000000000000000000000000000000000000000000000008152600401620001129062000424565b60405180910390fd5b6000821162000161576040517f08c379a00000000000000000000000000000000000000000000000000000000081526004016200015890620004bc565b60405180910390fd5b806000806101000a81548173ffffffffffffffffffffffffffffffffffffffff021916908373ffffffffffffffffffffffffffffffffffffffff1602179055508373ffffffffffffffffffffffffffffffffffffffff1660808173ffffffffffffffffffffffffffffffffffffffff16815250508260a081815250508160048190555050505050620004de565b600080fd5b600073ffffffffffffffffffffffffffffffffffffffff82169050919050565b60006200022082620001f3565b9050919050565b620002328162000213565b81146200023e57600080fd5b50565b600081519050620002528162000227565b92915050565b6000819050919050565b6200026d8162000258565b81146200027957600080fd5b50565b6000815190506200028d8162000262565b92915050565b60008060008060808587031215620002b057620002af620001ee565b5b6000620002c08782880162000241565b9450506020620002d3878288016200027c565b9350506040620002e6878288016200027c565b9250506060620002f98782880162000241565b91505092959194509250565b600082825260208201905092915050565b7f566f74696e6754616c6c793a2056657269666965722063616e6e6f742062652060008201527f7a65726f20616464726573730000000000000000000000000000000000000000602082015250565b600062000374602c8362000305565b9150620003818262000316565b604082019050919050565b60006020820190508181036000830152620003a78162000365565b9050919050565b7f566f74696e6754616c6c793a204f776e65722063616e6e6f74206265207a657260008201527f6f20616464726573730000000000000000000000000000000000000000000000602082015250565b60006200040c60298362000305565b91506200041982620003ae565b604082019050919050565b600060208201905081810360008301526200043f81620003fd565b9050919050565b7f566f74696e6754616c6c793a2043616e64696461746573206d7573742062652060008201527f706f736974697665000000000000000000000000000000000000000000000000602082015250565b6000620004a460288362000305565b9150620004b18262000446565b604082019050919050565b60006020820190508181036000830152620004d78162000495565b9050919050565b60805160a051611dc462000519600039600081816102b1015281816103ff015261069201526000818161055a01526106f40152611dc46000f3fe608060405234801561001057600080fd5b50600436106100ea5760003560e01c80635216509a1161008c5780638772a23a116100665780638772a23a146102275780638da5cb5b14610245578063a15a36c714610263578063aad240611461027f576100ea565b80635216509a146101d15780635d5e8875146101ef5780638176efb11461020b576100ea565b80632019a608116100c85780632019a608146101475780632b7ac3f3146101655780632eb4a7ab146101835780633c3a220d146101a1576100ea565b8063051364d4146100ef578063052bb8381461010d5780631ea736e014610129575b600080fd5b6100f76102af565b6040516101049190610da4565b60405180910390f35b610127600480360381019061012291906110a3565b6102d3565b005b6101316106e6565b60405161013e9190610da4565b60405180910390f35b61014f6106ec565b60405161015c9190610da4565b60405180910390f35b61016d6106f2565b60405161017a919061118b565b60405180910390f35b61018b610716565b6040516101989190610da4565b60405180910390f35b6101bb60048036038101906101b691906111a6565b61071c565b6040516101c89190610da4565b60405180910390f35b6101d9610734565b6040516101e69190610da4565b60405180910390f35b610209600480360381019061020491906111a6565b61073a565b005b610225600480360381019061022091906111d3565b6108e1565b005b61022f610b69565b60405161023c9190611241565b60405180910390f35b61024d610b7c565b60405161025a919061127d565b60405180910390f35b61027d60048036038101906102789190611298565b610ba0565b005b610299600480360381019061029491906111a6565b610d6b565b6040516102a69190611241565b60405180910390f35b7f000000000000000000000000000000000000000000000000000000000000000081565b600254421015610318576040517f08c379a000000000000000000000000000000000000000000000000000000000815260040161030f9061135b565b60405180910390fd5b600354421061035c576040517f08c379a0000000000000000000000000000000000000000000000000000000008152600401610353906113c7565b60405180910390fd5b6000600154036103a1576040517f08c379a000000000000000000000000000000000000000000000000000000000815260040161039890611459565b60405180910390fd5b600154816000600481106103b8576103b7611479565b5b6020020151146103fd576040517f08c379a00000000000000000000000000000000000000000000000000000000081526004016103f4906114f4565b60405180910390fd5b7f00000000000000000000000000000000000000000000000000000000000000008160036004811061043257610431611479565b5b602002015114610477576040517f08c379a000000000000000000000000000000000000000000000000000000000815260040161046e90611560565b60405180910390fd5b60008160026004811061048d5761048c611479565b5b602002015190506007600082815260200190815260200160002060009054906101000a900460ff16156104f5576040517f08c379a00000000000000000000000000000000000000000000000000000000081526004016104ec906115f2565b60405180910390fd5b60008260016004811061050b5761050a611479565b5b602002015190506004548110610556576040517f08c379a000000000000000000000000000000000000000000000000000000000815260040161054d90611684565b60405180910390fd5b60007f000000000000000000000000000000000000000000000000000000000000000073ffffffffffffffffffffffffffffffffffffffff16635fe8c13b888888886040518563ffffffff1660e01b81526004016105b794939291906118d1565b602060405180830381865afa1580156105d4573d6000803e3d6000fd5b505050506040513d601f19601f820116820180604052508101906105f89190611944565b90508061063a576040517f08c379a0000000000000000000000000000000000000000000000000000000008152600401610631906119bd565b60405180910390fd5b60016007600085815260200190815260200160002060006101000a81548160ff02191690831515021790555060066000838152602001908152602001600020600081548092919061068a90611a0c565b9190505550817f00000000000000000000000000000000000000000000000000000000000000007fc31875ef3ed5138b71a0c1da7e494bc4d2ba4f567084ea481ec9c45f3a93948b60405160405180910390a350505050505050565b60035481565b60025481565b7f000000000000000000000000000000000000000000000000000000000000000081565b60015481565b60066020528060005260406000206000915090505481565b60045481565b60008054906101000a900473ffffffffffffffffffffffffffffffffffffffff1673ffffffffffffffffffffffffffffffffffffffff163373ffffffffffffffffffffffffffffffffffffffff16146107c8576040517f08c379a00000000000000000000000000000000000000000000000000000000081526004016107bf90611ac6565b60405180910390fd5b600560009054906101000a900460ff1615610818576040517f08c379a000000000000000000000000000000000000000000000000000000000815260040161080f90611b58565b60405180910390fd5b60006001541461085d576040517f08c379a000000000000000000000000000000000000000000000000000000000815260040161085490611bea565b60405180910390fd5b600081036108a0576040517f08c379a000000000000000000000000000000000000000000000000000000000815260040161089790611c7c565b60405180910390fd5b806001819055507f6e5a142e5c3c536ce6cdc71895fc55c97df6ad3432cd3759a9f784ca35ff447e816040516108d69190610da4565b60405180910390a150565b60008054906101000a900473ffffffffffffffffffffffffffffffffffffffff1673ffffffffffffffffffffffffffffffffffffffff163373ffffffffffffffffffffffffffffffffffffffff161461096f576040517f08c379a000000000000000000000000000000000000000000000000000000000815260040161096690611ac6565b60405180910390fd5b600560009054906101000a900460ff16156109bf576040517f08c379a00000000000000000000000000000000000000000000000000000000081526004016109b690611b58565b60405180910390fd5b600060015414610a04576040517f08c379a00000000000000000000000000000000000000000000000000000000081526004016109fb90611bea565b60405180910390fd5b60008303610a47576040517f08c379a0000000000000000000000000000000000000000000000000000000008152600401610a3e90611c7c565b60405180910390fd5b808210610a89576040517f08c379a0000000000000000000000000000000000000000000000000000000008152600401610a8090611d0e565b60405180910390fd5b8260018190555081600281905550806003819055506001600560006101000a81548160ff0219169083151502179055507f6e5a142e5c3c536ce6cdc71895fc55c97df6ad3432cd3759a9f784ca35ff447e83604051610ae89190610da4565b60405180910390a17f7e3f7f0708a84de9203036abaa450dccc85ad5ff52f78c170f3edb55cf5e88288282604051610b21929190611d2e565b60405180910390a17f8ef79dba3c82e8c1e27029879be1abfc2387bdab779e0c0d02c17aee8d70d7ac838383604051610b5c93929190611d57565b60405180910390a1505050565b600560009054906101000a900460ff1681565b60008054906101000a900473ffffffffffffffffffffffffffffffffffffffff1681565b60008054906101000a900473ffffffffffffffffffffffffffffffffffffffff1673ffffffffffffffffffffffffffffffffffffffff163373ffffffffffffffffffffffffffffffffffffffff1614610c2e576040517f08c379a0000000000000000000000000000000000000000000000000000000008152600401610c2590611ac6565b60405180910390fd5b600560009054906101000a900460ff1615610c7e576040517f08c379a0000000000000000000000000000000000000000000000000000000008152600401610c7590611b58565b60405180910390fd5b600060015403610cc3576040517f08c379a0000000000000000000000000000000000000000000000000000000008152600401610cba90611459565b60405180910390fd5b808210610d05576040517f08c379a0000000000000000000000000000000000000000000000000000000008152600401610cfc90611d0e565b60405180910390fd5b81600281905550806003819055506001600560006101000a81548160ff0219169083151502179055507f7e3f7f0708a84de9203036abaa450dccc85ad5ff52f78c170f3edb55cf5e88288282604051610d5f929190611d2e565b60405180910390a15050565b60076020528060005260406000206000915054906101000a900460ff1681565b6000819050919050565b610d9e81610d8b565b82525050565b6000602082019050610db96000830184610d95565b92915050565b6000604051905090565b600080fd5b600080fd5b6000601f19601f8301169050919050565b7f4e487b7100000000000000000000000000000000000000000000000000000000600052604160045260246000fd5b610e1c82610dd3565b810181811067ffffffffffffffff82111715610e3b57610e3a610de4565b5b80604052505050565b6000610e4e610dbf565b9050610e5a8282610e13565b919050565b600067ffffffffffffffff821115610e7a57610e79610de4565b5b602082029050919050565b600080fd5b610e9381610d8b565b8114610e9e57600080fd5b50565b600081359050610eb081610e8a565b92915050565b6000610ec9610ec484610e5f565b610e44565b90508060208402830185811115610ee357610ee2610e85565b5b835b81811015610f0c5780610ef88882610ea1565b845260208401935050602081019050610ee5565b5050509392505050565b600082601f830112610f2b57610f2a610dce565b5b6002610f38848285610eb6565b91505092915050565b600067ffffffffffffffff821115610f5c57610f5b610de4565b5b602082029050919050565b6000610f7a610f7584610f41565b610e44565b90508060408402830185811115610f9457610f93610e85565b5b835b81811015610fbd5780610fa98882610f16565b845260208401935050604081019050610f96565b5050509392505050565b600082601f830112610fdc57610fdb610dce565b5b6002610fe9848285610f67565b91505092915050565b600067ffffffffffffffff82111561100d5761100c610de4565b5b602082029050919050565b600061102b61102684610ff2565b610e44565b9050806020840283018581111561104557611044610e85565b5b835b8181101561106e578061105a8882610ea1565b845260208401935050602081019050611047565b5050509392505050565b600082601f83011261108d5761108c610dce565b5b600461109a848285611018565b91505092915050565b60008060008061018085870312156110be576110bd610dc9565b5b60006110cc87828801610f16565b94505060406110dd87828801610fc7565b93505060c06110ee87828801610f16565b92505061010061110087828801611078565b91505092959194509250565b600073ffffffffffffffffffffffffffffffffffffffff82169050919050565b6000819050919050565b600061115161114c6111478461110c565b61112c565b61110c565b9050919050565b600061116382611136565b9050919050565b600061117582611158565b9050919050565b6111858161116a565b82525050565b60006020820190506111a0600083018461117c565b92915050565b6000602082840312156111bc576111bb610dc9565b5b60006111ca84828501610ea1565b91505092915050565b6000806000606084860312156111ec576111eb610dc9565b5b60006111fa86828701610ea1565b935050602061120b86828701610ea1565b925050604061121c86828701610ea1565b9150509250925092565b60008115159050919050565b61123b81611226565b82525050565b60006020820190506112566000830184611232565b92915050565b60006112678261110c565b9050919050565b6112778161125c565b82525050565b6000602082019050611292600083018461126e565b92915050565b600080604083850312156112af576112ae610dc9565b5b60006112bd85828601610ea1565b92505060206112ce85828601610ea1565b9150509250929050565b600082825260208201905092915050565b7f566f74696e6754616c6c793a20566f74696e6720686173206e6f74207374617260008201527f7465642079657400000000000000000000000000000000000000000000000000602082015250565b60006113456027836112d8565b9150611350826112e9565b604082019050919050565b6000602082019050818103600083015261137481611338565b9050919050565b7f566f74696e6754616c6c793a20566f74696e672068617320656e646564000000600082015250565b60006113b1601d836112d8565b91506113bc8261137b565b602082019050919050565b600060208201905081810360008301526113e0816113a4565b9050919050565b7f566f74696e6754616c6c793a204d65726b6c6520726f6f74206973206e6f742060008201527f7365740000000000000000000000000000000000000000000000000000000000602082015250565b60006114436023836112d8565b915061144e826113e7565b604082019050919050565b6000602082019050818103600083015261147281611436565b9050919050565b7f4e487b7100000000000000000000000000000000000000000000000000000000600052603260045260246000fd5b7f566f74696e6754616c6c793a20496e76616c6964204d65726b6c6520726f6f74600082015250565b60006114de6020836112d8565b91506114e9826114a8565b602082019050919050565b6000602082019050818103600083015261150d816114d1565b9050919050565b7f566f74696e6754616c6c793a20496e76616c696420656c656374696f6e206964600082015250565b600061154a6020836112d8565b915061155582611514565b602082019050919050565b600060208201905081810360008301526115798161153d565b9050919050565b7f566f74696e6754616c6c793a205468697320766f74652068617320616c72656160008201527f6479206265656e20636173740000000000000000000000000000000000000000602082015250565b60006115dc602c836112d8565b91506115e782611580565b604082019050919050565b6000602082019050818103600083015261160b816115cf565b9050919050565b7f566f74696e6754616c6c793a20496e76616c69642063616e646964617465206960008201527f6e64657800000000000000000000000000000000000000000000000000000000602082015250565b600061166e6024836112d8565b915061167982611612565b604082019050919050565b6000602082019050818103600083015261169d81611661565b9050919050565b600060029050919050565b600081905092915050565b6000819050919050565b6116cd81610d8b565b82525050565b60006116df83836116c4565b60208301905092915050565b6000602082019050919050565b611701816116a4565b61170b81846116af565b9250611716826116ba565b8060005b8381101561174757815161172e87826116d3565b9650611739836116eb565b92505060018101905061171a565b505050505050565b600060029050919050565b600081905092915050565b6000819050919050565b600081905092915050565b611783816116a4565b61178d818461176f565b9250611798826116ba565b8060005b838110156117c95781516117b087826116d3565b96506117bb836116eb565b92505060018101905061179c565b505050505050565b60006117dd838361177a565b60408301905092915050565b6000602082019050919050565b6117ff8161174f565b611809818461175a565b925061181482611765565b8060005b8381101561184557815161182c87826117d1565b9650611837836117e9565b925050600181019050611818565b505050505050565b600060049050919050565b600081905092915050565b6000819050919050565b6000602082019050919050565b6118838161184d565b61188d8184611858565b925061189882611863565b8060005b838110156118c95781516118b087826116d3565b96506118bb8361186d565b92505060018101905061189c565b505050505050565b6000610180820190506118e760008301876116f8565b6118f460408301866117f6565b61190160c08301856116f8565b61190f61010083018461187a565b95945050505050565b61192181611226565b811461192c57600080fd5b50565b60008151905061193e81611918565b92915050565b60006020828403121561195a57611959610dc9565b5b60006119688482850161192f565b91505092915050565b7f566f74696e6754616c6c793a20496e76616c6964205a4b2070726f6f66000000600082015250565b60006119a7601d836112d8565b91506119b282611971565b602082019050919050565b600060208201905081810360008301526119d68161199a565b9050919050565b7f4e487b7100000000000000000000000000000000000000000000000000000000600052601160045260246000fd5b6000611a1782610d8b565b91507fffffffffffffffffffffffffffffffffffffffffffffffffffffffffffffffff8203611a4957611a486119dd565b5b600182019050919050565b7f566f74696e6754616c6c793a2043616c6c6572206973206e6f7420746865206f60008201527f776e657200000000000000000000000000000000000000000000000000000000602082015250565b6000611ab06024836112d8565b9150611abb82611a54565b604082019050919050565b60006020820190508181036000830152611adf81611aa3565b9050919050565b7f566f74696e6754616c6c793a20456c656374696f6e20616c726561647920636f60008201527f6e66696775726564000000000000000000000000000000000000000000000000602082015250565b6000611b426028836112d8565b9150611b4d82611ae6565b604082019050919050565b60006020820190508181036000830152611b7181611b35565b9050919050565b7f566f74696e6754616c6c793a204d65726b6c6520726f6f7420616c726561647960008201527f2073657400000000000000000000000000000000000000000000000000000000602082015250565b6000611bd46024836112d8565b9150611bdf82611b78565b604082019050919050565b60006020820190508181036000830152611c0381611bc7565b9050919050565b7f566f74696e6754616c6c793a204d65726b6c6520726f6f742063616e6e6f742060008201527f6265207a65726f00000000000000000000000000000000000000000000000000602082015250565b6000611c666027836112d8565b9150611c7182611c0a565b604082019050919050565b60006020820190508181036000830152611c9581611c59565b9050919050565b7f566f74696e6754616c6c793a2053746172742074696d65206d7573742062652060008201527f6265666f726520656e642074696d650000000000000000000000000000000000602082015250565b6000611cf8602f836112d8565b9150611d0382611c9c565b604082019050919050565b60006020820190508181036000830152611d2781611ceb565b9050919050565b6000604082019050611d436000830185610d95565b611d506020830184610d95565b9392505050565b6000606082019050611d6c6000830186610d95565b611d796020830185610d95565b611d866040830184610d95565b94935050505056fea26469706673582212200630d26a109cb6a7d401b81ef316a1aedac0b8e4f740e7289d3e6ed7deb44aa164736f6c63430008140033",
  "linkReferences": {},
  "deployedLinkReferences": {}
}