{
  "_format": "hh-sol-artifact-1",
  "contractName": "VotingTally",
  "sourceName": "contracts/VotingTally.sol",
  "abi": [
    {
      "inputs": [
        {
          "internalType": "address",
          "name": "_verifier",
          "type": "address"
        }
      ],
      "stateMutability": "nonpayable",
      "type": "constructor"
    },
    {
      "anonymous": false,
      "inputs": [
        {
          "indexed": true,
          "internalType": "address",
          "name": "voter",
          "type": "address"
        },
        {
          "indexed": false,
          "internalType": "uint256",
          "name": "voteIndex",
          "type": "uint256"
        }
      ],
      "name": "VoteSubmitted",
      "type": "event"
    },
    {
      "inputs": [
        {
          "internalType": "uint256",
          "name": "voteIndex",
          "type": "uint256"
        }
      ],
      "name": "getVoteCount",
      "outputs": [
        {
          "internalType": "uint256",
          "name": "count",
          "type": "uint256"
        }
      ],
      "stateMutability": "view",
      "type": "function"
    },
    {
      "inputs": [
        {
          "internalType": "uint256[2]",
          "name": "a",
          "type": "uint256[2]"
        },
        {
          "internalType": "uint256[2][2]",
          "name": "b",
          "type": "uint256[2][2]"
        },
        {
          "internalType": "uint256[2]",
          "name": "c",
          "type": "uint256[2]"
        },
        {
          "internalType": "uint256[]",
          "name": "input",
          "type": "uint256[]"
        }
      ],
      "name": "submitTally",
      "outputs": [],
      "stateMutability": "nonpayable",
      "type": "function"
    },
    {
      "inputs": [],
      "name": "verifier",
      "outputs": [
        {
          "internalType": "contract Groth16Verifier",
          "name": "",
          "type": "address"
        }
      ],
      "stateMutability": "view",
      "type": "function"
    },
    {
      "inputs": [
        {
          "internalType": "uint256",
          "name": "",
          "type": "uint256"
        }
      ],
      "name": "voteCounts",
      "outputs": [
        {
          "internalType": "uint256",
          "name": "",
          "type": "uint256"
        }
      ],
      "stateMutability": "view",
      "type": "function"
    }
  ],
  "bytecode": "0x608060405234801561001057600080fd5b50604051610d3f380380610d3f833981810160405281019061003291906100db565b806000806101000a81548173ffffffffffffffffffffffffffffffffffffffff021916908373ffffffffffffffffffffffffffffffffffffffff16021790555050610108565b600080fd5b600073ffffffffffffffffffffffffffffffffffffffff82169050919050565b60006100a88261007d565b9050919050565b6100b88161009d565b81146100c357600080fd5b50565b6000815190506100d5816100af565b92915050565b6000602082840312156100f1576100f0610078565b5b60006100ff848285016100c6565b91505092915050565b610c28806101176000396000f3fe608060405234801561001057600080fd5b506004361061004c5760003560e01c80632b7ac3f3146100515780633c3a220d1461006f57806378e9c9521461009f578063b2c2f2e8146100bb575b600080fd5b6100596100eb565b6040516100669190610426565b60405180910390f35b6100896004803603810190610084919061048b565b61010f565b60405161009691906104c7565b60405180910390f35b6100b960048036038101906100b4919061079d565b610127565b005b6100d560048036038101906100d0919061048b565b610368565b6040516100e291906104c7565b60405180910390f35b60008054906101000a900473ffffffffffffffffffffffffffffffffffffffff1681565b60016020528060005260406000206000915090505481565b600281511461016b576040517f08c379a00000000000000000000000000000000000000000000000000000000081526004016101629061087f565b60405180910390fd5b610173610385565b816000815181106101875761018661089f565b5b6020026020010151816000600281106101a3576101a261089f565b5b602002018181525050816001815181106101c0576101bf61089f565b5b6020026020010151816001600281106101dc576101db61089f565b5b60200201818152505060008060009054906101000a900473ffffffffffffffffffffffffffffffffffffffff1673ffffffffffffffffffffffffffffffffffffffff1663f5c9d69e878787866040518563ffffffff1660e01b81526004016102479493929190610a77565b602060405180830381865afa158015610264573d6000803e3d6000fd5b505050506040513d601f19601f820116820180604052508101906102889190610af6565b9050806102ca576040517f08c379a00000000000000000000000000000000000000000000000000000000081526004016102c190610b6f565b60405180910390fd5b6000826001600281106102e0576102df61089f565b5b602002015190506001806000838152602001908152602001600020600082825461030a9190610bbe565b925050819055503373ffffffffffffffffffffffffffffffffffffffff167f98f81efbbc42e3175555266dc8fda4ea0859ca75447f118fdde2c72a2b8735f18260405161035791906104c7565b60405180910390a250505050505050565b600060016000838152602001908152602001600020549050919050565b6040518060400160405280600290602082028036833780820191505090505090565b600073ffffffffffffffffffffffffffffffffffffffff82169050919050565b6000819050919050565b60006103ec6103e76103e2846103a7565b6103c7565b6103a7565b9050919050565b60006103fe826103d1565b9050919050565b6000610410826103f3565b9050919050565b61042081610405565b82525050565b600060208201905061043b6000830184610417565b92915050565b6000604051905090565b600080fd5b600080fd5b6000819050919050565b61046881610455565b811461047357600080fd5b50565b6000813590506104858161045f565b92915050565b6000602082840312156104a1576104a061044b565b5b60006104af84828501610476565b91505092915050565b6104c181610455565b82525050565b60006020820190506104dc60008301846104b8565b92915050565b600080fd5b6000601f19601f8301169050919050565b7f4e487b7100000000000000000000000000000000000000000000000000000000600052604160045260246000fd5b610530826104e7565b810181811067ffffffffffffffff8211171561054f5761054e6104f8565b5b80604052505050565b6000610562610441565b905061056e8282610527565b919050565b600067ffffffffffffffff82111561058e5761058d6104f8565b5b602082029050919050565b600080fd5b60006105b16105ac84610573565b610558565b905080602084028301858111156105cb576105ca610599565b5b835b818110156105f457806105e08882610476565b8452602084019350506020810190506105cd565b5050509392505050565b600082601f830112610613576106126104e2565b5b600261062084828561059e565b91505092915050565b600067ffffffffffffffff821115610644576106436104f8565b5b602082029050919050565b600061066261065d84610629565b610558565b9050806040840283018581111561067c5761067b610599565b5b835b818110156106a5578061069188826105fe565b84526020840193505060408101905061067e565b5050509392505050565b600082601f8301126106c4576106c36104e2565b5b60026106d184828561064f565b91505092915050565b600067ffffffffffffffff8211156106f5576106f46104f8565b5b602082029050602081019050919050565b6000610719610714846106da565b610558565b9050808382526020820190506020840283018581111561073c5761073b610599565b5b835b8181101561076557806107518882610476565b84526020840193505060208101905061073e565b5050509392505050565b600082601f830112610784576107836104e2565b5b8135610794848260208601610706565b91505092915050565b60008060008061012085870312156107b8576107b761044b565b5b60006107c6878288016105fe565b94505060406107d7878288016106af565b93505060c06107e8878288016105fe565b92505061010085013567ffffffffffffffff81111561080a57610809610450565b5b6108168782880161076f565b91505092959194509250565b600082825260208201905092915050565b7f496e76616c696420696e707574206c656e677468000000000000000000000000600082015250565b6000610869601483610822565b915061087482610833565b602082019050919050565b600060208201905081810360008301526108988161085c565b9050919050565b7f4e487b7100000000000000000000000000000000000000000000000000000000600052603260045260246000fd5b600060029050919050565b600081905092915050565b6000819050919050565b6108f781610455565b82525050565b600061090983836108ee565b60208301905092915050565b6000602082019050919050565b61092b816108ce565b61093581846108d9565b9250610940826108e4565b8060005b8381101561097157815161095887826108fd565b965061096383610915565b925050600181019050610944565b505050505050565b600060029050919050565b600081905092915050565b6000819050919050565b600081905092915050565b6109ad816108ce565b6109b78184610999565b92506109c2826108e4565b8060005b838110156109f35781516109da87826108fd565b96506109e583610915565b9250506001810190506109c6565b505050505050565b6000610a0783836109a4565b60408301905092915050565b6000602082019050919050565b610a2981610979565b610a338184610984565b9250610a3e8261098f565b8060005b83811015610a6f578151610a5687826109fb565b9650610a6183610a13565b925050600181019050610a42565b505050505050565b600061014082019050610a8d6000830187610922565b610a9a6040830186610a20565b610aa760c0830185610922565b610ab5610100830184610922565b95945050505050565b60008115159050919050565b610ad381610abe565b8114610ade57600080fd5b50565b600081519050610af081610aca565b92915050565b600060208284031215610b0c57610b0b61044b565b5b6000610b1a84828501610ae1565b91505092915050565b7f496e76616c6964205a4b2070726f6f6600000000000000000000000000000000600082015250565b6000610b59601083610822565b9150610b6482610b23565b602082019050919050565b60006020820190508181036000830152610b8881610b4c565b9050919050565b7f4e487b7100000000000000000000000000000000000000000000000000000000600052601160045260246000fd5b6000610bc982610455565b9150610bd483610455565b9250828201905080821115610bec57610beb610b8f565b5b9291505056fea2646970667358221220d4cfb87f277f54863caed70d6651224166a68abf75df749305c0b1537f33163264736f6c634300081c0033",
  "linkReferences": {},
  "deployedLinkReferences": {}
}