{
  "_format": "hh-sol-artifact-1",
  "contractName": "VotingTally",
  "sourceName": "contracts/VotingTally.sol",
  "abi": [
    {
      "inputs": [
        {
          "internalType": "address",
          "name": "_verifierAddress",
          "type": "address"
        },
        {
          "internalType": "uint256",
          "name": "_electionId",
          "type": "uint256"
        }
      ],
      "stateMutability": "nonpayable",
      "type": "constructor"
    },
    {
      "anonymous": false,
      "inputs": [
        {
          "indexed": false,
          "internalType": "uint256",
          "name": "root",
          "type": "uint256"
        }
      ],
      "name": "MerkleRootSet",
      "type": "event"
    },
    {
      "anonymous": false,
      "inputs": [
        {
          "indexed": true,
          "internalType": "uint256",
          "name": "candidateIndex",
          "type": "uint256"
        }
      ],
      "name": "VoteCast",
      "type": "event"
    },
    {
      "inputs": [],
      "name": "electionId",
      "outputs": [
        {
          "internalType": "uint256",
          "name": "",
          "type": "uint256"
        }
      ],
      "stateMutability": "view",
      "type": "function"
    },
    {
      "inputs": [],
      "name": "merkleRoot",
      "outputs": [
        {
          "internalType": "uint256",
          "name": "",
          "type": "uint256"
        }
      ],
      "stateMutability": "view",
      "type": "function"
    },
    {
      "inputs": [],
      "name": "owner",
      "outputs": [
        {
          "internalType": "address",
          "name": "",
          "type": "address"
        }
      ],
      "stateMutability": "view",
      "type": "function"
    },
    {
      "inputs": [
        {
          "internalType": "uint256",
          "name": "_root",
          "type": "uint256"
        }
      ],
      "name": "setMerkleRoot",
      "outputs": [],
      "stateMutability": "nonpayable",
      "type": "function"
    },
    {
      "inputs": [
        {
          "internalType": "uint256",
          "name": "_startTime",
          "type": "uint256"
        },
        {
          "internalType": "uint256",
          "name": "_endTime",
          "type": "uint256"
        }
      ],
      "name": "setVotingPeriod",
      "outputs": [],
      "stateMutability": "nonpayable",
      "type": "function"
    },
    {
      "inputs": [
        {
          "internalType": "uint256[2]",
          "name": "a",
          "type": "uint256[2]"
        },
        {
          "internalType": "uint256[2][2]",
          "name": "b",
          "type": "uint256[2][2]"
        },
        {
          "internalType": "uint256[2]",
          "name": "c",
          "type": "uint256[2]"
        },
        {
          "internalType": "uint256[3]",
          "name": "input",
          "type": "uint256[3]"
        }
      ],
      "name": "submitTally",
      "outputs": [],
      "stateMutability": "nonpayable",
      "type": "function"
    },
    {
      "inputs": [
        {
          "internalType": "uint256",
          "name": "",
          "type": "uint256"
        }
      ],
      "name": "usedNullifiers",
      "outputs": [
        {
          "internalType": "bool",
          "name": "",
          "type": "bool"
        }
      ],
      "stateMutability": "view",
      "type": "function"
    },
    {
      "inputs": [],
      "name": "verifier",
      "outputs": [
        {
          "internalType": "contract IVerifier",
          "name": "",
          "type": "address"
        }
      ],
      "stateMutability": "view",
      "type": "function"
    },
    {
      "inputs": [
        {
          "internalType": "uint256",
          "name": "",
          "type": "uint256"
        }
      ],
      "name": "voteCounts",
      "outputs": [
        {
          "internalType": "uint256",
          "name": "",
          "type": "uint256"
        }
      ],
      "stateMutability": "view",
      "type": "function"
    },
    {
      "inputs": [],
      "name": "votingEndTime",
      "outputs": [
        {
          "internalType": "uint256",
          "name": "",
          "type": "uint256"
        }
      ],
      "stateMutability": "view",
      "type": "function"
    },
    {
      "inputs": [],
      "name": "votingStartTime",
      "outputs": [
        {
          "internalType": "uint256",
          "name": "",
          "type": "uint256"
        }
      ],
      "stateMutability": "view",
      "type": "function"
    }
  ],
  "bytecode": "0x60806040523480156200001157600080fd5b50604051620015ba380380620015ba83398181016040528101906200003791906200016c565b336000806101000a81548173ffffffffffffffffffffffffffffffffffffffff021916908373ffffffffffffffffffffffffffffffffffffffff16021790555081600160006101000a81548173ffffffffffffffffffffffffffffffffffffffff021916908373ffffffffffffffffffffffffffffffffffffffff160217905550806003819055505050620001b3565b600080fd5b600073ffffffffffffffffffffffffffffffffffffffff82169050919050565b6000620000f982620000cc565b9050919050565b6200010b81620000ec565b81146200011757600080fd5b50565b6000815190506200012b8162000100565b92915050565b6000819050919050565b620001468162000131565b81146200015257600080fd5b50565b60008151905062000166816200013b565b92915050565b60008060408385031215620001865762000185620000c7565b5b600062000196858286016200011a565b9250506020620001a98582860162000155565b9150509250929050565b6113f780620001c36000396000f3fe608060405234801561001057600080fd5b50600436106100a95760003560e01c80632eb4a7ab116100715780632eb4a7ab146101425780633c3a220d146101605780635d5e8875146101905780638da5cb5b146101ac578063a15a36c7146101ca578063aad24061146101e6576100a9565b8063051364d4146100ae5780631ea736e0146100cc5780632019a608146100ea5780632b7ac3f3146101085780632c7d783b14610126575b600080fd5b6100b6610216565b6040516100c391906107b0565b60405180910390f35b6100d461021c565b6040516100e191906107b0565b60405180910390f35b6100f2610222565b6040516100ff91906107b0565b60405180910390f35b610110610228565b60405161011d919061084a565b60405180910390f35b610140600480360381019061013b9190610b49565b61024e565b005b61014a610584565b60405161015791906107b0565b60405180910390f35b61017a60048036038101906101759190610bb2565b61058a565b60405161018791906107b0565b60405180910390f35b6101aa60048036038101906101a59190610bb2565b6105a2565b005b6101b4610671565b6040516101c19190610c00565b60405180910390f35b6101e460048036038101906101df9190610c1b565b610695565b005b61020060048036038101906101fb9190610bb2565b610777565b60405161020d9190610c76565b60405180910390f35b60035481565b60055481565b60045481565b600160009054906101000a900473ffffffffffffffffffffffffffffffffffffffff1681565b600454421015610293576040517f08c379a000000000000000000000000000000000000000000000000000000000815260040161028a90610cee565b60405180910390fd5b60055442106102d7576040517f08c379a00000000000000000000000000000000000000000000000000000000081526004016102ce90610d5a565b60405180910390fd5b60006002540361031c576040517f08c379a000000000000000000000000000000000000000000000000000000000815260040161031390610dc6565b60405180910390fd5b6002548160006003811061033357610332610de6565b5b602002015114610378576040517f08c379a000000000000000000000000000000000000000000000000000000000815260040161036f90610e61565b60405180910390fd5b60008160026003811061038e5761038d610de6565b5b602002015190506007600082815260200190815260200160002060009054906101000a900460ff16156103f6576040517f08c379a00000000000000000000000000000000000000000000000000000000081526004016103ed90610ecd565b60405180910390fd5b6000600160009054906101000a900473ffffffffffffffffffffffffffffffffffffffff1673ffffffffffffffffffffffffffffffffffffffff166311479fea878787876040518563ffffffff1660e01b8152600401610459949392919061111a565b602060405180830381865afa158015610476573d6000803e3d6000fd5b505050506040513d601f19601f8201168201806040525081019061049a919061118d565b9050806104dc576040517f08c379a00000000000000000000000000000000000000000000000000000000081526004016104d390611206565b60405180910390fd5b60016007600084815260200190815260200160002060006101000a81548160ff02191690831515021790555060008360016003811061051e5761051d610de6565b5b6020020151905060066000828152602001908152602001600020600081548092919061054990611255565b9190505550807f9593d9bd30eff4872ec3bab10360ad82eaac80651801e68f47f0674c38415c3d60405160405180910390a250505050505050565b60025481565b60066020528060005260406000206000915090505481565b60008054906101000a900473ffffffffffffffffffffffffffffffffffffffff1673ffffffffffffffffffffffffffffffffffffffff163373ffffffffffffffffffffffffffffffffffffffff1614610630576040517f08c379a00000000000000000000000000000000000000000000000000000000081526004016106279061130f565b60405180910390fd5b806002819055507f6e5a142e5c3c536ce6cdc71895fc55c97df6ad3432cd3759a9f784ca35ff447e8160405161066691906107b0565b60405180910390a150565b60008054906101000a900473ffffffffffffffffffffffffffffffffffffffff1681565b60008054906101000a900473ffffffffffffffffffffffffffffffffffffffff1673ffffffffffffffffffffffffffffffffffffffff163373ffffffffffffffffffffffffffffffffffffffff1614610723576040517f08c379a000000000000000000000000000000000000000000000000000000000815260040161071a9061130f565b60405180910390fd5b808210610765576040517f08c379a000000000000000000000000000000000000000000000000000000000815260040161075c906113a1565b60405180910390fd5b81600481905550806005819055505050565b60076020528060005260406000206000915054906101000a900460ff1681565b6000819050919050565b6107aa81610797565b82525050565b60006020820190506107c560008301846107a1565b92915050565b600073ffffffffffffffffffffffffffffffffffffffff82169050919050565b6000819050919050565b600061081061080b610806846107cb565b6107eb565b6107cb565b9050919050565b6000610822826107f5565b9050919050565b600061083482610817565b9050919050565b61084481610829565b82525050565b600060208201905061085f600083018461083b565b92915050565b6000604051905090565b600080fd5b600080fd5b6000601f19601f8301169050919050565b7f4e487b7100000000000000000000000000000000000000000000000000000000600052604160045260246000fd5b6108c282610879565b810181811067ffffffffffffffff821117156108e1576108e061088a565b5b80604052505050565b60006108f4610865565b905061090082826108b9565b919050565b600067ffffffffffffffff8211156109205761091f61088a565b5b602082029050919050565b600080fd5b61093981610797565b811461094457600080fd5b50565b60008135905061095681610930565b92915050565b600061096f61096a84610905565b6108ea565b905080602084028301858111156109895761098861092b565b5b835b818110156109b2578061099e8882610947565b84526020840193505060208101905061098b565b5050509392505050565b600082601f8301126109d1576109d0610874565b5b60026109de84828561095c565b91505092915050565b600067ffffffffffffffff821115610a0257610a0161088a565b5b602082029050919050565b6000610a20610a1b846109e7565b6108ea565b90508060408402830185811115610a3a57610a3961092b565b5b835b81811015610a635780610a4f88826109bc565b845260208401935050604081019050610a3c565b5050509392505050565b600082601f830112610a8257610a81610874565b5b6002610a8f848285610a0d565b91505092915050565b600067ffffffffffffffff821115610ab357610ab261088a565b5b602082029050919050565b6000610ad1610acc84610a98565b6108ea565b90508060208402830185811115610aeb57610aea61092b565b5b835b81811015610b145780610b008882610947565b845260208401935050602081019050610aed565b5050509392505050565b600082601f830112610b3357610b32610874565b5b6003610b40848285610abe565b91505092915050565b6000806000806101608587031215610b6457610b6361086f565b5b6000610b72878288016109bc565b9450506040610b8387828801610a6d565b93505060c0610b94878288016109bc565b925050610100610ba687828801610b1e565b91505092959194509250565b600060208284031215610bc857610bc761086f565b5b6000610bd684828501610947565b91505092915050565b6000610bea826107cb565b9050919050565b610bfa81610bdf565b82525050565b6000602082019050610c156000830184610bf1565b92915050565b60008060408385031215610c3257610c3161086f565b5b6000610c4085828601610947565b9250506020610c5185828601610947565b9150509250929050565b60008115159050919050565b610c7081610c5b565b82525050565b6000602082019050610c8b6000830184610c67565b92915050565b600082825260208201905092915050565b7f566f74696e6720686173206e6f20737461727465642079657400000000000000600082015250565b6000610cd8601983610c91565b9150610ce382610ca2565b602082019050919050565b60006020820190508181036000830152610d0781610ccb565b9050919050565b7f566f74696e672068617320656e64656400000000000000000000000000000000600082015250565b6000610d44601083610c91565b9150610d4f82610d0e565b602082019050919050565b60006020820190508181036000830152610d7381610d37565b9050919050565b7f566f74696e6720686173206e6f742073746172746564207965742e0000000000600082015250565b6000610db0601b83610c91565b9150610dbb82610d7a565b602082019050919050565b60006020820190508181036000830152610ddf81610da3565b9050919050565b7f4e487b7100000000000000000000000000000000000000000000000000000000600052603260045260246000fd5b7f496e76616c6964204d65726b6c6520526f6f742e000000000000000000000000600082015250565b6000610e4b601483610c91565b9150610e5682610e15565b602082019050919050565b60006020820190508181036000830152610e7a81610e3e565b9050919050565b7f566f74652068617320616c7265616479206265656e20636173742e0000000000600082015250565b6000610eb7601b83610c91565b9150610ec282610e81565b602082019050919050565b60006020820190508181036000830152610ee681610eaa565b9050919050565b600060029050919050565b600081905092915050565b6000819050919050565b610f1681610797565b82525050565b6000610f288383610f0d565b60208301905092915050565b6000602082019050919050565b610f4a81610eed565b610f548184610ef8565b9250610f5f82610f03565b8060005b83811015610f90578151610f778782610f1c565b9650610f8283610f34565b925050600181019050610f63565b505050505050565b600060029050919050565b600081905092915050565b6000819050919050565b600081905092915050565b610fcc81610eed565b610fd68184610fb8565b9250610fe182610f03565b8060005b83811015611012578151610ff98782610f1c565b965061100483610f34565b925050600181019050610fe5565b505050505050565b60006110268383610fc3565b60408301905092915050565b6000602082019050919050565b61104881610f98565b6110528184610fa3565b925061105d82610fae565b8060005b8381101561108e578151611075878261101a565b965061108083611032565b925050600181019050611061565b505050505050565b600060039050919050565b600081905092915050565b6000819050919050565b6000602082019050919050565b6110cc81611096565b6110d681846110a1565b92506110e1826110ac565b8060005b838110156111125781516110f98782610f1c565b9650611104836110b6565b9250506001810190506110e5565b505050505050565b6000610160820190506111306000830187610f41565b61113d604083018661103f565b61114a60c0830185610f41565b6111586101008301846110c3565b95945050505050565b61116a81610c5b565b811461117557600080fd5b50565b60008151905061118781611161565b92915050565b6000602082840312156111a3576111a261086f565b5b60006111b184828501611178565b91505092915050565b7f496e76616c6964205a4b2070726f6f662e000000000000000000000000000000600082015250565b60006111f0601183610c91565b91506111fb826111ba565b602082019050919050565b6000602082019050818103600083015261121f816111e3565b9050919050565b7f4e487b7100000000000000000000000000000000000000000000000000000000600052601160045260246000fd5b600061126082610797565b91507fffffffffffffffffffffffffffffffffffffffffffffffffffffffffffffffff820361129257611291611226565b5b600182019050919050565b7f4f6e6c79206f776e65722063616e2063616c6c20746869732066756e6374696f60008201527f6e2e000000000000000000000000000000000000000000000000000000000000602082015250565b60006112f9602283610c91565b91506113048261129d565b604082019050919050565b60006020820190508181036000830152611328816112ec565b9050919050565b7f53746172742074696d65206d757374206265206265666f726520656e6420746960008201527f6d65000000000000000000000000000000000000000000000000000000000000602082015250565b600061138b602283610c91565b91506113968261132f565b604082019050919050565b600060208201905081810360008301526113ba8161137e565b905091905056fea2646970667358221220d2c20f7389114f748d26111054c1490044980bfc265fd00ce384b191945dac8564736f6c63430008140033",
  "linkReferences": {},
  "deployedLinkReferences": {}
}