{
  "_format": "hh-sol-artifact-1",
  "contractName": "VotingTally",
  "sourceName": "contracts/VotingTally.sol",
  "abi": [
    {
      "inputs": [
        {
          "internalType": "address",
          "name": "_verifierAddress",
          "type": "address"
        },
        {
          "internalType": "uint256",
          "name": "_electionId",
          "type": "uint256"
        }
      ],
      "stateMutability": "nonpayable",
      "type": "constructor"
    },
    {
      "anonymous": false,
      "inputs": [
        {
          "indexed": false,
          "internalType": "uint256",
          "name": "root",
          "type": "uint256"
        }
      ],
      "name": "MerkleRootSet",
      "type": "event"
    },
    {
      "anonymous": false,
      "inputs": [
        {
          "indexed": true,
          "internalType": "uint256",
          "name": "candidateIndex",
          "type": "uint256"
        }
      ],
      "name": "VoteCast",
      "type": "event"
    },
    {
      "inputs": [],
      "name": "electionId",
      "outputs": [
        {
          "internalType": "uint256",
          "name": "",
          "type": "uint256"
        }
      ],
      "stateMutability": "view",
      "type": "function"
    },
    {
      "inputs": [],
      "name": "merkleRoot",
      "outputs": [
        {
          "internalType": "uint256",
          "name": "",
          "type": "uint256"
        }
      ],
      "stateMutability": "view",
      "type": "function"
    },
    {
      "inputs": [],
      "name": "owner",
      "outputs": [
        {
          "internalType": "address",
          "name": "",
          "type": "address"
        }
      ],
      "stateMutability": "view",
      "type": "function"
    },
    {
      "inputs": [
        {
          "internalType": "uint256",
          "name": "_root",
          "type": "uint256"
        }
      ],
      "name": "setMerkleRoot",
      "outputs": [],
      "stateMutability": "nonpayable",
      "type": "function"
    },
    {
      "inputs": [
        {
          "internalType": "uint256[2]",
          "name": "a",
          "type": "uint256[2]"
        },
        {
          "internalType": "uint256[2][2]",
          "name": "b",
          "type": "uint256[2][2]"
        },
        {
          "internalType": "uint256[2]",
          "name": "c",
          "type": "uint256[2]"
        },
        {
          "internalType": "uint256[3]",
          "name": "input",
          "type": "uint256[3]"
        }
      ],
      "name": "submitTally",
      "outputs": [],
      "stateMutability": "nonpayable",
      "type": "function"
    },
    {
      "inputs": [
        {
          "internalType": "uint256",
          "name": "",
          "type": "uint256"
        }
      ],
      "name": "usedNullifiers",
      "outputs": [
        {
          "internalType": "bool",
          "name": "",
          "type": "bool"
        }
      ],
      "stateMutability": "view",
      "type": "function"
    },
    {
      "inputs": [],
      "name": "verifier",
      "outputs": [
        {
          "internalType": "contract IVerifier",
          "name": "",
          "type": "address"
        }
      ],
      "stateMutability": "view",
      "type": "function"
    },
    {
      "inputs": [
        {
          "internalType": "uint256",
          "name": "",
          "type": "uint256"
        }
      ],
      "name": "voteCounts",
      "outputs": [
        {
          "internalType": "uint256",
          "name": "",
          "type": "uint256"
        }
      ],
      "stateMutability": "view",
      "type": "function"
    }
  ],
  "bytecode": "0x60806040523480156200001157600080fd5b50604051620012203803806200122083398181016040528101906200003791906200016c565b336000806101000a81548173ffffffffffffffffffffffffffffffffffffffff021916908373ffffffffffffffffffffffffffffffffffffffff16021790555081600160006101000a81548173ffffffffffffffffffffffffffffffffffffffff021916908373ffffffffffffffffffffffffffffffffffffffff160217905550806003819055505050620001b3565b600080fd5b600073ffffffffffffffffffffffffffffffffffffffff82169050919050565b6000620000f982620000cc565b9050919050565b6200010b81620000ec565b81146200011757600080fd5b50565b6000815190506200012b8162000100565b92915050565b6000819050919050565b620001468162000131565b81146200015257600080fd5b50565b60008151905062000166816200013b565b92915050565b60008060408385031215620001865762000185620000c7565b5b600062000196858286016200011a565b9250506020620001a98582860162000155565b9150509250929050565b61105d80620001c36000396000f3fe608060405234801561001057600080fd5b50600436106100885760003560e01c80633c3a220d1161005b5780633c3a220d146101035780635d5e8875146101335780638da5cb5b1461014f578063aad240611461016d57610088565b8063051364d41461008d5780632b7ac3f3146100ab5780632c7d783b146100c95780632eb4a7ab146100e5575b600080fd5b61009561019d565b6040516100a291906105c0565b60405180910390f35b6100b36101a3565b6040516100c0919061065a565b60405180910390f35b6100e360048036038101906100de9190610959565b6101c9565b005b6100ed610476565b6040516100fa91906105c0565b60405180910390f35b61011d600480360381019061011891906109c2565b61047c565b60405161012a91906105c0565b60405180910390f35b61014d600480360381019061014891906109c2565b610494565b005b610157610563565b6040516101649190610a10565b60405180910390f35b610187600480360381019061018291906109c2565b610587565b6040516101949190610a46565b60405180910390f35b60035481565b600160009054906101000a900473ffffffffffffffffffffffffffffffffffffffff1681565b60006002540361020e576040517f08c379a000000000000000000000000000000000000000000000000000000000815260040161020590610abe565b60405180910390fd5b6002548160006003811061022557610224610ade565b5b60200201511461026a576040517f08c379a000000000000000000000000000000000000000000000000000000000815260040161026190610b59565b60405180910390fd5b6000816002600381106102805761027f610ade565b5b602002015190506005600082815260200190815260200160002060009054906101000a900460ff16156102e8576040517f08c379a00000000000000000000000000000000000000000000000000000000081526004016102df90610bc5565b60405180910390fd5b6000600160009054906101000a900473ffffffffffffffffffffffffffffffffffffffff1673ffffffffffffffffffffffffffffffffffffffff166311479fea878787876040518563ffffffff1660e01b815260040161034b9493929190610e12565b602060405180830381865afa158015610368573d6000803e3d6000fd5b505050506040513d601f19601f8201168201806040525081019061038c9190610e85565b9050806103ce576040517f08c379a00000000000000000000000000000000000000000000000000000000081526004016103c590610efe565b60405180910390fd5b60016005600084815260200190815260200160002060006101000a81548160ff0219169083151502179055506000836001600381106104105761040f610ade565b5b6020020151905060046000828152602001908152602001600020600081548092919061043b90610f4d565b9190505550807f9593d9bd30eff4872ec3bab10360ad82eaac80651801e68f47f0674c38415c3d60405160405180910390a250505050505050565b60025481565b60046020528060005260406000206000915090505481565b60008054906101000a900473ffffffffffffffffffffffffffffffffffffffff1673ffffffffffffffffffffffffffffffffffffffff163373ffffffffffffffffffffffffffffffffffffffff1614610522576040517f08c379a000000000000000000000000000000000000000000000000000000000815260040161051990611007565b60405180910390fd5b806002819055507f6e5a142e5c3c536ce6cdc71895fc55c97df6ad3432cd3759a9f784ca35ff447e8160405161055891906105c0565b60405180910390a150565b60008054906101000a900473ffffffffffffffffffffffffffffffffffffffff1681565b60056020528060005260406000206000915054906101000a900460ff1681565b6000819050919050565b6105ba816105a7565b82525050565b60006020820190506105d560008301846105b1565b92915050565b600073ffffffffffffffffffffffffffffffffffffffff82169050919050565b6000819050919050565b600061062061061b610616846105db565b6105fb565b6105db565b9050919050565b600061063282610605565b9050919050565b600061064482610627565b9050919050565b61065481610639565b82525050565b600060208201905061066f600083018461064b565b92915050565b6000604051905090565b600080fd5b600080fd5b6000601f19601f8301169050919050565b7f4e487b7100000000000000000000000000000000000000000000000000000000600052604160045260246000fd5b6106d282610689565b810181811067ffffffffffffffff821117156106f1576106f061069a565b5b80604052505050565b6000610704610675565b905061071082826106c9565b919050565b600067ffffffffffffffff8211156107305761072f61069a565b5b602082029050919050565b600080fd5b610749816105a7565b811461075457600080fd5b50565b60008135905061076681610740565b92915050565b600061077f61077a84610715565b6106fa565b905080602084028301858111156107995761079861073b565b5b835b818110156107c257806107ae8882610757565b84526020840193505060208101905061079b565b5050509392505050565b600082601f8301126107e1576107e0610684565b5b60026107ee84828561076c565b91505092915050565b600067ffffffffffffffff8211156108125761081161069a565b5b602082029050919050565b600061083061082b846107f7565b6106fa565b9050806040840283018581111561084a5761084961073b565b5b835b81811015610873578061085f88826107cc565b84526020840193505060408101905061084c565b5050509392505050565b600082601f83011261089257610891610684565b5b600261089f84828561081d565b91505092915050565b600067ffffffffffffffff8211156108c3576108c261069a565b5b602082029050919050565b60006108e16108dc846108a8565b6106fa565b905080602084028301858111156108fb576108fa61073b565b5b835b8181101561092457806109108882610757565b8452602084019350506020810190506108fd565b5050509392505050565b600082601f83011261094357610942610684565b5b60036109508482856108ce565b91505092915050565b60008060008061016085870312156109745761097361067f565b5b6000610982878288016107cc565b94505060406109938782880161087d565b93505060c06109a4878288016107cc565b9250506101006109b68782880161092e565b91505092959194509250565b6000602082840312156109d8576109d761067f565b5b60006109e684828501610757565b91505092915050565b60006109fa826105db565b9050919050565b610a0a816109ef565b82525050565b6000602082019050610a256000830184610a01565b92915050565b60008115159050919050565b610a4081610a2b565b82525050565b6000602082019050610a5b6000830184610a37565b92915050565b600082825260208201905092915050565b7f566f74696e6720686173206e6f742073746172746564207965742e0000000000600082015250565b6000610aa8601b83610a61565b9150610ab382610a72565b602082019050919050565b60006020820190508181036000830152610ad781610a9b565b9050919050565b7f4e487b7100000000000000000000000000000000000000000000000000000000600052603260045260246000fd5b7f496e76616c6964204d65726b6c6520526f6f742e000000000000000000000000600082015250565b6000610b43601483610a61565b9150610b4e82610b0d565b602082019050919050565b60006020820190508181036000830152610b7281610b36565b9050919050565b7f566f74652068617320616c7265616479206265656e20636173742e0000000000600082015250565b6000610baf601b83610a61565b9150610bba82610b79565b602082019050919050565b60006020820190508181036000830152610bde81610ba2565b9050919050565b600060029050919050565b600081905092915050565b6000819050919050565b610c0e816105a7565b82525050565b6000610c208383610c05565b60208301905092915050565b6000602082019050919050565b610c4281610be5565b610c4c8184610bf0565b9250610c5782610bfb565b8060005b83811015610c88578151610c6f8782610c14565b9650610c7a83610c2c565b925050600181019050610c5b565b505050505050565b600060029050919050565b600081905092915050565b6000819050919050565b600081905092915050565b610cc481610be5565b610cce8184610cb0565b9250610cd982610bfb565b8060005b83811015610d0a578151610cf18782610c14565b9650610cfc83610c2c565b925050600181019050610cdd565b505050505050565b6000610d1e8383610cbb565b60408301905092915050565b6000602082019050919050565b610d4081610c90565b610d4a8184610c9b565b9250610d5582610ca6565b8060005b83811015610d86578151610d6d8782610d12565b9650610d7883610d2a565b925050600181019050610d59565b505050505050565b600060039050919050565b600081905092915050565b6000819050919050565b6000602082019050919050565b610dc481610d8e565b610dce8184610d99565b9250610dd982610da4565b8060005b83811015610e0a578151610df18782610c14565b9650610dfc83610dae565b925050600181019050610ddd565b505050505050565b600061016082019050610e286000830187610c39565b610e356040830186610d37565b610e4260c0830185610c39565b610e50610100830184610dbb565b95945050505050565b610e6281610a2b565b8114610e6d57600080fd5b50565b600081519050610e7f81610e59565b92915050565b600060208284031215610e9b57610e9a61067f565b5b6000610ea984828501610e70565b91505092915050565b7f496e76616c6964205a4b2070726f6f662e000000000000000000000000000000600082015250565b6000610ee8601183610a61565b9150610ef382610eb2565b602082019050919050565b60006020820190508181036000830152610f1781610edb565b9050919050565b7f4e487b7100000000000000000000000000000000000000000000000000000000600052601160045260246000fd5b6000610f58826105a7565b91507fffffffffffffffffffffffffffffffffffffffffffffffffffffffffffffffff8203610f8a57610f89610f1e565b5b600182019050919050565b7f4f6e6c79206f776e65722063616e2063616c6c20746869732066756e6374696f60008201527f6e2e000000000000000000000000000000000000000000000000000000000000602082015250565b6000610ff1602283610a61565b9150610ffc82610f95565b604082019050919050565b6000602082019050818103600083015261102081610fe4565b905091905056fea26469706673582212205823d1d666f62f38870276aa30b54d8198ce6440e0efc7e83dd7a6d3985eac2364736f6c63430008140033",
  "linkReferences": {},
  "deployedLinkReferences": {}
}