{
  "_format": "hh-sol-artifact-1",
  "contractName": "VotingTally",
  "sourceName": "contracts/VotingTally.sol",
  "abi": [
    {
      "inputs": [
        {
          "internalType": "address",
          "name": "_verifierAddress",
          "type": "address"
        },
        {
          "internalType": "uint256",
          "name": "_electionId",
          "type": "uint256"
        },
        {
          "internalType": "uint256",
          "name": "_numCandidates",
          "type": "uint256"
        }
      ],
      "stateMutability": "nonpayable",
      "type": "constructor"
    },
    {
      "anonymous": false,
      "inputs": [
        {
          "indexed": false,
          "internalType": "uint256",
          "name": "root",
          "type": "uint256"
        }
      ],
      "name": "MerkleRootSet",
      "type": "event"
    },
    {
      "anonymous": false,
      "inputs": [
        {
          "indexed": true,
          "internalType": "uint256",
          "name": "electionId",
          "type": "uint256"
        },
        {
          "indexed": true,
          "internalType": "uint256",
          "name": "candidateIndex",
          "type": "uint256"
        }
      ],
      "name": "VoteCast",
      "type": "event"
    },
    {
      "anonymous": false,
      "inputs": [
        {
          "indexed": false,
          "internalType": "uint256",
          "name": "startTime",
          "type": "uint256"
        },
        {
          "indexed": false,
          "internalType": "uint256",
          "name": "endTime",
          "type": "uint256"
        }
      ],
      "name": "VotingPeriodSet",
      "type": "event"
    },
    {
      "inputs": [],
      "name": "electionId",
      "outputs": [
        {
          "internalType": "uint256",
          "name": "",
          "type": "uint256"
        }
      ],
      "stateMutability": "view",
      "type": "function"
    },
    {
      "inputs": [],
      "name": "merkleRoot",
      "outputs": [
        {
          "internalType": "uint256",
          "name": "",
          "type": "uint256"
        }
      ],
      "stateMutability": "view",
      "type": "function"
    },
    {
      "inputs": [],
      "name": "numCandidates",
      "outputs": [
        {
          "internalType": "uint256",
          "name": "",
          "type": "uint256"
        }
      ],
      "stateMutability": "view",
      "type": "function"
    },
    {
      "inputs": [],
      "name": "owner",
      "outputs": [
        {
          "internalType": "address",
          "name": "",
          "type": "address"
        }
      ],
      "stateMutability": "view",
      "type": "function"
    },
    {
      "inputs": [
        {
          "internalType": "uint256",
          "name": "_root",
          "type": "uint256"
        }
      ],
      "name": "setMerkleRoot",
      "outputs": [],
      "stateMutability": "nonpayable",
      "type": "function"
    },
    {
      "inputs": [
        {
          "internalType": "uint256",
          "name": "_startTime",
          "type": "uint256"
        },
        {
          "internalType": "uint256",
          "name": "_endTime",
          "type": "uint256"
        }
      ],
      "name": "setVotingPeriod",
      "outputs": [],
      "stateMutability": "nonpayable",
      "type": "function"
    },
    {
      "inputs": [
        {
          "internalType": "uint256[2]",
          "name": "a",
          "type": "uint256[2]"
        },
        {
          "internalType": "uint256[2][2]",
          "name": "b",
          "type": "uint256[2][2]"
        },
        {
          "internalType": "uint256[2]",
          "name": "c",
          "type": "uint256[2]"
        },
        {
          "internalType": "uint256[3]",
          "name": "publicInputs",
          "type": "uint256[3]"
        }
      ],
      "name": "submitTally",
      "outputs": [],
      "stateMutability": "nonpayable",
      "type": "function"
    },
    {
      "inputs": [
        {
          "internalType": "uint256",
          "name": "",
          "type": "uint256"
        }
      ],
      "name": "usedNullifiers",
      "outputs": [
        {
          "internalType": "bool",
          "name": "",
          "type": "bool"
        }
      ],
      "stateMutability": "view",
      "type": "function"
    },
    {
      "inputs": [],
      "name": "verifier",
      "outputs": [
        {
          "internalType": "contract IVerifier",
          "name": "",
          "type": "address"
        }
      ],
      "stateMutability": "view",
      "type": "function"
    },
    {
      "inputs": [
        {
          "internalType": "uint256",
          "name": "",
          "type": "uint256"
        }
      ],
      "name": "voteCounts",
      "outputs": [
        {
          "internalType": "uint256",
          "name": "",
          "type": "uint256"
        }
      ],
      "stateMutability": "view",
      "type": "function"
    },
    {
      "inputs": [],
      "name": "votingEndTime",
      "outputs": [
        {
          "internalType": "uint256",
          "name": "",
          "type": "uint256"
        }
      ],
      "stateMutability": "view",
      "type": "function"
    },
    {
      "inputs": [],
      "name": "votingStartTime",
      "outputs": [
        {
          "internalType": "uint256",
          "name": "",
          "type": "uint256"
        }
      ],
      "stateMutability": "view",
      "type": "function"
    }
  ],
  "bytecode": "0x60c06040523480156200001157600080fd5b50604051620018d8380380620018d8833981810160405281019062000037919062000168565b336000806101000a81548173ffffffffffffffffffffffffffffffffffffffff021916908373ffffffffffffffffffffffffffffffffffffffff1602179055508273ffffffffffffffffffffffffffffffffffffffff1660808173ffffffffffffffffffffffffffffffffffffffff16815250508160a0818152505080600481905550505050620001c4565b600080fd5b600073ffffffffffffffffffffffffffffffffffffffff82169050919050565b6000620000f582620000c8565b9050919050565b6200010781620000e8565b81146200011357600080fd5b50565b6000815190506200012781620000fc565b92915050565b6000819050919050565b62000142816200012d565b81146200014e57600080fd5b50565b600081519050620001628162000137565b92915050565b600080600060608486031215620001845762000183620000c3565b5b6000620001948682870162000116565b9350506020620001a78682870162000151565b9250506040620001ba8682870162000151565b9150509250925092565b60805160a0516116e0620001f86000396000818161024101526105d801526000818161027101526104a001526116e06000f3fe608060405234801561001057600080fd5b50600436106100b45760003560e01c80633c3a220d116100715780633c3a220d1461016b5780635216509a1461019b5780635d5e8875146101b95780638da5cb5b146101d5578063a15a36c7146101f3578063aad240611461020f576100b4565b8063051364d4146100b95780631ea736e0146100d75780632019a608146100f55780632b7ac3f3146101135780632c7d783b146101315780632eb4a7ab1461014d575b600080fd5b6100c161023f565b6040516100ce91906108da565b60405180910390f35b6100df610263565b6040516100ec91906108da565b60405180910390f35b6100fd610269565b60405161010a91906108da565b60405180910390f35b61011b61026f565b6040516101289190610974565b60405180910390f35b61014b60048036038101906101469190610c73565b610293565b005b61015561062c565b60405161016291906108da565b60405180910390f35b61018560048036038101906101809190610cdc565b610632565b60405161019291906108da565b60405180910390f35b6101a361064a565b6040516101b091906108da565b60405180910390f35b6101d360048036038101906101ce9190610cdc565b610650565b005b6101dd610762565b6040516101ea9190610d2a565b60405180910390f35b61020d60048036038101906102089190610d45565b610786565b005b61022960048036038101906102249190610cdc565b6108a1565b6040516102369190610da0565b60405180910390f35b7f000000000000000000000000000000000000000000000000000000000000000081565b60035481565b60025481565b7f000000000000000000000000000000000000000000000000000000000000000081565b6002544210156102d8576040517f08c379a00000000000000000000000000000000000000000000000000000000081526004016102cf90610e3e565b60405180910390fd5b600354421061031c576040517f08c379a000000000000000000000000000000000000000000000000000000000815260040161031390610eaa565b60405180910390fd5b600060015403610361576040517f08c379a000000000000000000000000000000000000000000000000000000000815260040161035890610f3c565b60405180910390fd5b6001548160006003811061037857610377610f5c565b5b6020020151146103bd576040517f08c379a00000000000000000000000000000000000000000000000000000000081526004016103b490610fd7565b60405180910390fd5b6000816002600381106103d3576103d2610f5c565b5b602002015190506006600082815260200190815260200160002060009054906101000a900460ff161561043b576040517f08c379a000000000000000000000000000000000000000000000000000000000815260040161043290611069565b60405180910390fd5b60008260016003811061045157610450610f5c565b5b60200201519050600454811061049c576040517f08c379a0000000000000000000000000000000000000000000000000000000008152600401610493906110fb565b60405180910390fd5b60007f000000000000000000000000000000000000000000000000000000000000000073ffffffffffffffffffffffffffffffffffffffff166311479fea888888886040518563ffffffff1660e01b81526004016104fd9493929190611348565b602060405180830381865afa15801561051a573d6000803e3d6000fd5b505050506040513d601f19601f8201168201806040525081019061053e91906113bb565b905080610580576040517f08c379a000000000000000000000000000000000000000000000000000000000815260040161057790611434565b60405180910390fd5b60016006600085815260200190815260200160002060006101000a81548160ff0219169083151502179055506005600083815260200190815260200160002060008154809291906105d090611483565b9190505550817f00000000000000000000000000000000000000000000000000000000000000007fc31875ef3ed5138b71a0c1da7e494bc4d2ba4f567084ea481ec9c45f3a93948b60405160405180910390a350505050505050565b60015481565b60056020528060005260406000206000915090505481565b60045481565b60008054906101000a900473ffffffffffffffffffffffffffffffffffffffff1673ffffffffffffffffffffffffffffffffffffffff163373ffffffffffffffffffffffffffffffffffffffff16146106de576040517f08c379a00000000000000000000000000000000000000000000000000000000081526004016106d59061153d565b60405180910390fd5b60008103610721576040517f08c379a0000000000000000000000000000000000000000000000000000000008152600401610718906115cf565b60405180910390fd5b806001819055507f6e5a142e5c3c536ce6cdc71895fc55c97df6ad3432cd3759a9f784ca35ff447e8160405161075791906108da565b60405180910390a150565b60008054906101000a900473ffffffffffffffffffffffffffffffffffffffff1681565b60008054906101000a900473ffffffffffffffffffffffffffffffffffffffff1673ffffffffffffffffffffffffffffffffffffffff163373ffffffffffffffffffffffffffffffffffffffff1614610814576040517f08c379a000000000000000000000000000000000000000000000000000000000815260040161080b9061153d565b60405180910390fd5b808210610856576040517f08c379a000000000000000000000000000000000000000000000000000000000815260040161084d90611661565b60405180910390fd5b81600281905550806003819055507f7e3f7f0708a84de9203036abaa450dccc85ad5ff52f78c170f3edb55cf5e88288282604051610895929190611681565b60405180910390a15050565b60066020528060005260406000206000915054906101000a900460ff1681565b6000819050919050565b6108d4816108c1565b82525050565b60006020820190506108ef60008301846108cb565b92915050565b600073ffffffffffffffffffffffffffffffffffffffff82169050919050565b6000819050919050565b600061093a610935610930846108f5565b610915565b6108f5565b9050919050565b600061094c8261091f565b9050919050565b600061095e82610941565b9050919050565b61096e81610953565b82525050565b60006020820190506109896000830184610965565b92915050565b6000604051905090565b600080fd5b600080fd5b6000601f19601f8301169050919050565b7f4e487b7100000000000000000000000000000000000000000000000000000000600052604160045260246000fd5b6109ec826109a3565b810181811067ffffffffffffffff82111715610a0b57610a0a6109b4565b5b80604052505050565b6000610a1e61098f565b9050610a2a82826109e3565b919050565b600067ffffffffffffffff821115610a4a57610a496109b4565b5b602082029050919050565b600080fd5b610a63816108c1565b8114610a6e57600080fd5b50565b600081359050610a8081610a5a565b92915050565b6000610a99610a9484610a2f565b610a14565b90508060208402830185811115610ab357610ab2610a55565b5b835b81811015610adc5780610ac88882610a71565b845260208401935050602081019050610ab5565b5050509392505050565b600082601f830112610afb57610afa61099e565b5b6002610b08848285610a86565b91505092915050565b600067ffffffffffffffff821115610b2c57610b2b6109b4565b5b602082029050919050565b6000610b4a610b4584610b11565b610a14565b90508060408402830185811115610b6457610b63610a55565b5b835b81811015610b8d5780610b798882610ae6565b845260208401935050604081019050610b66565b5050509392505050565b600082601f830112610bac57610bab61099e565b5b6002610bb9848285610b37565b91505092915050565b600067ffffffffffffffff821115610bdd57610bdc6109b4565b5b602082029050919050565b6000610bfb610bf684610bc2565b610a14565b90508060208402830185811115610c1557610c14610a55565b5b835b81811015610c3e5780610c2a8882610a71565b845260208401935050602081019050610c17565b5050509392505050565b600082601f830112610c5d57610c5c61099e565b5b6003610c6a848285610be8565b91505092915050565b6000806000806101608587031215610c8e57610c8d610999565b5b6000610c9c87828801610ae6565b9450506040610cad87828801610b97565b93505060c0610cbe87828801610ae6565b925050610100610cd087828801610c48565b91505092959194509250565b600060208284031215610cf257610cf1610999565b5b6000610d0084828501610a71565b91505092915050565b6000610d14826108f5565b9050919050565b610d2481610d09565b82525050565b6000602082019050610d3f6000830184610d1b565b92915050565b60008060408385031215610d5c57610d5b610999565b5b6000610d6a85828601610a71565b9250506020610d7b85828601610a71565b9150509250929050565b60008115159050919050565b610d9a81610d85565b82525050565b6000602082019050610db56000830184610d91565b92915050565b600082825260208201905092915050565b7f566f74696e6754616c6c793a20566f74696e6720686173206e6f74207374617260008201527f7465642079657400000000000000000000000000000000000000000000000000602082015250565b6000610e28602783610dbb565b9150610e3382610dcc565b604082019050919050565b60006020820190508181036000830152610e5781610e1b565b9050919050565b7f566f74696e6754616c6c793a20566f74696e672068617320656e646564000000600082015250565b6000610e94601d83610dbb565b9150610e9f82610e5e565b602082019050919050565b60006020820190508181036000830152610ec381610e87565b9050919050565b7f566f74696e6754616c6c793a204d65726b6c6520726f6f74206973206e6f742060008201527f7365740000000000000000000000000000000000000000000000000000000000602082015250565b6000610f26602383610dbb565b9150610f3182610eca565b604082019050919050565b60006020820190508181036000830152610f5581610f19565b9050919050565b7f4e487b7100000000000000000000000000000000000000000000000000000000600052603260045260246000fd5b7f566f74696e6754616c6c793a20496e76616c6964204d65726b6c6520726f6f74600082015250565b6000610fc1602083610dbb565b9150610fcc82610f8b565b602082019050919050565b60006020820190508181036000830152610ff081610fb4565b9050919050565b7f566f74696e6754616c6c793a205468697320766f74652068617320616c72656160008201527f6479206265656e20636173740000000000000000000000000000000000000000602082015250565b6000611053602c83610dbb565b915061105e82610ff7565b604082019050919050565b6000602082019050818103600083015261108281611046565b9050919050565b7f566f74696e6754616c6c793a20496e76616c69642063616e646964617465206960008201527f6e64657800000000000000000000000000000000000000000000000000000000602082015250565b60006110e5602483610dbb565b91506110f082611089565b604082019050919050565b60006020820190508181036000830152611114816110d8565b9050919050565b600060029050919050565b600081905092915050565b6000819050919050565b611144816108c1565b82525050565b6000611156838361113b565b60208301905092915050565b6000602082019050919050565b6111788161111b565b6111828184611126565b925061118d82611131565b8060005b838110156111be5781516111a5878261114a565b96506111b083611162565b925050600181019050611191565b505050505050565b600060029050919050565b600081905092915050565b6000819050919050565b600081905092915050565b6111fa8161111b565b61120481846111e6565b925061120f82611131565b8060005b83811015611240578151611227878261114a565b965061123283611162565b925050600181019050611213565b505050505050565b600061125483836111f1565b60408301905092915050565b6000602082019050919050565b611276816111c6565b61128081846111d1565b925061128b826111dc565b8060005b838110156112bc5781516112a38782611248565b96506112ae83611260565b92505060018101905061128f565b505050505050565b600060039050919050565b600081905092915050565b6000819050919050565b6000602082019050919050565b6112fa816112c4565b61130481846112cf565b925061130f826112da565b8060005b83811015611340578151611327878261114a565b9650611332836112e4565b925050600181019050611313565b505050505050565b60006101608201905061135e600083018761116f565b61136b604083018661126d565b61137860c083018561116f565b6113866101008301846112f1565b95945050505050565b61139881610d85565b81146113a357600080fd5b50565b6000815190506113b58161138f565b92915050565b6000602082840312156113d1576113d0610999565b5b60006113df848285016113a6565b91505092915050565b7f566f74696e6754616c6c793a20496e76616c6964205a4b2070726f6f66000000600082015250565b600061141e601d83610dbb565b9150611429826113e8565b602082019050919050565b6000602082019050818103600083015261144d81611411565b9050919050565b7f4e487b7100000000000000000000000000000000000000000000000000000000600052601160045260246000fd5b600061148e826108c1565b91507fffffffffffffffffffffffffffffffffffffffffffffffffffffffffffffffff82036114c0576114bf611454565b5b600182019050919050565b7f566f74696e6754616c6c793a2043616c6c6572206973206e6f7420746865206f60008201527f776e657200000000000000000000000000000000000000000000000000000000602082015250565b6000611527602483610dbb565b9150611532826114cb565b604082019050919050565b600060208201905081810360008301526115568161151a565b9050919050565b7f566f74696e6754616c6c793a204d65726b6c6520726f6f742063616e6e6f742060008201527f6265207a65726f00000000000000000000000000000000000000000000000000602082015250565b60006115b9602783610dbb565b91506115c48261155d565b604082019050919050565b600060208201905081810360008301526115e8816115ac565b9050919050565b7f566f74696e6754616c6c793a2053746172742074696d65206d7573742062652060008201527f6265666f726520656e642074696d650000000000000000000000000000000000602082015250565b600061164b602f83610dbb565b9150611656826115ef565b604082019050919050565b6000602082019050818103600083015261167a8161163e565b9050919050565b600060408201905061169660008301856108cb565b6116a360208301846108cb565b939250505056fea26469706673582212205ed0ae6db86de03cf838d1e195ae48418c710c7828137f90a5a0b12f1e0bcbcb64736f6c63430008140033",
  "linkReferences": {},
  "deployedLinkReferences": {}
}