{
  "_format": "hh-sol-artifact-1",
  "contractName": "MockVerifier",
  "sourceName": "contracts/test/MockVerifier.sol",
  "abi": [
    {
      "inputs": [],
      "name": "result",
      "outputs": [
        {
          "internalType": "bool",
          "name": "",
          "type": "bool"
        }
      ],
      "stateMutability": "view",
      "type": "function"
    },
    {
      "inputs": [
        {
          "internalType": "bool",
          "name": "_result",
          "type": "bool"
        }
      ],
      "name": "setResult",
      "outputs": [],
      "stateMutability": "nonpayable",
      "type": "function"
    },
    {
      "inputs": [
        {
          "internalType": "uint256[2]",
          "name": "",
          "type": "uint256[2]"
        },
        {
          "internalType": "uint256[2][2]",
          "name": "",
          "type": "uint256[2][2]"
        },
        {
          "internalType": "uint256[2]",
          "name": "",
          "type": "uint256[2]"
        },
        {
          "internalType": "uint256[4]",
          "name": "",
          "type": "uint256[4]"
        }
      ],
      "name": "verifyProof",
      "outputs": [
        {
          "internalType": "bool",
          "name": "",
          "type": "bool"
        }
      ],
      "stateMutability": "view",
      "type": "function"
    }
  ],
  "bytecode": "0x608060405260016000806101000a81548160ff02191690831515021790555034801561002a57600080fd5b506105148061003a6000396000f3fe608060405234801561001057600080fd5b50600436106100415760003560e01c80635fe8c13b146100465780636537214714610076578063f4b4dc2e14610094575b600080fd5b610060600480360381019061005b91906103e6565b6100b0565b60405161006d919061046a565b60405180910390f35b61007e6100cb565b60405161008b919061046a565b60405180910390f35b6100ae60048036038101906100a991906104b1565b6100dc565b005b60008060009054906101000a900460ff169050949350505050565b60008054906101000a900460ff1681565b806000806101000a81548160ff02191690831515021790555050565b6000604051905090565b600080fd5b600080fd5b6000601f19601f8301169050919050565b7f4e487b7100000000000000000000000000000000000000000000000000000000600052604160045260246000fd5b6101558261010c565b810181811067ffffffffffffffff821117156101745761017361011d565b5b80604052505050565b60006101876100f8565b9050610193828261014c565b919050565b600067ffffffffffffffff8211156101b3576101b261011d565b5b602082029050919050565b600080fd5b6000819050919050565b6101d6816101c3565b81146101e157600080fd5b50565b6000813590506101f3816101cd565b92915050565b600061020c61020784610198565b61017d565b90508060208402830185811115610226576102256101be565b5b835b8181101561024f578061023b88826101e4565b845260208401935050602081019050610228565b5050509392505050565b600082601f83011261026e5761026d610107565b5b600261027b8482856101f9565b91505092915050565b600067ffffffffffffffff82111561029f5761029e61011d565b5b602082029050919050565b60006102bd6102b884610284565b61017d565b905080604084028301858111156102d7576102d66101be565b5b835b8181101561030057806102ec8882610259565b8452602084019350506040810190506102d9565b5050509392505050565b600082601f83011261031f5761031e610107565b5b600261032c8482856102aa565b91505092915050565b600067ffffffffffffffff8211156103505761034f61011d565b5b602082029050919050565b600061036e61036984610335565b61017d565b90508060208402830185811115610388576103876101be565b5b835b818110156103b1578061039d88826101e4565b84526020840193505060208101905061038a565b5050509392505050565b600082601f8301126103d0576103cf610107565b5b60046103dd84828561035b565b91505092915050565b600080600080610180858703121561040157610400610102565b5b600061040f87828801610259565b94505060406104208782880161030a565b93505060c061043187828801610259565b925050610100610443878288016103bb565b91505092959194509250565b60008115159050919050565b6104648161044f565b82525050565b600060208201905061047f600083018461045b565b92915050565b61048e8161044f565b811461049957600080fd5b50565b6000813590506104ab81610485565b92915050565b6000602082840312156104c7576104c6610102565b5b60006104d58482850161049c565b9150509291505056fea26469706673582212205aabfaa62a062aa5efa5afa0f059c0d6ca7d5da58dcf707b4a7309c41f3e5dff64736f6c63430008140033",
  "linkReferences": {},
  "deployedLinkReferences": {}
}